:100000000C94BB000C94E3000C94E3000C94E3000C
:100010000C94E3000C94E3000C94E3000C94E300D4
:100020000C94E3000C94E3000C942A020C946802F4
:100030000C94E3000C94E3000C94E3000C94E300B4
:100040000C94E3000C9405020C94E3000C94E30080
:100050000C94E3000C94E3000C94E3000C94E30094
:100060000C94E3000C94E3000C94E3000C94E30084
:100070000C94E3000C94E3000C94E3000C94E30074
:100080000C94E3000C94E3000C94E3000C94E30064
:100090000C94E3000C94E3000C94E3000C94E30054
:1000A0000C94E3000C94E3000C94E30000010000C6
:1000B0005701120002000014014300030000100168
:1000C0000401030904EC002202030904E0000A030E
:1000D000030904D600080803340031003000000092
:1000E0000A03530045005400690000002203410048
:1000F0006E006400720065007700200045006C000F
:100100006D0065006E0064006F0072006600000004
:100110000403090409024300020100C0320904007B
:100120000001020201000524001001052401010163
:10013000042402060524060001070582031000407E
:1001400009040100020A0000000705030240000044
:10015000070584024000001201000202000010C0E6
:10016000167A040001010203010001C11201803668
:1001700001813600660111241FBECFEFDAE0DEBF39
:10018000CDBF11E0A0E0B1E0E0E3F8E002C00590EF
:100190000D92A830B107D9F721E0A8E0B1E001C085
:1001A0001D92AF30B207E1F710E0CBEBD0E004C016
:1001B0002197FE010E94EE03CA3BD107C9F70E94B6
:1001C00000020C9416040C940000FC0181E0808372
:1001D00041E050E060E070E04183528363837483C8
:1001E00045835683678370878187828743875487D7
:1001F000658776874787508B618B728B838B848B67
:10020000458B568B678B708F418F528F638F748FA6
:10021000858F08950895FC01DB018C9180831196F0
:100220004D915D916D917C911497418352836383CD
:10023000748315964D915D916D917C9118974583CE
:1002400056836783708719968C91199781871A96C0
:100250008C911A9782871B964D915D916D917C913F
:100260001E9743875487658776871F964D915D91CA
:100270006D917C9152974787508B618B728B53960F
:100280008C915397838B54968C915497848B55966D
:100290004D915D916D917C915897458B568B678BF5
:1002A000708F59964D915D916D917C915C97418FC6
:1002B000528F638F748F5D968C91858F4EE150E0E5
:1002C00060E070E0CF010E94F4030895E0E0F0E008
:1002D00081E0808341E050E060E070E04183528340
:1002E000638374834583568367837087818782879E
:1002F00043875487658776874787508B618B728BDE
:10030000838B848B458B568B678B708F418F528F7D
:10031000638F748F858F089585B1806785B92D9817
:10032000089585B1806785B92C980895CF93DF93A0
:10033000CDB7DEB7EC970FB6F894DEBF0FBECDBFDA
:1003400081E089838AE090E0A0E0B0E08A839B832B
:10035000AC83BD8380E19EE0A0E0B0E08E839F830C
:10036000A887B9878FE08A8782E08B8742E350E0D5
:1003700060E070E04C875D876E877F8740ED57E0D7
:1003800060E070E0488B598B6A8B7B8B94E19C8B8F
:100390008D8B84E690E0A0E0B0E08E8B9F8BA88FE1
:1003A000B98F88EE93E0A0E0B0E08A8F9B8FAC8F8E
:1003B000BD8F8AE08E8FCE014F960E94E500BE0170
:1003C0006F5F7F4FCE014F960E940B010E949101FB
:1003D0002FEF89E698E1215080409040E1F700C07E
:1003E00000000E948C01CE014F960E940A01EC96FB
:1003F0000FB6F894DEBF0FBECDBFDF91CF91089549
:100400000E94960180E090E008951F920F920FB62F
:100410000F9211248F939F93AF93BF938091080104
:1004200090910901A0910A01B0910B010196A11DC3
:10043000B11D8093080190930901A0930A01B09324
:100440000B01BF91AF919F918F910F900FBE0F90B5
:100450001F9018951F920F920FB60F9211248F9331
:100460009F93EF93FF93E1EEF0E08081108283FF92
:1004700011C01092E90091E09093EB001092EC0013
:1004800092E19093ED0098E09093F00010920E01AD
:1004900010920C0182FF13C080910E01882379F025
:1004A00080910D01882359F0815080930D018111B5
:1004B00006C084E08093E9008AE38093E800FF911E
:1004C000EF919F918F910F900FBE0F901F901895F5
:1004D0001F920F920FB60F9211240F931F932F9319
:1004E0003F934F935F936F937F938F939F93AF93BC
:1004F000BF93CF93DF93EF93FF931092E900809126
:10050000E80083FF4FC1E1EFF0E0A081808120810E
:10051000908130E0392B4081908150E0BA01792BF5
:10052000C081D08192EF9093E800863009F059C0E5
:1005300004C081E28093EB003CC14CEA50E006ED40
:1005400010E0CA01FA01A591B4912A173B0709F5F9
:10055000FA013296A591B4916A177B07D1F4FA019A
:10056000349645915491FC01369624918C2F90E05D
:100570009D2B8F3F910519F010F08FEF90E08217BF
:1005800008F4282FA8EEB0E070E16EEFC1EFD0E0E4
:1005900006C0495F5F4F4017510799F6CACF8C914B
:1005A000982F9570E1F382FD04C1322F213108F0BC
:1005B000372F332309F4FAC0FA01832F94919883DB
:1005C000815031968111FACF8FEF830F90E0019621
:1005D000480F591F231B6C932111E1CF3031F9F2E1
:1005E000E8C0853061F48EEF8093E800E8EEF0E03B
:1005F000808180FFFDCF20682093E300DAC089303E
:1006000009F035C0A111CEC020930E0110920C014B
:1006100010920D018EEF8093E80081E029E631E031
:10062000C9EED0E0ABEEB0E00CEE10E06DEE70E0A5
:100630008883A9014F5F5F4FF90194919C9399239F
:1006400061F0FA014491F8014083F90132969491E6
:100650002D5F3F4FFB01908301C09A018F5F853072
:1006600039F7EAEEF0E08EE180831082A2C0883094
:1006700081F4A03809F096C0E8EEF0E0808180FFB8
:10068000FDCF80910E018093F1008EEF8093E80002
:1006900090C08132B9F4A13A09F084C0E8EEF0E0EC
:1006A000808180FFFDCFE0E0F1E027E031E0A1EFC5
:1006B000B0E081918C932E173F07D9F78EEF80938E
:1006C000E80077C08032D1F4A13209F06BC0E8EEC7
:1006D000F0E0808182FFFDCFE0E0F1E027E031E053
:1006E000A1EFB0E08C9181932E173F07D9F7E8EE88
:1006F000F0E08BEF80838EEF80835BC0823271F4F9
:10070000A13209F04FC020930C01E8EEF0E08081A7
:1007100080FFFDCF8EEF8093E8004BC081111AC09F
:10072000E8EEF0E0808180FFFDCFA23851F4E9EEE1
:10073000F0E060838091EB0085FB882780F91082D0
:1007400001C080E0E1EFF0E0808310828EEF8093C3
:10075000E8002FC0982F9D7F913021F5A23011F530
:10076000232B01F5462F4F779FEF940F9430D0F451
:100770009EEF9093E8004093E900833021F481E2FA
:100780008093EB0016C089E18093EB0081E090E05C
:1007900002C0880F991F4A95E2F7EAEEF0E08083E5
:1007A000108207C081E28093EB0003C06C9321119B
:1007B000F6CEFF91EF91DF91CF91BF91AF919F91D5
:1007C0008F917F916F915F914F913F912F911F91E9
:1007D0000F910F900FBE0F901F901895EE0FFF1FF7
:1007E0000590F491E02D0994DC01A40FB51F415050
:1007F000504048F0CB01840F951F2E910E940504B4
:1008000041505040D0F70895262FF999FECF92BD60
:1008100081BDF89A019700B4021639F01FBA20BDC5
:100820000FB6F894FA9AF99A0FBE0895F894FFCF8C
:0808300000E1000000000800D7
:00000001FF
