S01C000054426F617264436F6E74726F6C6C6572526576322E7372656349
S11300000C94C3000C94EB000C94EB000C94EB00E8
S11300100C94EB000C94EB000C94EB000C94EB00B0
S11300200C94EB000C94EB000C94E3120C941D1351
S11300300C94EB000C94EB000C94EB000C94EB0090
S11300400C94EB000C94E8110C94EB000C94EB0072
S11300500C94EB000C94EB000C94EB000C94EB0070
S11300600C94EB000C94EB000C94EB000C94EB0060
S11300700C94EB000C94EB000C94EB000C94EB0050
S11300800C94EB000C94EB000C94EB000C94EB0040
S11300900C94EB000C94EB000C94EB000C94EB0030
S11300A00C94EB000C94EB000C94EB006364696E0D
S11300B06F70737578585B000001000063011200D3
S11300C0020000200143000300001C010401030995
S11300D004F8002202030904EC000A03030904E201
S11300E00008080334003100300000000A03530004
S11300F04500540069000000220341006E006400C2
S1130100720065007700200045006C006D006500FA
S11301106E0064006F0072006600000004030904AE
S113012009024300020100C0320904000001020276
S11301300100052400100105240101010424020624
S1130140052406000107058203100040090401008C
S1130150020A0000000705030240000007058402AC
S11301604000001201000202000010C0167A0400D0
S113017001010203010001C1120180360181360030
S113018086039C03AF0311241FBECFEFDAE0DEBF6A
S1130190CDBF11E0A0E0B1E0E8EFFAE302C00590C2
S11301A00D92AA35B107D9F723E0AAE5B1E001C061
S11301B01D92AD33B207E1F710E0C2ECD0E004C009
S11301C02197FE010E94B216C03CD107C9F70E94D4
S11301D08D030C946F1D0C94000008950F931F93CE
S11301E0FC0171836083DA018C918283038314831D
S11301F0258336831F910F910895CF92DF92EF925A
S1130200FF921F93CF93DF93EC01162FCB80DC80FA
S1130210ED80FE8020E030E0A901C701B6010E9414
S1130220D61418167CF0E881F981208181E090E0F1
S11302300A8002C0880F991F0A94E2F780958223EE
S113024080836AC020E030E040E051E4C701B60199
S11302500E94351620E030E040EA50E40E94DB14AE
S11302609B01AC0160E070E084E092E40E946914B8
S11302700E944D15112391F0E881F981208181E0DC
S113028090E00A8002C0880F991F0A94E2F78095D3
S1130290822380832AE12A95F1F700C080E090E070
S11302A0A1E0B0E08617970704F5E881F981408161
S11302B09D010A8002C0220F331F0A94E2F7242B07
S11302C020832AE12A95F1F700C0E881F981308181
S11302D0AD010A8002C0440F551F0A94E2F7242F8F
S11302E02095232320830196DDCF8AE18A95F1F7B7
S11302F000C0E881F981208181E090E00A8002C099
S1130300880F991F0A94E2F7822B808387E092E09A
S11303100197F1F700C00000DF91CF911F91FF908A
S1130320EF90DF90CF900895CF92DF92EF92FF92FB
S11303301F93CF93DF93EC01142FFB01C080D18076
S1130340E280F38020E030E0A901C701B6010E94F9
S1130350D61418167CF0E881F981208181E090E0C0
S11303600A8002C0880F991F0A94E2F780958223BD
S113037080836AC020E030E040E051E4C701B60168
S11303800E94351620E030E040EA50E40E94DB147D
S11303909B01AC0160E070E084E092E40E94691487
S11303A00E944D15112391F0E881F981208181E0AB
S11303B090E00A8002C0880F991F0A94E2F78095A2
S11303C082238083FAE1FA95F1F700C080E090E09F
S11303D0A1E0B0E08617970704F5E881F981408130
S11303E09D010A8002C0220F331F0A94E2F7242BD6
S11303F020832AE12A95F1F700C0E881F981308150
S1130400AD010A8002C0440F551F0A94E2F7242F5D
S11304102095232320830196DDCF8AE18A95F1F785
S113042000C0E881F981208181E090E00A8002C067
S1130430880F991F0A94E2F7822B8083E7E0F2E0A9
S11304403197F1F700C00000DF91CF911F91FF9029
S1130450EF90DF90CF900895DC01ED91FC9111971E
S1130460408121E030E0B90112960C9002C0660F81
S1130470771F0A94E2F7CB01809584238083089543
S113048008950895089544E250E060E070E00C940B
S1130490EE1C44E250E060E070E00C94FE1CFC01B1
S11304A0DB018D919C9111979183808312964D91DC
S11304B05D916D917C911597428353836483758319
S11304C016964D915D916D917C9119974683578352
S11304D0608771871A964D915D916D917C911D97FE
S11304E042875387648775871E968D919C911F97C9
S11304F09787868750964D915D916D917C91539726
S1130500408B518B628B738B54964D915D916D91A1
S11305107C915797448B558B668B778B58968D912E
S11305209C915997918F808F5A964D915D916D91C1
S11305307C915D97428F538F648F758F5E964D913A
S11305405D916D917C919197468F578F60A371A3B4
S113055092968D919C91939793A382A30895FC0105
S1130560DB018D919C9111979183808312964D911B
S11305705D916D917C911597428353836483758358
S113058016964D915D916D917C9119974683578391
S1130590608771871A964D915D916D917C911D973D
S11305A042875387648775871E968D919C911F9708
S11305B09787868750964D915D916D917C91539765
S11305C0408B518B628B738B54964D915D916D91E1
S11305D07C915797448B558B668B778B58968D916E
S11305E09C915997918F808F5A964D915D916D9101
S11305F07C915D97428F538F648F758F5E964D917A
S11306005D916D917C919197468F578F60A371A3F3
S113061092968D919C91939793A382A3CF01089571
S1130620FC0110821182128213820895FC018081E0
S113063090E0089544E050E064E270E00C94EE1C15
S1130640FC01108211821282138244E050E064E2C1
S113065070E00C94201D0F931F93CF93DF93EC0154
S11306608B0144E050E064E270E0C8010E94EE1C9B
S1130670F801808188838181898382818A8383814F
S11306808B83CE01DF91CF911F910F910895FC01CF
S113069020812F5F208341E050E064E270E00C94FD
S11306A0FE1CFC016130710579F062307105B9F00E
S11306B0672BF9F481818F5F818341E050E065E22B
S11306C070E0CF01019609C082818F5F828341E08F
S11306D050E066E270E0CF0102960C94FE1C838128
S11306E08F5F838341E050E067E270E0CF010396BF
S11306F0F4CF87E3808381838283838344E050E063
S113070064E270E0CF010C94201D0895E4E2F0E06F
S1130710108211821282138208958EE991E00E9460
S113072017058EE991E00E9400088EE991E00E948D
S1130730170881E090E00895CF93DF938EE991E06C
S11307400E944204CCE5D1E0CE010E9479112B969F
S113075081E0CE39D807C1F7DF91CF910895CF93C7
S1130760DF93CEE9D1E02B97CE010E94AF1181E057
S1130770CC35D807C1F78EE991E0DF91CF910C9485
S1130780810485B1806785B92E98089585B1806705
S113079085B92D98089585B1806785B92C980895F9
S11307A00C94F610805C9F4F0C94F61080589F4F69
S11307B00C94F6108F929F92AF92BF92CF92DF92D9
S11307C0EF92FF921F93CF93DF93EC01FB01142F61
S11307D0423079F04330C1F04130D1F5C284D38442
S11307E0E484F58486809780A084B18466857785C7
S11307F015C0C488D588E688F78880889188A2883F
S1130800B388608D718D0AC0C68CD78CE0A0F1A02E
S1130810828C938CA48CB58C62A173A1072E000CDE
S1130820880B990B0E94851520E030E04AE754E4D8
S11308300E94DB14188389829A82AB82BC82CD82A7
S1130840DE82EF82F88669877A878B879C870DC062
S1130850488319821A821B821C821D821E821F8277
S1130860188619861A861B861C86CE01DF91CF91C5
S11308701F91FF90EF90DF90CF90BF90AF909F902B
S11308808F900895EF92FF920F931F93CF93DF936E
S1130890EC010E94B30FCE01805C9F4F0E94B30F06
S11308A0CE0180589F4F0E94B30F8E0100541F4FFA
S11308B07E018EEFE81AF80AC8010E947911055FDB
S11308C01F4F0E151F05C1F7C8010E944102CE013A
S11308D08A5D9E4F0E941003CE01865D9E4F0E944A
S11308E00D12CE01865A9E4F0E94B011CE01825A3B
S11308F09E4FDF91CF911F910F91FF90EF900C9439
S1130900B011EF92FF920F931F93CF93DF938C015B
S1130910825A9E4F0E94CC11C801865A9E4F0E9453
S1130920CC11C801865D9E4F0E945812C8018A5D91
S11309309E4F0E94850378018EEFE81AF80AC701DA
S11309400E944202E801C054DF4F51F0EC16FD064C
S113095039F08BE0E81AF108C7010E94AF11F6CF15
S11309600115110549F0C017D10731F0C054D10960
S1130970CE010E946611F7CFDF91CF911F910F91A5
S1130980FF90EF900895CF93DF93EC018CE0FB018F
S1130990DE0101900D928A95E1F78CE0FB013C9613
S11309A0DE011C9601900D928A95E1F78CE0FB0123
S11309B07896DE01589601900D928A95E1F7FB0135
S11309C084A18CA387E0B596DE01959601900D92E3
S11309D08A95E1F7FB0184A58CA785A58DA786A53B
S11309E08EA787A590A9A1A9B2A98FA798ABA9ABF7
S11309F0BAAB83A994A9A5A9B6A98BAB9CABADABA3
S1130A00BEAB87A990ADA1ADB2AD8FAB98AFA9AF86
S1130A10BAAF83AD8BAF84AD95ADA6ADB7AD8CAF9A
S1130A209DAFAEAFBFAFCE01DF91CF910895DF92FE
S1130A30EF92FF920F931F93CF93DF93CDB7DEB75F
S1130A40CE54D1090FB6F894DEBF0FBECDBF8C01D2
S1130A5085B7806885BF85B7806885BFE1E6F0E02B
S1130A6080E88083108284B1806784B985B180670F
S1130A7085B98AB1806C8AB98BB1806C8BB93E9A86
S1130A80469A8D9A85983F9A8AB183608AB985B1CE
S1130A90876085B920988BB18C628BB98AB1837DCC
S1130AA08AB97894B801665A7E4FFB011082319658
S1130AB01082C801825A9E4F0E94B6117801FEEF3F
S1130AC0EF1AFF0AC7010E944302C8018A5D9E4FC4
S1130AD00E941A03B701CE0101960E94AF02780169
S1130AE08AECE81A8EEFF80A89819A81F7019183DA
S1130AF080832B813C814D815E81228333834483B7
S1130B0055838F819885A985BA8586839783A08725
S1130B10B1878B859C85AD85BE8582879387A487A5
S1130B20B5878F8598899787868789899A89AB89BC
S1130B30BC89808B918BA28BB38B8D899E89AF8965
S1130B40B88D848B958BA68BB78B898D9A8D918F5D
S1130B50808F8B8D9C8DAD8DBE8D828F938FA48F56
S1130B60B58F8F8D98A1A9A1BAA1868F978FA0A3C5
S1130B70B1A38BA19CA193A382A360E87EEE86E33C
S1130B8090E00E94A21625966CAF7DAF8EAF9FAF0A
S1130B902597BE016F5B7F4FCE0101960E94131211
S1130BA0D801A65DBE4F8CE0FE01319601900D92F6
S1130BB08A95E1F7CE0101960E94581287E02F969C
S1130BC08FAF2F9741E0B701CE018F5B9F4F0E94FB
S1130BD0DA039E01225B3F4F48E250E0BE016F5BA7
S1130BE07F4FCE0101960E94E90FBE016F5F7F4FD8
S1130BF0C8010E94C304CE0101960E946611DD243F
S1130C00D3942F96DFAE2F9742E0B701CE018F5BCE
S1130C109F4F0E94DA039E01225B3F4F4BE250E05C
S1130C20BE016F5B7F4FCE0101960E94E90FBE01AA
S1130C306F5F7F4FC801805C9F4F0E94C304CE0149
S1130C4001960E9466112F961FAE2F9743E0B701BD
S1130C50CE018F5B9F4F0E94DA039E01225B3F4FC0
S1130C604BE250E0BE016F5B7F4FCE0101960E94C4
S1130C70E90FBE016F5F7F4FC80180589F4F0E94EC
S1130C80C304CE0101960E94661122961FAE2297DC
S1130C9020E0AE014F5B5F4F63E270E0CE0101964E
S1130CA00E947A11D801A054BF4F8BE0FE01319607
S1130CB001900D928A95E1F7CE0101960E94AF1141
S1130CC02296DFAE229720E0AE014F5B5F4F63E2D6
S1130CD070E0CE0101960E947A11D801A553BF4F4E
S1130CE08BE0FE01319601900D928A95E1F7CE01D9
S1130CF001960E94AF1182E0F82E2296FFAE229751
S1130D0020E0AE014F5B5F4F63E270E0CE010196DD
S1130D100E947A11D801AA52BF4F8BE0FE0131968E
S1130D2001900D928A95E1F7CE0101960E94AF11D0
S1130D3085E022968FAF229720E0AE014F5B5F4F94
S1130D4069E270E0CE0101960E947A11D801AF5198
S1130D50BF4F8BE0FE01319601900D928A95E1F729
S1130D60CE0101960E94AF1183E022968FAF2297A5
S1130D7020E0AE014F5B5F4F69E270E0CE01019667
S1130D800E947A11D801A451BF4F8BE0FE01319625
S1130D9001900D928A95E1F7CE0101960E94AF1160
S1130DA02296FFAE229720E0AE014F5B5F4F69E2CF
S1130DB070E0CE0101960E947A11D801A950BF4F6C
S1130DC08BE0FE01319601900D928A95E1F7CE01F8
S1130DD001960E94AF11F801ED59FE4F8AE998E09F
S1130DE09183808332961182108232968AEA9CE043
S1130DF091838083329611821082329680ED93E043
S1130E0091838083329611821082329682ED93E030
S1130E1091838083329611821082329686ED93E01C
S1130E2091838083329611821082329683EB99E00B
S1130E309183808332961182108232968EE69AE0F4
S1130E409183808332961182108232968DEE9AE0DD
S1130E5091838083329611821082329683E79BE0DD
S1130E609183808332961182108232968DEF9BE0BB
S1130E7091838083329611821082329681EC93E0C2
S1130E8091838083329611821082329686EC93E0AD
S1130E909183808332961182108232968BEC93E098
S1130EA0918380833296118210820E945E120E9486
S1130EB0CD11C25BDF4F0FB6F894DEBF0FBECDBFBE
S1130EC0DF91CF911F910F91FF90EF90DF900895E4
S1130ED00F931F93CF93DF938C0100541F4FC0E0F7
S1130EE0D0E0C8010E948711C8010E94AC11882378
S1130EF029F0C8010E94A911CE010EC08FE99FE01C
S1130F000197F1F700C000002196055F1F4FC33021
S1130F10D10539F78FEF9FEFDF91CF911F910F919B
S1130F2008950F931F93CF93DF938C010F511F4F9D
S1130F30C3E0D0E0C8010E948711C8010E94AC112F
S1130F40882329F0C8010E94A911CE010EC08FE99F
S1130F509FE00197F1F700C000002196055F1F4F45
S1130F60C630D10539F78FEF9FEFDF91CF911F91F5
S1130F700F9108956430710559F06530710569F079
S1130F8063307105A9F4FC01E05AFE4F22E009C068
S1130F90FC01E05AFE4F23E004C0FC01E05AFE4F7E
S1130FA024E0208331971082329610823397108286
S1130FB00895CF93DF936130710551F0623071056C
S1130FC099F0672BD1F4FC01E05AFE4F108205C062
S1130FD0FC01E05AFE4F21E02083319710823296C3
S1130FE010823397108209C0EC010E949107BC0162
S1130FF0CE01DF91CF910C94BA07DF91CF91089580
S1131000CF93DF93EC010E946807BC01CE010E94DC
S1131010D907BE01625A7E4FCE01865A9E4F0E9466
S1131020B611C35ADE4F1882DF91CF910895EC01B7
S11310307C0182EAE81A8EEFF80A6E0196EAC91A70
S11310409EEFD90A8E01045A1E4FCE010E946807F2
S1131050BC01CE010E94D907B701C6010E94C2118A
S1131060F801882329F18081FE0194E0899FE00D35
S1131070F11D1124DF01A758BE4F2D913C91E95871
S1131080FE4FC9019595879520FF0AC0DE01A80F80
S1131090B91F4D915C9120813181FA01E20FF31F58
S11310A00190F081E02D61E08C0F9D1F0995CDCF5B
S11310B08081FE0194E0899FE00DF11D1124DF0180
S11310C0AB59BE4F2D913C91ED59FE4FC9019595F9
S11310D0879520FF0AC0DE01A80FB91F4D915C91CE
S11310E020813181FA01E20FF31F0190F081E02D9C
S11310F08C0F9D1F0995A9CF8BB1806C8BB9469A33
S1131100469808958BB1806C8BB9469A5F98089580
S11311108BB1806C8BB9469A5E98089585B18067CF
S113112085B98BB1806C8BB9469A089585B1806777
S113113085B908956F927F928F929F92AF92BF92DA
S1131140CF92DF92EF92FF920F931F93CF93DF938F
S1131150EC015C0185EAA81A8EEFB80AD5018C91DE
S1131160882321F0833009F4B1C0EEC08E01065A01
S11311701E4F7D9B24C0F80180818111E5C081E070
S11311808083CE010E948808CE010E945F11CE01A7
S1131190805C9F4F0E945F11CE0180589F4FDF916A
S11311A0CF911F910F91FF90EF90DF90CF90BF9060
S11311B0AF909F908F907F906F900C945F11D801A7
S11311C08C918823B9F0CE010E947C08F80110822A
S11311D000E010E07E01E00EF11EC7010E945011F4
S11311E0882319F0C7010E946211005C1F4F003C64
S11311F0110581F78E016E01F5E7CF1AFEEFDF0AC4
S1131200812C912CE12CF12C3E018AED681A8EEF91
S1131210780A2AC0D60112962D913C911397ED912C
S1131220FC91C9019595879520FF0AC0DE01A80F9E
S1131230B91F2D913C91E20FF31F0190F081E02D35
S11312408C0F9D1F0995C8010E944D11811112C078
S1131250EFEFEE1AFE0A005C1F4FF4E0CF0ED11C34
S113126083E0E816F104B1F0C8010E94F610882367
S113127051F3D0CFBFEF8B1A9B0AC8010E945C11B7
S11312808111E6CFC8010E945811B701C3010E9421
S11312905103DECFA3E08A16910409F055C083E020
S11312A0F5018083CE010E948208CE01DF91CF91A7
S11312B01F910F91FF90EF90DF90CF90BF90AF9070
S11312C09F908F907F906F900C9496088E01065D8E
S11312D01E4FC8010E942E128823B1F17E01FAED3F
S11312E0EF1AFEEFFF0AC7010E941603FE01EA5C33
S11312F0FE4F208131818217930734F5C7010E9484
S11313004703C8010E941E12D5011C92CE010E94FF
S11313107C08CE010E94EB10CE01805C9F4F0E949E
S1131320EB10CE0180589F4FDF91CF911F910F9109
S1131330FF90EF90DF90CF90BF90AF909F908F90F1
S11313407F906F900C94EB10DF91CF911F910F91D0
S1131350FF90EF90DF90CF90BF90AF909F908F90D1
S11313607F906F9008950F931F93CF93DF93EC01B9
S11313706623B1F1613009F0ACC00E944111CE0185
S1131380805C9F4F0E944111CE0180589F4F0E9464
S11313904111CE010E948208CE010E949608FE01EE
S11313A0E05AFE4F8081FE0124E0829FE00DF11D92
S11313B01124DF01A758BE4F2D913C91E958FE4FEF
S11313C0C9019595879520FF79C0DE01A80FB91F43
S11313D04D915C9120813181FA01E20FF31F6EC0BF
S11313E0BC01625A7E4F8C01065A1E4FC8010E94EE
S11313F0B61181E0FE01E35AFE4F8083F8011082AA
S113140031961082CE01865D9E4F0E941E12CE013F
S11314108A5D9E4F0E942003CE010E947C08FFEF4C
S113142023EC89E0F15020408040E1F700C0000047
S1131430CE010E948E089FEFE3ECF9E09150E0406A
S1131440F040E1F700C00000CE010E947C08CE010C
S11314500E94EB10CE01805C9F4F0E94EB10CE01E6
S113146080589F4F0E94EB10FE01E45AFE4F80818A
S1131470FE0124E0829FE00DF11D1124DF01AB5930
S1131480BE4F2D913C91ED59FE4FC901959587951D
S113149020FF0AC0DE01A80FB91F4D915C91208185
S11314A03181FA01E20FF31F0190F081E02D8C0FDE
S11314B09D1FDF91CF911F910F9109940190F081AD
S11314C0E02D60E08C0F9D1FDF91CF911F910F9154
S11314D00994DF91CF911F910F9108950F931F935A
S11314E0CF93DF93EC01662321F0613009F440C00F
S11314F06FC0BC01625A7E4F8C01065A1E4FC80150
S11315000E94B61181E0FE01E35AFE4F8083F80188
S113151010820E945E12CE010E948208FE01E45AEB
S1131520FE4F8081FE0194E0899FE00DF11D11249E
S1131530DF01AB59BE4F2D913C91ED59FE4FC901CE
S11315409595879520FF0AC0DE01A80FB91F4D911C
S11315505C9120813181FA01E20FF31F0190F08147
S1131560E02D8C0F9D1FDF91CF911F910F91099456
S11315700E948E08CE010E949608FE01E05AFE4F9A
S11315808081FE0194E0899FE00DF11D1124DF01AB
S1131590A758BE4F2D913C91E958FE4FC90195952E
S11315A0879520FF0AC0DE01A80FB91F4D915C91F9
S11315B020813181FA01E20FF31F0190F081E02DC7
S11315C060E08C0F9D1FDF91CF911F910F910994C3
S11315D0DF91CF911F910F9108950F931F93CF9394
S11315E0DF93EC01662321F0613009F444C076C036
S11315F0BC01625A7E4F8C01065A1E4FC8010E94DC
S1131600B61181E0FE01E35AFE4F8083F801108297
S1131610CE010E947C08CE010E94C103CE010E942B
S11316202611FE01E45AFE4F8081FE0194E0899F59
S1131630E00DF11D1124DF01AB59BE4F2D913C91FA
S1131640ED59FE4FC9019595879520FF0AC0DE012B
S1131650A80FB91F4D915C9120813181FA01E20FED
S1131660F31F0190F081E02D8C0F9D1FDF91CF912E
S11316701F910F9109940E944111CE010E9482088A
S1131680CE010E949608FE01E05AFE4F8081FE01C1
S113169094E0899FE00DF11D1124DF01A758BE4F8E
S11316A02D913C91E958FE4FC9019595879520FFEE
S11316B00AC0DE01A80FB91F4D915C9120813181D0
S11316C0FA01E20FF31F0190F081E02D60E08C0F2E
S11316D09D1FDF91CF911F910F910994DF91CF91BD
S11316E01F910F9108950F931F93CF93DF93EC01F4
S11316F0662321F0613009F446C07AC0BC01625A05
S11317007E4F8C01065A1E4FC8010E94B61181E01B
S1131710FE01E35AFE4F8083F8011082CE010E943D
S11317207C08CE010E94C603CE01805C9F4F0E94BC
S11317302611FE01E45AFE4F8081FE0194E0899F48
S1131740E00DF11D1124DF01AB59BE4F2D913C91E9
S1131750ED59FE4FC9019595879520FF0AC0DE011A
S1131760A80FB91F4D915C9120813181FA01E20FDC
S1131770F31F0190F081E02D8C0F9D1FDF91CF911D
S11317801F910F910994805C9F4F0E944111CE01DB
S11317900E948208CE010E949608FE01E05AFE4F84
S11317A08081FE0194E0899FE00DF11D1124DF0189
S11317B0A758BE4F2D913C91E958FE4FC90195950C
S11317C0879520FF0AC0DE01A80FB91F4D915C91D7
S11317D020813181FA01E20FF31F0190F081E02DA5
S11317E060E08C0F9D1FDF91CF911F910F910994A1
S11317F0DF91CF911F910F9108950F931F93CF9372
S1131800DF93EC01662321F0613009F446C07AC00D
S1131810BC01625A7E4F8C01065A1E4FC8010E94B9
S1131820B61181E0FE01E35AFE4F8083F801108275
S1131830CE010E947C08CE010E94CB03CE018058C9
S11318409F4F0E942611FE01E45AFE4F8081FE0143
S113185094E0899FE00DF11D1124DF01AB59BE4FC7
S11318602D913C91ED59FE4FC9019595879520FF27
S11318700AC0DE01A80FB91F4D915C91208131810E
S1131880FA01E20FF31F0190F081E02D8C0F9D1FF0
S1131890DF91CF911F910F91099480589F4F0E941F
S11318A04111CE010E948208CE010E949608FE01D9
S11318B0E05AFE4F8081FE0194E0899FE00DF11D06
S11318C01124DF01A758BE4F2D913C91E958FE4FDA
S11318D0C9019595879520FF0AC0DE01A80FB91F9D
S11318E04D915C9120813181FA01E20FF31F019047
S11318F0F081E02D60E08C0F9D1FDF91CF911F914F
S11319000F910994DF91CF911F910F910895EF9258
S1131910FF920F931F93CF93DF938B01FB010190F1
S11319200020E9F73197EF01C61BD70B7B01C701F4
S1131930801B910B8C179D0734F4F70181917F0173
S11319400E94A412F4CFDF91CF911F910F91FF90C9
S1131950EF9008952F923F924F925F926F927F92F1
S11319608F929F92AF92BF92CF92DF92EF92FF92AB
S11319700F931F93CF93DF93CDB7DEB7CC54D10928
S11319800FB6F894DEBF0FBECDBF4C012DB73EB7E6
S11319902D963FAF2EAF2D978C0105531F4F0E94FC
S11319A07712811109C0C8010E948711C8010E94E1
S11319B0AC118111F4CFB4C2C4010E94CB03C401A1
S11319C085539F4F27969FAF8EAF2797F401E85A10
S11319D0FE4FFCABEBAB94012C5A3E4F3CA72BA71C
S11319E08B579F4F9EA78DA73A97FEABEDAB2A501E
S11319F0310938AB2FA70A979AAB89AB27968EADDE
S1131A009FAD27970E94871127968EAD9FAD27978C
S1131A100E94AC11882309F483C20E949512882382
S1131A2069F3EDB7FEB72996FFAFEEAF2997082FFC
S1131A3010E02DB73EB7201B310B0FB6F8943EBF14
S1131A400FBE2DBF8DB79EB701966C015C01E12CD2
S1131A50F12C0E947A128D3051F00E151F0554F0AE
S1131A60F50181935F01FFEFEF1AFF0AF2CFEF2830
S1131A7009F44CC2F6018081803709F408C1823729
S1131A8069F18C3609F042C2EDB6FEB6B4016A5D66
S1131A907E4FCE0185960E942B0388A51F928F93BB
S1131AA08FA11F928F938EA11F928F938DA11F924E
S1131AB08F9389E491E09F938F938E010F5F1F4F63
S1131AC01F930F930E940717B801C4010E94870C4B
S1131AD00FB6F894FEBE0FBEEDBE18C22DB73EB7CA
S1131AE02B963FAF2EAF2B97B4016E5F7E4FCE0186
S1131AF001960E94AF02398139A78A818FABF40124
S1131B00EA5CFE4F308381839B8199AF1C811AAFBD
S1131B102D812BAF3E813CAF928313832483358385
S1131B208F818DAF98859EAF19851FAF2A85219629
S1131B302FAF219786839783108721873B85229631
S1131B403FAF22978C8523968FAF23972D843E84B5
S1131B5032878387248635868F85988986879787F9
S1131B6029893A894B895C89208B318B428B538B31
S1131B706D897E89AF89B88D648B758BA68BB78B85
S1131B80F98CEA8CF08EE18EDB8CCC8CBD8CAE8C27
S1131B90D28EC38EB48EA58E1F8D24961FAF24972C
S1131BA018A125961FAF259779A06AA024961FAD8A
S1131BB02497168F25961FAD2597178F70A261A2C3
S1131BC05BA04CA052A243A2EDB7FEB7E957F109BE
S1131BD00FB6F894FEBF0FBEEDBF0DB71EB70F5F73
S1131BE01F4F4F925F926F927F922596FFAD25977C
S1131BF0FF932496EFAD2497EF93AF92BF92CF92C9
S1131C00DF92EF92FF92BF93AF937F936F935F93B3
S1131C104F933F932F939F938F933F922F922396AB
S1131C20FFAD2397FF9322962FAD22972F932196F2
S1131C303FAD21973F938FAD8F939EAD9F93EDADB5
S1131C40EF93FCADFF932BAD2F933AAD3F9389AD4A
S1131C508F939FA99F93E9A5EF938FE191E09F93C1
S1131C608F931F930F930E9407172DB73EB7285DDC
S1131C703F4F0FB6F8943EBF0FBE2DBFB801C4014D
S1131C800E94870C2B968EAD9FAD2B973AC1EDB772
S1131C90FEB7F8AFEFAB67E071E0C6010E94D21661
S1131CA08C01E12CF12C82E1C82E81E0D82E940124
S1131CB02C5B3E4F3AA729A7140130EC231A3EEFC0
S1131CC0330A240184EC481A8EEF580A340198EC44
S1131CD0691A9EEF790A5401EAECAE1AEEEFBE0AD5
S1131CE00115110509F47FC069E071E0C8010E9483
S1131CF0D716892B09F46FC0E114F10481F47F92A3
S1131D006F92BF92AF922BE031E03F932F931F93DA
S1131D100F930E942917EDB7FEB7389634C0F1E04F
S1131D20EF16F104B9F42AA52F9339A53F933F92F6
S1131D302F925F924F92DF92CF921F930F930E9444
S1131D4029178DB79EB70A960FB6F8949EBF0FBE9B
S1131D508DBF3EC092E0E916F104D9F4EEA9EF93E9
S1131D60FDA9FF9328A92F933FA53F938AA98F9399
S1131D7099A99F93DF92CF921F930F930E942917E3
S1131D80EDB7FEB73A960FB6F894FEBF0FBEEDBF9F
S1131D901FC0F3E0EF16F104D9F42CA92F933BA94B
S1131DA03F938CA58F939BA59F93EEA5EF93FDA5E1
S1131DB0FF93DF92CF921F930F930E9429172DB7A1
S1131DC03EB7265F3F4F0FB6F8943EBF0FBE2DBF00
S1131DD03FEFE31AF30A67E071E080E090E00E94CD
S1131DE0D2168C017DCF74018AECE81A8EEFF80AC2
S1131DF0B70184010E5F1E4FC8010E944F02C80143
S1131E000E944902EDB7FEB7E957F1090FB6F894FD
S1131E10FEBF0FBEEDBF0DB71EB70F5F1F4FEBA97F
S1131E20FCA981818F9380818F93EBA5FCA583818D
S1131E308F9382818F9381818F9380818F93EDA57E
S1131E40FEA583818F9382818F9381818F9380817B
S1131E508F93EDA9FEA981818F9380818F93EFA544
S1131E60F8A983818F9382818F9381818F9380815D
S1131E708F93E9A9FAA983818F9382818F938181BA
S1131E808F9380818F93F401EC5BFE4F81818F935C
S1131E9080818F93349783818F9382818F93818103
S1131EA08F9380818F93349783818F9382818F93D3
S1131EB081818F9380818F93349783818F938281E3
S1131EC08F9381818F9380818F93F70181818F9389
S1131ED080818F938DE191E09F938F931F930F9354
S1131EE00E9407172DB73EB7285D3F4F0FB6F894F1
S1131EF03EBF0FBE2DBFB801C4010E94870C8FA93D
S1131F0098AD0FB6F8949EBF0FBE8DBF2996EEAD67
S1131F10FFAD29970FB6F894FEBF0FBEEDBF6ECD8F
S1131F202D962EAD3FAD2D970FB6F8943EBF0FBE44
S1131F302DBFC45BDF4F0FB6F894DEBF0FBECDBF1D
S1131F40DF91CF911F910F91FF90EF90DF90CF9091
S1131F50BF90AF909F908F907F906F905F904F90C5
S1131F603F902F900895CF93DF93EC010E940D12C0
S1131F70CE010C960E940D12CE0148960E940D12BD
S1131F80CE0185960E94ED0081E08EA781E090E06D
S1131F90A0E0B0E08FA798ABA9ABBAAB8BAB9CAB7E
S1131FA0ADABBEAB80E090E0A0E8BFE38FAB98AFF1
S1131FB0A9AFBAAF82E08DA71BAE1CA280E090E06F
S1131FC0A0E0B0E48CAF9DAFAEAFBFAFDF91CF91D7
S1131FD008954F925F926F927F928F929F92AF92E9
S1131FE0BF92CF92DF92EF92FF920F931F93CF9302
S1131FF0DF93CDB7DEB760970FB6F894DEBF0FBEA0
S1132000CDBF7C018B013A0149010E940D12570199
S11320108CE0A80EB11CC5010E940D126701E8E115
S1132020CE0ED11CC6010E940D122701F5E24F0EFF
S1132030511CC2010E94ED0081E0F70186A781E0F6
S113204090E0A0E0B0E087A790ABA1ABB2AB83ABCC
S113205094ABA5ABB6AB80E090E0A0E8BFE387AB60
S113206090AFA1AFB2AFF8018081F70186A7F80164
S113207081819281A381B481F70187A790ABA1AB41
S1132080B2ABF80185819681A781B085F70183AB56
S113209094ABA5ABB6ABF80181859285A385B485D5
S11320A0F70187AB90AFA1AFB2AFF80121813281C4
S11320B043815481A0E6BAEE0E94B8166D877E87EC
S11320C08F87988BBE01635F7F4FCE0101960E947C
S11320D013128CE0FE013196D70101900D928A957E
S11320E0E1F7CE0101960E945812F801258136814C
S11320F047815085A0E6BAEE0E94B8166D877E87A8
S11321008F87988BBE01635F7F4FCE0101960E943B
S113211013128CE0FE013196D50101900D928A953F
S1132120E1F7CE0101960E94581288E893E1A0E0FD
S1132130B0E08D879E87AF87B88BBE01635F7F4F0A
S1132140CE0101960E9413128CE0FE013196D60155
S113215001900D928A95E1F7CE0101960E945812E2
S1132160F70107A910AD21AD32ADA401B301CE0131
S113217001960E94EE0087E0FE013196D2010190A3
S11321800D928A95E1F7CE0101960E94400282E009
S1132190F70185A713AE14A280E090E0A0E0B0E4BC
S11321A084AF95AFA6AFB7AF60960FB6F894DEBF15
S11321B00FBECDBFDF91CF911F910F91FF90EF9094
S11321C0DF90CF90BF90AF909F908F907F906F9053
S11321D05F904F900895CF93DF93EC011DA60E946A
S11321E01E121CA21BAEDF91CF9108951F93CF93B3
S11321F0DF93EC011DA51130C1F038F0133009F55F
S113220060E085960E94FD001CC00E942E12882367
S1132210C1F0CE010C960E941E1260E0CE0185969C
S11322200E94FD0081E08DA70DC00C960E942E1225
S1132230882339F0CE0185960E942C0282E08DA776
S11322401BAF80E0DF91CF911F910895CF93DF936F
S1132250EC0183E08DA780E090E0A0E0B0E48CAFD7
S11322609DAFAEAFBFAFCE0148960E941E12BE0115
S1132270645C7F4F40E0CE018596DF91CF910C9452
S11322809401CF93DF93EC0185960E942C0281E0A8
S11322908BAF8CA3DF91CF910895FC0183AD08959A
S11322A021E0FC0185A5813009F020E0822F08950A
S11322B021E0FC0124A30895FC0184A108958596DE
S11322C00C942C0260E085960C94FD00CF93DF9370
S11322D0EC0185960E944002CE0148960E94581255
S11322E0CE010C960E945812CE01DF91CF910C942E
S11322F058120895FC011082728761871282DA01F4
S11323008C91848311821382168220870895FC01A4
S1132310A185B2852C9181E090E0048002C0880FF1
S1132320991F0A94E2F730E082239323208530E05A
S11323308217930761F481818F5F8183843040F039
S113234081E0808386818F5F868311820895108265
S11323500895FC0111820895FC0180810895089577
S1132360FC011382108284E081830895FB012081A3
S1132370DC012C93218111962C93119722811296C2
S11323802C93089521E0FC019281FB018281981332
S113239001C020E0822F089508951092800089E002
S11323A08093810082E080936F0080E89EE39093A5
S11323B089008093880008952FB7F89460913503BD
S11323C07091360380913703909138032FBF08959D
S11323D01F920F920FB60F9211248F939F93AF9376
S11323E0BF938091350390913603A0913703B09148
S11323F038030196A11DB11D8093350390933603D4
S1132400A0933703B0933803BF91AF919F918F91FD
S11324100F900FBE0F901F901895FC011086118627
S1132420128613860895FB01408151816281738174
S1132430FC0140875187628773870895CF93DF93A8
S1132440EC010E94DC116C837D838E839F836883FF
S113245079838A839B83DF91CF910895CF92DF9212
S1132460EF92FF92CF93DF93EC010E94DC116C8317
S11324707D838E839F83C880D980EA80FB80DC01C2
S1132480CB018C199D09AE09BF0921E0C884D98408
S1132490EA84FB848C159D05AE05BF0508F420E095
S11324A0822FDF91CF91FF90EF90DF90CF9008952E
S11324B008958091E80080FFFCCF089581E0809327
S11324C0D70080EA8093D80082E189BD09B400FE78
S11324D0FDCF80E98093D8001092E00010923C0375
S11324E0109239038CE08093E200789408958091EF
S11324F03C0308959FB7F89480913C03882339F0F6
S113250083E08093E9008091E80085FD03C09FBFCC
S11325108FEF08958091F1002091E80025FD03C01C
S11325202BE62093E8009FBF08959FB7F89480910D
S11325303C03882331F083E08093E9008091F2002A
S113254001C080E09FBF089590913C03992309F155
S11325509FB7F89424E02093E90020913A032223C2
S113256041F02091E80025FD02C09FBF12C01092E7
S11325703A032091E400275E34E04091E80045FDF1
S113258013C09FBF9091E400291305C081E080939C
S11325903A038FEF089590913C039923D1F39FB7A9
S11325A0F8943093E900E9CF8093F1008091E8003A
S11325B085FD03C08AE38093E80085E080933B03B4
S11325C09FBF80E008951F920F920FB60F921124BF
S11325D08F939F938091E1001092E10083FF11C0DB
S11325E01092E90091E09093EB001092EC0092E1DC
S11325F09093ED0098E09093F00010923C031092B9
S1132600390382FF13C080913C03882379F08091C1
S11326103B03882359F0815080933B03811106C00A
S113262084E08093E9008AE38093E8009F918F918E
S11326300F900FBE0F901F9018951F920F920FB618
S11326400F921124FF920F931F932F933F934F9355
S11326505F936F937F938F939F93AF93BF93CF9326
S1132660DF93EF93FF931092E9008091E80083FFDA
S113267017C1F090F1008091F1000091F100909168
S1132680F10010E0192BC091F1009091F100D0E01D
S1132690D92B2091F1006091F10092EF9093E80022
S11326A0863009F049C088EB90E042EE50E0FC012E
S11326B0A591B4910A171B07D9F4FC013296A59190
S11326C0B491CA17DB07A1F4FC01349645915491E7
S11326D0FC013696849130E0362B2F3F310519F0FA
S11326E010F02FEF30E0281708F4822F3EEF0CC0D3
S11326F0079648175907D9F6D3C0490F511D891BAE
S11327003093E8008823A9F09091E800292F2570E0
S1132710D9F392FDC8C0982F813108F090E1FA01F5
S1132720292F222351F364916093F10021503196B3
S1132730F8CF903149F3B7C0853049F48EEF8093D8
S1132740E8000E94591200680093E300ACC089308D
S113275059F5F110A5C000933C031092390310926F
S11327603B038EEF8093E80041E085E791E04093DE
S1132770E9009C012F5F3F4FFC0154915093EB0003
S1132780552359F0F90124912093EC009C012D5F0D
S11327903F4F3196E491E093ED004F5F453011F0E7
S11327A0C901E5CF8EE177C0883051F4F0E8FF121B
S11327B077C00E94591280913C038093F10049C074
S11327C0813281F481EAF8126BC00E945912E0E070
S11327D0F1E087E091E021912093F1008E179F07AB
S11327E0D1F737C08032A9F491E2F91259C080912F
S11327F0E80082FFFCCFE0E0F1E087E091E0209187
S1132800F10021938E179F07D1F78BEF8093E80097
S113281020C0823241F4E1E2FE1242C00093390347
S11328200E94591216C0811118C00E945912F2E870
S1132830FF120AC0C093E9008091EB0085FB882752
S113284080F91092E90001C080E08093F1001092B9
S1132850F1008EEF8093E80026C0982F9D7F913081
S1132860F9F492E0F9121CC0012BD1F4CF779FEF59
S11328709C0F9430A8F49EEF9093E800C093E90075
S1132880833071F089E18093EB0081E090E001C036
S1132890880FCA95EAF78093EA001092EA0003C011
S11328A081E28093EB00FF91EF91DF91CF91BF9193
S11328B0AF919F918F917F916F915F914F913F91D4
S11328C02F911F910F91FF900F900FBE0F901F90AB
S11328D018955058BB27AA270E9481140C94FB1505
S11328E00E94ED1538F00E94F41520F039F49F3F52
S11328F019F426F40C94EA150EF4E095E7FB0C9415
S1132900E415E92F0E940C1658F3BA1762077307EF
S11329108407950720F079F4A6F50C942E160EF48E
S1132920E0950B2EBA2FA02D0B01B90190010C01DB
S1132930CA01A0011124FF27591B99F0593F50F4F3
S1132940503E68F11A16F040A22F232F342F44274B
S1132950585FF3CF469537952795A795F040539543
S1132960C9F77EF41F16BA0B620B730B840BBAF013
S11329709150A1F0FF0FBB1F661F771F881FC2F77E
S11329800EC0BA0F621F731F841F48F48795779592
S11329906795B795F7959E3F08F0B0CF9395880F4C
S11329A008F09927EE0F9795879508950E94C01512
S11329B008F481E008950E94EF140C94FB150E9422
S11329C0F41558F00E94ED1540F029F45F3F29F00A
S11329D00C94E41551110C942F160C94EA150E94D2
S11329E00C1668F39923B1F3552391F3951B550BFA
S11329F0BB27AA2762177307840738F09F5F5F4FCE
S1132A00220F331F441FAA1FA9F335D00E2E3AF00C
S1132A10E0E832D091505040E695001CCAF72BD024
S1132A20FE2F29D0660F771F881FBB1F2617370775
S1132A304807AB07B0E809F0BB0B802DBF01FF27A7
S1132A4093585F4F3AF09E3F510578F00C94E4158B
S1132A500C942F165F3FE4F3983ED4F38695779554
S1132A606795B795F7959F5FC9F7880F911D969560
S1132A70879597F90895E1E0660F771F881FBB1FBC
S1132A80621773078407BA0720F0621B730B840B69
S1132A90BA0BEE1F88F7E09508950E9454156894C8
S1132AA0B1110C942F1608950E94141688F09F57A4
S1132AB098F0B92F9927B751B0F0E1F0660F771F5E
S1132AC0881F991F1AF0BA95C9F714C0B13091F054
S1132AD00E942E16B1E008950C942E16672F782FBD
S1132AE08827B85F39F0B93FCCF386957795679519
S1132AF0B395D9F73EF490958095709561957F4F85
S1132B008F4F9F4F0895E89409C097FB3EF490952A
S1132B108095709561957F4F8F4F9F4F9923A9F0B2
S1132B20F92F96E9BB279395F69587957795679541
S1132B30B795F111F8CFFAF4BB0F11F460FF1BC085
S1132B406F5F7F4F8F4F9F4F16C0882311F096E918
S1132B5011C0772321F09EE8872F762F05C06623C6
S1132B6071F096E8862F70E060E02AF09A95660F7F
S1132B70771F881FDAF7880F9695879597F9089538
S1132B80990F0008550FAA0BE0E8FEEF161617067A
S1132B90E807F907C0F012161306E407F50798F0E2
S1132BA0621B730B840B950B39F40A2661F0232BFB
S1132BB0242B252B21F408950A2609F4A140A69577
S1132BC08FEF811D811D089597F99F6780E870E05C
S1132BD060E008959FEF80EC089500240A9416168F
S1132BE0170618060906089500240A9412161306F7
S1132BF0140605060895092E0394000C11F4882385
S1132C0052F0BB0F40F4BF2B11F460FF04C06F5FA0
S1132C107F4F8F4F9F4F089557FD9058440F551F76
S1132C2059F05F3F71F04795880F97FB991F61F04A
S1132C309F3F79F087950895121613061406551FC1
S1132C40F2CF4695F1DF08C0161617061806991F2D
S1132C50F1CF86957105610508940895E894BB2722
S1132C6066277727CB0197F908950E9448160C949C
S1132C70FB150E94ED1538F00E94F41520F0952301
S1132C8011F00C94E4150C94EA1511240C942F16ED
S1132C900E940C1670F3959FC1F3950F50E0551FD9
S1132CA0629FF001729FBB27F00DB11D639FAA279D
S1132CB0F00DB11DAA1F649F6627B00DA11D661FEC
S1132CC0829F2227B00DA11D621F739FB00DA11D0D
S1132CD0621F839FA00D611D221F749F3327A00DC7
S1132CE0611D231F849F600D211D822F762F6A2F63
S1132CF011249F5750409AF0F1F088234AF0EE0FC8
S1132D00FF1FBB1F661F771F881F91505040A9F7F4
S1132D109E3F510580F00C94E4150C942F165F3FF0
S1132D20E4F3983ED4F3869577956795B795F79530
S1132D30E7959F5FC1F7FE2B880F911D96958795A8
S1132D4097F90895DB018F939F930E94B816BF9162
S1132D50AF91A29F800D911DA39F900DB29F900DE6
S1132D6011240895EE0FFF1F0590F491E02D0994AE
S1132D700E94C316A59F900DB49F900DA49F800D33
S1132D80911D11240895A29FB001B39FC001A39F78
S1132D90700D811D1124911DB29F700D811D112490
S1132DA0911D08954AE551E00E94E0160895FB0143
S1132DB0DC018D91019080190110D9F3990B0895CC
S1132DC0FA01A191B081009719F41097E1F0CD01B7
S1132DD0DC01CD010D90002011F4C00113C0FB01F2
S1132DE02191222319F02015D9F7F3CFFB0121916A
S1132DF0201519F41E92119606C02223C1F70D90D6
S1132E000020A1F7D001FA01A193B0830895AEE0A8
S1132E10B0E0EDE0F7E10C94461D0D891E8986E0D3
S1132E208C831A8309838FEF9FE79E838D83AE0182
S1132E30475E5F4F6F89788DCE0101960E944217DD
S1132E40EF81F885E00FF11F10822E96E4E00C94D8
S1132E50621DAEE0B0E0EFE2F7E10C94481D85E0BE
S1132E608C838B899C899A838983AE01495E5F4FE9
S1132E706D897E89CE0101960E94BF1A2E96E2E0EA
S1132E800C94641DABE0B0E0E8E4F7E10C94381D69
S1132E906C017B018A01FC0117821682838181FF08
S1132EA0CCC1CE0101963C01F6019381F70193FD5B
S1132EB0859193FF81917F01882309F4BAC18532FA
S1132EC039F493FD859193FF81917F01853229F433
S1132ED0B60190E00E94381CE7CF912C212C312CB4
S1132EE0FFE1F315D8F08B3279F038F4803279F0C1
S1132EF08332A1F4232D20611DC08D3261F0803313
S1132F0069F4232D216016C0832D8260382EE32DB1
S1132F10E4603E2E2AC0F32DF8601DC037FC2DC09E
S1132F2020ED280F2A3040F08E32B9F436FC81C1EE
S1132F30232D2064322E19C036FE06C08AE0989EE6
S1132F40200D1124922E11C0EAE02E9E200D112492
S1132F50222EF32DF0623F2E08C08C3621F4832DEF
S1132F608068382E02C0883641F4F70193FD8591BC
S1132F7093FF81917F018111B3CF982F9F7D955449
S1132F80933028F40C5F1F4F9FE399830DC0833661
S1132F9031F0833771F0833509F059C021C0F8014D
S1132FA0808189830E5F1F4F88248394912C530161
S1132FB013C02801F2E04F0E511CF801A080B1802B
S1132FC036FE03C0692D70E002C06FEF7FEFC501CC
S1132FD00E94EF1B4C018201F32DFF773F2E16C098
S1132FE0280122E0420E511CF801A080B18036FE77
S1132FF003C0692D70E002C06FEF7FEFC5010E942E
S1133000E41B4C01F32DF0683F2E820133FC1BC0FE
S1133010822D90E088169906B0F4B60180E290E023
S11330200E94381C2A94F4CFF50137FC859137FEB1
S113303081915F01B60190E00E94381C21102A940E
S113304021E0821A91088114910471F7E8C0843652
S113305011F0893641F5F80137FE07C060817181AE
S1133060828193810C5F1F4F08C060817181072E9C
S1133070000C880B990B0E5F1F4FF32DFF763F2E2C
S113308097FF09C090958095709561957F4F8F4FFC
S11330909F4FF0683F2E2AE030E0A3010E948D1C70
S11330A0882E861845C0853731F4232D2F7EB22E05
S11330B02AE030E025C0932D997FB92E8F36C1F0D8
S11330C018F4883579F0B5C0803719F0883721F0C5
S11330D0B0C0E92FE061BE2EB4FE0DC0FB2DF4603C
S11330E0BF2E09C034FE0AC0292F2660B22E06C0A6
S11330F028E030E005C020E130E002C020E132E009
S1133100F801B7FE07C060817181828193810C5FF1
S11331101F4F06C06081718180E090E00E5F1F4FF9
S1133120A3010E948D1C882E8618FB2DFF773F2E4D
S113313036FE0DC0232D2E7FA22E891458F434FEA2
S11331400BC032FC09C0832D8E7EA82E05C0B82C7E
S1133150A32C03C0B82C01C0B92CA4FE0FC0FE01DF
S1133160E80DF11D8081803321F49A2D997EA92EDA
S113317009C0A2FE06C0B394B39404C08A2D867815
S113318009F0B394A3FC11C0A0FE06C0B21488F4E5
S1133190280C922C9B180EC0B21460F4B60180E285
S11331A090E00E94381CB394F7CFB21418F42B1893
S11331B002C0982C212CA4FE10C0B60180E390E03C
S11331C00E94381CA2FE17C0A1FC03C088E790E04F
S11331D002C088E590E0B6010CC08A2D867859F0CB
S11331E0A1FE02C08BE201C080E2A7FC8DE2B60121
S11331F090E00E94381C891438F4B60180E390E012
S11332000E94381C9A94F7CF8A94F301E80DF11DBB
S11332108081B60190E00E94381C8110F5CF2220F5
S113322009F442CEB60180E290E00E94381C2A9450
S1133230F6CFF6018681978102C08FEF9FEF2B9620
S1133240E2E10C94541D20FD09C0FC0123FD05C0DE
S113325022FF02C07383628351834083089544FD37
S113326017C046FD17C0AB01BC01DA01FB01AA0F70
S1133270BB1FEE1FFF1F1094D1F74A0F5B1F6E1F79
S11332807F1FCB01BA01660F771F881F991F09C0E2
S113329033E001C034E0660F771F881F991F315057
S11332A0D1F7620F711D811D911D08950F931F9316
S11332B0CF93DF938C01C8010E94FA1BEC0197FDA8
S11332C008C00E94D01B892BB1F7B801CE010E941F
S11332D0741CCE01DF91CF911F910F9108958F92AD
S11332E09F92AF92BF92EF92FF920F931F93CF934F
S11332F0DF938C01D62F7A01B22E0E94FA1B9C0117
S113330033272B32310531F02D32310561F48B2D09
S11333108068B82ED15011F480E068C0C8010E94C2
S1133320FA1B97FDF9CFCB2DCD7F2B2D207309F5FB
S11333308033F9F4AA24AA94AD0E09F443C0C80159
S11333400E94FA1B97FD3EC09C012F7D3327283530
S1133350310549F4C264D250A9F1C8010E94FA1B94
S113336097FF07C02FC0B6FE02C0C26001C0C26191
S1133370DA2D812C912C540120ED280F283080F077
S1133380C4FF04C0B8010E94741C19C02A3040F064
S1133390C6FFF8CF2F7D3FEE320F363098F7275017
S11333A04C2FC501B4010E942F194B015C01C2606E
S11333B0D15059F0C8010E94FA1B97FFDDCFC1FD1F
S11333C004C0AACF812C912C5401C7FF08C0B0942B
S11333D0A09490948094811C911CA11CB11C2C2F4E
S11333E0B501A401C7010E94231981E0DF91CF91A7
S11333F01F910F91FF90EF90BF90AF909F908F908F
S11334000895A0E2B0E0E7E0FAE10C943B1D5C0112
S1133410962E7A01F9018E010F5F1F4F680180E239
S1133420D8011D928A95E9F7D50113968C9080E016
S113343090E0612C712C30E061E070E083FC259118
S113344083FE21918F01522E211103C080E090E070
S113345092C02E3511F4009751F1432F50E04817D4
S113346059073CF42D3559F12D3219F4772009F11F
S113347003C0772009F46AC0452D469546954695C4
S1133480D601A40FB11D452D47708B0102C0000F5A
S1133490111F4A95E2F7A8015C91452B4C936514E2
S11334A059F0561410F45394E7CF5A94E5CF31E011
S11334B004C07724739401C0712C0196BFCF772088
S11334C019F08E8180628E83311103C08824839425
S11334D017C0F6019E012F5D3F4F80818095819337
S11334E02E173F07D1F7F2CFE114F10429F0D701E9
S11334F08C93F70131967F019A94812C9920F9F0ED
S1133500C5010E94FA1B97FD18C0FC01FF2723E0A8
S1133510F595E7952A95E1F7EC0DFD1D208130E046
S1133520AC014770552702C0359527954A95E2F7B7
S113353020FDDACFB5010E94741C811087CFE114FD
S1133540F10411F0D7011C92C80115C0422F469511
S113355046954695D601A40FB11D422F47708B01A5
S113356002C0000F111F4A95E2F7A8015C91452B98
S11335704C93622EA2CFA096EFE00C94571DA0E0CE
S1133580B0E0E5ECFAE10C943B1D6C01EB015A014F
S1133590FC0117821682512CF601E380FE01E3FC44
S11335A08591E3FE8191182FEF01882309F4EEC081
S11335B090E00E94D01B892B21F0C6010E9456196D
S11335C0EBCF153241F4FE01E3FC1591E3FE1191BA
S11335D0EF01153281F4C6010E94FA1B97FDD4C095
S11335E0412F50E09C01332724173507A9F2B60177
S11335F00E94741CCBC01A3239F4E3FC1591E3FE2B
S11336001191EF0101E001C000E0F12C20ED210F48
S11336102A3080F402606F2D70E080E090E040E298
S11336200E942F19F62EFE01E3FC1591E3FE119181
S1133630EF01ECCF01FF03C0F11003C0A7C0FF24CA
S1133640FA94183619F01C3651F010C0FE01E3FC50
S11336501591E3FE1191EF01183641F408600460FE
S1133660FE01E3FC1591E3FE1191EF01112309F42E
S11336708DC0612F70E08CEA90E00E94D91B892BE9
S113368009F484C000FD07C0F50180809180C50164
S113369002965C0102C0812C912C1E3651F4F60175
S11336A04681578160E070E0202FC4010E942319F5
S11336B073CF1336A9F401FD02C0FF24F394C601AD
S11336C00E94FA1B97FD60C08114910429F0F40153
S11336D08083C40101964C01FA94F110F0CF50C0DC
S11336E01B3559F49E01A4016F2DC6010E94011AD5
S11336F0EC01892B09F044C03EC0C6010E94561952
S113370097FD42C01F3661F128F4143639F1193699
S113371051F128C0133771F0153701F123C081141A
S1133720910429F0F4016082C40101964C01FA94D9
S1133730FF2071F0C6010E94FA1B3C0197FD08C0EE
S11337400E94D01B892B59F3B601C3010E94741C3B
S113375081149104A9F0F401108212C0006203C024
S1133760006101C00064202FA4016F2DC6010E94D6
S11337706F19811105C0F6018381807329F406C095
S113378000FD0ACF539408CF552019F0852D90E001
S113379002C08FEF9FEFCDB7DEB7EFE00C94571D5B
S11337A091110C94EB1C803219F089508550C8F7A4
S11337B00895FC010590061621F00020D9F7C001F8
S11337C008953197CF010895FC0105906150704030
S11337D00110D8F7809590958E0F9F1F0895FC01D6
S11337E06150704001900110D8F7809590958E0F2C
S11337F09F1F0895CF93DF93EC012B8120FF33C0EB
S113380026FF0AC02F7B2B838E819F8101969F8385
S11338108E838A8190E029C022FF0FC0E881F9815C
S11338208081082E000C990B009719F420622B83D9
S11338301AC03196F983E8830EC0EA85FB850995A1
S113384097FF09C02B81019611F080E201C080E14D
S1133850822B8B8308C02E813F812F5F3F4F3F8394
S11338602E83992702C08FEF9FEFDF91CF910895A8
S11338700F931F93CF93DF93FB01238121FD03C09B
S11338808FEF9FEF2CC022FF16C046815781248101
S113389035814217530744F4A081B1819D012F5F04
S11338A03F4F318320838C93268137812F5F3F4F95
S11338B03783268314C08B01EC01FB010084F1855E
S11338C0E02D0995892BE1F6D80116968D919C91EE
S11338D01797019617969C938E931697CE01DF91B6
S11338E0CF911F910F910895FB01238120FF12C0F6
S11338F026FD10C08F3F3FEF930761F082832F7D39
S1133900206423832681378121503109378326831C
S1133910992708958FEF9FEF0895FA01AA27283079
S113392051F1203181F1E8946F936E7F6E5F7F4F88
S11339308F4F9F4FAF4FB1E03ED0B4E03CD0670F04
S1133940781F891F9A1FA11D680F791F8A1F911D57
S1133950A11D6A0F711D811D911DA11D20D009F4A7
S113396068943F912AE0269F11243019305D3193E9
S1133970DEF6CF010895462F4770405D4193B3E0D2
S11339800FD0C9F7F6CF462F4F70405D4A3318F079
S1133990495D31FD4052419302D0A9F7EACFB4E02A
S11339A0A6959795879577956795BA95C9F70097E2
S11339B06105710508959B01AC010A2E0694579583
S11339C0479537952795BA95C9F7620F731F841FDA
S11339D0951FA01D0895992788270895DC01CB0120
S11339E0FC01F999FECF06C0F2BDE1BDF89A31960B
S11339F000B40D9241505040B8F70895DC01A40F73
S1133A00B51F4150504048F0CB01840F951F2E91B3
S1133A100E940F1D41505040D0F70895262FF99968
S1133A20FECF92BD81BDF89A019700B4021639F019
S1133A301FBA20BD0FB6F894FA9AF99A0FBE0895EA
S1133A40DC01CB0103C02D910E942B1D415050403D
S1133A50D0F70895262FF999FECF1FBA92BD81BDE4
S1133A6020BD0FB6F894FA9AF99A0FBE01960895FC
S1133A702F923F924F925F926F927F928F929F927A
S1133A80AF92BF92CF92DF92EF92FF920F931F9368
S1133A90CF93DF93CDB7DEB7CA1BDB0B0FB6F89419
S1133AA0DEBF0FBECDBF09942A88398848885F8459
S1133AB06E847D848C849B84AA84B984C884DF80CA
S1133AC0EE80FD800C811B81AA81B981CE0FD11DAE
S1133AD00FB6F894DEBF0FBECDBFED01089510E020
S1133AE0C2ECD0E004C0FE010E94B2162196C33C91
S10B3AF0D107C9F7F894FFCFD8
S1133AF800E100000000083B00700025642C256CE0
S1133B086400256C642C256C642C256400733B25A7
S1133B18642C256C643B256C642C256C642C25640E
S1133B283B256C642C256C642C25643B256C642C27
S1133B38256C642C25643B0D006C3B25642C2564A2
S10D3B482C25642C25643B0D0000BD
S9030000FC
