:100000000C94C3000C94EB000C94EB000C94EB00EC
:100010000C94EB000C94EB000C94EB000C94EB00B4
:100020000C94EB000C94EB000C9498120C94D212EC
:100030000C94EB000C94EB000C94EB000C94EB0094
:100040000C94EB000C949D110C94EB000C94EB00C1
:100050000C94EB000C94EB000C94EB000C94EB0074
:100060000C94EB000C94EB000C94EB000C94EB0064
:100070000C94EB000C94EB000C94EB000C94EB0054
:100080000C94EB000C94EB000C94EB000C94EB0044
:100090000C94EB000C94EB000C94EB000C94EB0034
:1000A0000C94EB000C94EB000C94EB006364696E11
:1000B0006F70737578585B000001000063011200D7
:1000C000020000200143000300001C010401030999
:1000D00004F8002202030904EC000A03030904E205
:1000E0000008080334003100300000000A03530008
:1000F0004500540069000000220341006E006400C6
:10010000720065007700200045006C006D006500FE
:100110006E0064006F0072006600000004030904B2
:1001200009024300020100C032090400000102027A
:100130000100052400100105240101010424020628
:100140000524060001070582031000400904010090
:10015000020A0000000705030240000007058402B0
:100160004000001201000202000010C0167A0400D4
:1001700001010203010001C1120180360181360034
:1001800076038C039F0311241FBECFEFDAE0DEBF9E
:10019000CDBF11E0A0E0B1E0E2E6FAE302C00590D5
:1001A0000D92A435B107D9F723E0A4E5B1E001C071
:1001B0001D92A333B207E1F710E0C2ECD0E004C017
:1001C0002197FE010E946716C03CD107C9F70E9423
:1001D0007D030C94241D0C94000008950F931F932D
:1001E000FC0171836083DA018C9182830383148321
:1001F000258336831F910F910895CF92DF92EF925E
:10020000FF921F93CF93DF93EC01162FCB80DC80FE
:10021000ED80FE8020E030E0A901C701B6010E9418
:100220008B1418167CF0E881F981208181E090E040
:100230000A8002C0880F991F0A94E2F780958223F2
:1002400080836AC020E030E040E051E4C701B6019D
:100250000E94EA1520E030E040EA50E40E94901449
:100260009B01AC0160E070E084E092E40E941E1407
:100270000E940215112391F0E881F981208181E02B
:1002800090E00A8002C0880F991F0A94E2F78095D7
:10029000822380832AE12A95F1F700C080E090E074
:1002A000A1E0B0E08617970704F5E881F981408165
:1002B0009D010A8002C0220F331F0A94E2F7242B0B
:1002C00020832AE12A95F1F700C0E881F981308185
:1002D000AD010A8002C0440F551F0A94E2F7242F93
:1002E0002095232320830196DDCF8AE18A95F1F7BB
:1002F00000C0E881F981208181E090E00A8002C09D
:10030000880F991F0A94E2F7822B808387E092E09E
:100310000197F1F700C00000DF91CF911F91FF908E
:10032000EF90DF90CF900895CF92DF92EF92FF92FF
:100330001F93CF93DF93EC01142FFB01C080D1807A
:10034000E280F38020E030E0A901C701B6010E94FD
:100350008B1418167CF0E881F981208181E090E00F
:100360000A8002C0880F991F0A94E2F780958223C1
:1003700080836AC020E030E040E051E4C701B6016C
:100380000E94EA1520E030E040EA50E40E94901418
:100390009B01AC0160E070E084E092E40E941E14D6
:1003A0000E940215112391F0E881F981208181E0FA
:1003B00090E00A8002C0880F991F0A94E2F78095A6
:1003C00082238083FAE1FA95F1F700C080E090E0A3
:1003D000A1E0B0E08617970704F5E881F981408134
:1003E0009D010A8002C0220F331F0A94E2F7242BDA
:1003F00020832AE12A95F1F700C0E881F981308154
:10040000AD010A8002C0440F551F0A94E2F7242F61
:100410002095232320830196DDCF8AE18A95F1F789
:1004200000C0E881F981208181E090E00A8002C06B
:10043000880F991F0A94E2F7822B8083E7E0F2E0AD
:100440003197F1F700C00000DF91CF911F91FF902D
:10045000EF90DF90CF900895DC01ED91FC91119722
:10046000408121E030E0B90112960C9002C0660F85
:10047000771F0A94E2F7CB01809584238083089547
:1004800008950895089542E250E060E070E00C9411
:10049000A31C42E250E060E070E00C94B31CFC014D
:1004A000DB014D915D916D917C9113974083518358
:1004B0006283738314964D915D916D917C91179732
:1004C000448355836683778318964D915D916D9132
:1004D0007C911B9740875187628773871C968D910B
:1004E0009C911D97958784871E964D915D916D9186
:1004F0007C91519746875787608B718B52964D91AF
:100500005D916D917C915597428B538B648B758B6C
:1005100056968D919C915797978B868B58964D91B7
:100520005D916D917C915B97408F518F628F738F3E
:100530005C964D915D916D917C915F97448F558F45
:10054000668F778F90968D919C91919791A380A3C0
:100550000895FC01DB014D915D916D917C911397A4
:10056000408351836283738314964D915D916D91A5
:100570007C911797448355836683778318964D91B2
:100580005D916D917C911B9740875187628773873E
:100590001C968D919C911D97958784871E964D91F1
:1005A0005D916D917C91519746875787608B718BD8
:1005B00052964D915D916D917C915597428B538BE5
:1005C000648B758B56968D919C915797978B868BE4
:1005D00058964D915D916D917C915B97408F518FB5
:1005E000628F738F5C964D915D916D917C915F9759
:1005F000448F558F668F778F90968D919C919197B0
:1006000091A380A3CF010895FC0110821182128270
:100610001382089544E050E062E270E00C94A31C61
:10062000FC01108211821282138244E050E062E2E7
:1006300070E00C94D51C0F931F93CF93DF93EC01C4
:100640008B0144E050E062E270E0C8010E94A31C0C
:10065000F801808188838181898382818A83838173
:100660008B83CE01DF91CF911F910F910895FC01F3
:1006700020812F5F208341E050E062E270E00C9423
:10068000B31CFC016130710579F062307105B9F07D
:10069000672BF9F481818F5F818341E050E063E251
:1006A00070E0CF01019609C082818F5F828341E0B3
:1006B00050E064E270E0CF0102960C94B31C838199
:1006C0008F5F838341E050E065E270E0CF010396E5
:1006D000F4CF87E3808381838283838344E050E087
:1006E00062E270E0CF010C94D51C0895E2E2F0E0E4
:1006F0001082118212821382089588E991E00E948B
:10070000070588E991E00E94EC0788E991E00E94E2
:10071000030881E090E00895CF93DF9388E991E0AA
:100720000E943204C6E5D1E0CE010E942E112B9624
:1007300081E0C839D807C1F7DF91CF910895CF93F1
:10074000DF93C8E9D1E02B97CE010E94641181E0CC
:10075000C635D807C1F788E991E0DF91CF910C94B5
:10076000710485B1806785B92E98089585B1806739
:1007700085B92D98089585B1806785B92C9808951D
:100780000C94AB10805C9F4F0C94AB1080589F4F23
:100790000C94AB108F929F92AF92BF92CF92DF9248
:1007A000EF92FF921F93CF93DF93EC01FB01142F85
:1007B000423079F04330C1F04130D1F5C084D1846A
:1007C000E284F38484809580A680B78064857585F3
:1007D00015C0C288D388E488F58886849784A08869
:1007E000B188668977890AC0C48CD58CE68CF78C71
:1007F000808C918CA28CB38C60A171A1072E000C0F
:10080000880B990B0E943A1520E030E04AE754E447
:100810000E949014188389829A82AB82BC82CD8216
:10082000DE82EF82F88669877A878B879C870DC086
:10083000488319821A821B821C821D821E821F829B
:10084000188619861A861B861C86CE01DF91CF91E9
:100850001F91FF90EF90DF90CF90BF90AF909F904F
:100860008F900895EF92FF920F931F93CF93DF9392
:10087000EC010E94680FCE01805C9F4F0E94680FC0
:10088000CE0180589F4F0E94680F8E0100541F4F69
:100890007E018EEFE81AF80AC8010E942E11055F4A
:1008A0001F4F0E151F05C1F7C8010E944102CE015E
:1008B0008C5D9E4F0E940403CE01885D9E4F0E9476
:1008C000C211CE018A5A9E4F0E946511CE01865AEE
:1008D0009E4FDF91CF911F910F91FF90EF900C945D
:1008E0006511EF92FF920F931F93CF93DF938C01CB
:1008F000865A9E4F0E948111C8018A5A9E4F0E94BB
:100900008111C801885D9E4F0E940D12C8018C5D47
:100910009E4F0E94750378018EEFE81AF80AC7010E
:100920000E944202E801C054DF4F51F0EC16FD0670
:1009300039F08BE0E81AF108C7010E946411F6CF84
:100940000115110549F0C017D10731F0C054D10984
:10095000CE010E941B11F7CFDF91CF911F910F9114
:10096000FF90EF900895CF93DF93EC018CE0FB01B3
:10097000DE0101900D928A95E1F78CE0FB013C9637
:10098000DE011C9601900D928A95E1F78CE0FB0147
:100990007896DE01589601900D928A95E1F7FB0159
:1009A00084A18CA387E0B596DE01959601900D9207
:1009B0008A95E1F7FB0184A58CA785A58DA786A55F
:1009C0008EA787A590A9A1A9B2A98FA798ABA9AB1B
:1009D000BAAB83A994A9A5A9B6A98BAB9CABADABC7
:1009E000BEAB87A990ADA1ADB2AD8FAB98AFA9AFAB
:1009F000BAAF83AD8BAF84AD95ADA6ADB7AD8CAFBF
:100A00009DAFAEAFBFAFCE01DF91CF910895DF9222
:100A1000EF92FF920F931F93CF93DF93CDB7DEB783
:100A2000CE54D1090FB6F894DEBF0FBECDBF8C01F6
:100A300085B7806885BF85B7806885BFE1E6F0E04F
:100A400080E88083108284B1806784B985B1806733
:100A500085B98AB1806C8AB98BB1806C8BB93E9AAA
:100A6000469A8D9A85983F9A8AB183608AB985B1F2
:100A7000876085B920988BB18C628BB98AB1837DF0
:100A80008AB97894B8016A5A7E4FFB011082319678
:100A90001082C801865A9E4F0E946B117801FEEFAA
:100AA000EF1AFF0AC7010E944302C8018C5D9E4FE6
:100AB0000E940A03B701CE0101960E94A9027801A3
:100AC0008CECE81A8EEFF80A29813A814B815C811F
:100AD000F70120833183428353838D819E81AF81CF
:100AE000B88584839583A683B78389859A85AB85EA
:100AF000BC8580879187A287B3878D859E859587E2
:100B000084878F859889A989BA8986879787A08BDA
:100B1000B18B8B899C89AD89BE89828B938BA48B89
:100B2000B58B8F89988D978B868B898D9A8DAB8DA0
:100B3000BC8D808F918FA28FB38F8D8D9E8DAF8D49
:100B4000B8A1848F958FA68FB78F89A19AA191A301
:100B500080A360E87EEE86E390E00E94571625961B
:100B60006CAF7DAF8EAF9FAF2597BE016F5B7F4FA0
:100B7000CE0101960E94C811D801A85DBE4F8CE03D
:100B8000FE01319601900D928A95E1F7CE01019612
:100B90000E940D1287E02F968FAF2F9741E0B7018B
:100BA000CE018F5B9F4F0E94CA039E01225B3F4F85
:100BB00048E250E0BE016F5B7F4FCE0101960E947C
:100BC0009E0FBE016F5F7F4FC8010E94B304CE012C
:100BD00001960E941B11DD24D3942F96DFAE2F9730
:100BE00042E0B701CE018F5B9F4F0E94CA039E0176
:100BF000225B3F4F4BE250E0BE016F5B7F4FCE0167
:100C000001960E949E0FBE016F5F7F4FC801805CFE
:100C10009F4F0E94B304CE0101960E941B112F9694
:100C20001FAE2F9743E0B701CE018F5B9F4F0E940D
:100C3000CA039E01225B3F4F4BE250E0BE016F5B57
:100C40007F4FCE0101960E949E0FBE016F5F7F4FC6
:100C5000C80180589F4F0E94B304CE0101960E94A4
:100C60001B1122961FAE229720E0AE014F5B5F4F13
:100C700063E270E0CE0101960E942F11D801A054CA
:100C8000BF4F8BE0FE01319601900D928A95E1F7FE
:100C9000CE0101960E9464112296DFAE229720E0D9
:100CA000AE014F5B5F4F63E270E0CE0101960E94A0
:100CB0002F11D801A553BF4F8BE0FE013196019053
:100CC0000D928A95E1F7CE0101960E94641182E0AF
:100CD000F82E2296FFAE229720E0AE014F5B5F4FC9
:100CE00063E270E0CE0101960E942F11D801AA5252
:100CF000BF4F8BE0FE01319601900D928A95E1F78E
:100D0000CE0101960E94641185E022968FAF229752
:100D100020E0AE014F5B5F4F69E270E0CE010196CB
:100D20000E942F11D801AF51BF4F8BE0FE013196C9
:100D300001900D928A95E1F7CE0101960E9464110F
:100D400083E022968FAF229720E0AE014F5B5F4F8A
:100D500069E270E0CE0101960E942F11D801A451E2
:100D6000BF4F8BE0FE01319601900D928A95E1F71D
:100D7000CE0101960E9464112296FFAE229720E0D8
:100D8000AE014F5B5F4F69E270E0CE0101960E94B9
:100D90002F11D801A950BF4F8BE0FE013196019071
:100DA0000D928A95E1F7CE0101960E946411F80137
:100DB000E15AFE4F86E898E0918380833296118253
:100DC0001082329688E89CE091838083329611826B
:100DD0001082329680EC93E0918380833296118268
:100DE0001082329682EC93E0918380833296118256
:100DF0001082329686EC93E0918380833296118242
:100E00001082329681E999E0918380833296118233
:100E1000108232968CE49AE091838083329611821C
:100E2000108232968BEC9AE0918380833296118205
:100E30001082329681E59BE0918380833296118205
:100E4000108232968BED9BE09183808332961182E3
:100E50001082329681EB93E09183808332961182E7
:100E60001082329686EB93E09183808332961182D2
:100E7000108232968BEB93E09183808332961182BD
:100E800010820E9413120E948211C25BDF4F0FB6C4
:100E9000F894DEBF0FBECDBFDF91CF911F910F91B0
:100EA000FF90EF90DF9008950F931F93CF93DF9300
:100EB0008C0100541F4FC0E0D0E0C8010E943C11DB
:100EC000C8010E946111882329F0C8010E945E11A7
:100ED000CE010EC08FE99FE00197F1F700C000003E
:100EE0002196055F1F4FC330D10539F78FEF9FEF74
:100EF000DF91CF911F910F9108950F931F93CF937F
:100F0000DF938C010F511F4FC3E0D0E0C8010E9456
:100F10003C11C8010E946111882329F0C8010E9478
:100F20005E11CE010EC08FE99FE00197F1F700C07E
:100F300000002196055F1F4FC630D10539F78FEFAE
:100F40009FEFDF91CF911F910F910895643071054C
:100F500059F06530710569F063307105A9F4FC0141
:100F6000E45AFE4F22E009C0FC01E45AFE4F23E0A0
:100F700004C0FC01E45AFE4F24E020833197108224
:100F800032961082339710820895CF93DF936130A9
:100F9000710551F06230710599F0672BD1F4FC01B5
:100FA000E45AFE4F108205C0FC01E45AFE4F21E0D6
:100FB000208331971082329610823397108209C0B5
:100FC000EC010E947D07BC01CE01DF91CF910C9412
:100FD000A607DF91CF910895CF93DF93EC010E9494
:100FE0005407BC01CE010E94C507BE01665A7E4F60
:100FF000CE018A5A9E4F0E946B11C75ADE4F18824B
:10100000DF91CF910895EC017C0186EAE81A8EEF1A
:10101000F80A6E019AEAC91A9EEFD90A8E01085A97
:101020001E4FCE010E945407BC01CE010E94C5078D
:10103000B701C6010E947711F801882329F1808148
:10104000FE0194E0899FE00DF11D1124DF01AB58F2
:10105000BE4F2D913C91ED58FE4FC9019595879556
:1010600020FF0AC0DE01A80FB91F4D915C912081BD
:101070003181FA01E20FF31F0190F081E02D61E070
:101080008C0F9D1F0995CDCF8081FE0194E0899F33
:10109000E00DF11D1124DF01AF59BE4F2D913C91A0
:1010A000E15AFE4FC9019595879520FF0AC0DE01E0
:1010B000A80FB91F4D915C9120813181FA01E20F97
:1010C000F31F0190F081E02D8C0F9D1F0995A9CF92
:1010D0008BB1806C8BB9469A469808958BB1806C21
:1010E0008BB9469A5F9808958BB1806C8BB9469AFC
:1010F0005E98089585B1806785B98BB1806C8BB996
:10110000469A089585B1806785B908956F927F9258
:101110008F929F92AF92BF92CF92DF92EF92FF9207
:101120000F931F93CF93DF93EC015C0189EAA81A18
:101130008EEFB80AD5018C91882321F0833009F411
:10114000B1C0E0C08E010A5A1E4F7D9B24C0F80139
:1011500080818111D7C081E08083CE010E94740814
:10116000CE010E941411CE01805C9F4F0E94141189
:10117000CE0180589F4FDF91CF911F910F91FF902B
:10118000EF90DF90CF90BF90AF909F908F907F9027
:101190006F900C941411D8018C918823B9F0CE0172
:1011A0000E946808F801108200E010E07E01E00E65
:1011B000F11EC7010E940511882319F0C7010E9482
:1011C0001711005C1F4F003C110581F78E016E0165
:1011D000F9E7CF1AFEEFDF0A812C912CE12CF12CDC
:1011E0003E018CED681A8EEF780A2AC0D60112965D
:1011F0002D913C911397ED91FC91C901959587959F
:1012000020FF0AC0DE01A80FB91F2D913C91E20F0B
:10121000F31F0190F081E02D8C0F9D1F0995C801EF
:101220000E940211811112C0EFEFEE1AFE0A005C5B
:101230001F4FF4E0CF0ED11C83E0E816F104B1F0AB
:10124000C8010E94AB10882351F3D0CFBFEF8B1A97
:101250009B0AC8010E9411118111E6CFC8010E94AA
:101260000D11B701C3010E944103DECFA3E08A162E
:10127000910409F047C083E0F5018083CE010E940C
:101280006E08CE01DF91CF911F910F91FF90EF90EB
:10129000DF90CF90BF90AF909F908F907F906F9096
:1012A0000C9482088E01085D1E4FC8010E94E31154
:1012B000882341F1CE018C5D9E4F0E943703C80107
:1012C0000E94D311D5011C92CE010E946808CE0164
:1012D0000E94A010CE01805C9F4F0E94A010CE0102
:1012E00080589F4FDF91CF911F910F91FF90EF900A
:1012F000DF90CF90BF90AF909F908F907F906F9036
:101300000C94A010DF91CF911F910F91FF90EF905F
:10131000DF90CF90BF90AF909F908F907F906F9015
:1013200008950F931F93CF93DF93EC016623B1F1E0
:10133000613009F0ACC00E94F610CE01805C9F4F76
:101340000E94F610CE0180589F4F0E94F610CE01E9
:101350000E946E08CE010E948208FE01E45AFE4FF0
:101360008081FE0124E0829FE00DF11D1124DF0148
:10137000AB58BE4F2D913C91ED58FE4FC90195954C
:10138000879520FF79C0DE01A80FB91F4D915C91B0
:1013900020813181FA01E20FF31F6EC0BC01665A51
:1013A0007E4F8C010A5A1E4FC8010E946B1181E0CA
:1013B000FE01E75AFE4F8083F801108231961082B9
:1013C000CE01885D9E4F0E94D311CE018C5D9E4F51
:1013D0000E941003CE010E946808FFEF23EC89E011
:1013E000F15020408040E1F700C00000CE010E9493
:1013F0007A089FEFE3ECF9E09150E040F040E1F72C
:1014000000C00000CE010E946808CE010E94A0101A
:10141000CE01805C9F4F0E94A010CE0180589F4F4C
:101420000E94A010FE01E85AFE4F8081FE0124E0D8
:10143000829FE00DF11D1124DF01AF59BE4F2D91A8
:101440003C91E15AFE4FC9019595879520FF0AC04E
:10145000DE01A80FB91F4D915C9120813181FA0105
:10146000E20FF31F0190F081E02D8C0F9D1FDF91A3
:10147000CF911F910F9109940190F081E02D60E0D0
:101480008C0F9D1FDF91CF911F910F910994DF91D8
:10149000CF911F910F9108950F931F93CF93DF93D7
:1014A000EC01662321F0613009F440C06FC0BC013B
:1014B000665A7E4F8C010A5A1E4FC8010E946B115A
:1014C00081E0FE01E75AFE4F8083F80110820E94FE
:1014D0001312CE010E946E08FE01E85AFE4F808171
:1014E000FE0194E0899FE00DF11D1124DF01AF5949
:1014F000BE4F2D913C91E15AFE4FC90195958795BC
:1015000020FF0AC0DE01A80FB91F4D915C91208118
:101510003181FA01E20FF31F0190F081E02D8C0F71
:101520009D1FDF91CF911F910F9109940E947A081E
:10153000CE010E948208FE01E45AFE4F8081FE0126
:1015400094E0899FE00DF11D1124DF01AB58BE4FDF
:101550002D913C91ED58FE4FC9019595879520FF3F
:101560000AC0DE01A80FB91F4D915C912081318125
:10157000FA01E20FF31F0190F081E02D60E08C0F83
:101580009D1FDF91CF911F910F910994DF91CF9112
:101590001F910F9108950F931F93CF93DF93EC0149
:1015A000662321F0613009F444C076C0BC01665A5C
:1015B0007E4F8C010A5A1E4FC8010E946B1181E0B8
:1015C000FE01E75AFE4F8083F8011082CE010E948F
:1015D0006808CE010E94B103CE010E94DB10FE011B
:1015E000E85AFE4F8081FE0194E0899FE00DF11DD5
:1015F0001124DF01AF59BE4F2D913C91E15AFE4FAE
:10160000C9019595879520FF0AC0DE01A80FB91F73
:101610004D915C9120813181FA01E20FF31F01901D
:10162000F081E02D8C0F9D1FDF91CF911F910F91C5
:1016300009940E94F610CE010E946E08CE010E940D
:101640008208FE01E45AFE4F8081FE0194E0899FEA
:10165000E00DF11D1124DF01AB58BE4F2D913C91DF
:10166000ED58FE4FC9019595879520FF0AC0DE0110
:10167000A80FB91F4D915C9120813181FA01E20FD1
:10168000F31F0190F081E02D60E08C0F9D1FDF9132
:10169000CF911F910F910994DF91CF911F910F91DD
:1016A00008950F931F93CF93DF93EC01662321F0EE
:1016B000613009F446C07AC0BC01665A7E4F8C0185
:1016C0000A5A1E4FC8010E946B1181E0FE01E75AC1
:1016D000FE4F8083F8011082CE010E946808CE017F
:1016E0000E94B603CE01805C9F4F0E94DB10FE017A
:1016F000E85AFE4F8081FE0194E0899FE00DF11DC4
:101700001124DF01AF59BE4F2D913C91E15AFE4F9C
:10171000C9019595879520FF0AC0DE01A80FB91F62
:101720004D915C9120813181FA01E20FF31F01900C
:10173000F081E02D8C0F9D1FDF91CF911F910F91B4
:101740000994805C9F4F0E94F610CE010E946E08A3
:10175000CE010E948208FE01E45AFE4F8081FE0104
:1017600094E0899FE00DF11D1124DF01AB58BE4FBD
:101770002D913C91ED58FE4FC9019595879520FF1D
:101780000AC0DE01A80FB91F4D915C912081318103
:10179000FA01E20FF31F0190F081E02D60E08C0F61
:1017A0009D1FDF91CF911F910F910994DF91CF91F0
:1017B0001F910F9108950F931F93CF93DF93EC0127
:1017C000662321F0613009F446C07AC0BC01665A34
:1017D0007E4F8C010A5A1E4FC8010E946B1181E096
:1017E000FE01E75AFE4F8083F8011082CE010E946D
:1017F0006808CE010E94BB03CE0180589F4F0E9413
:10180000DB10FE01E85AFE4F8081FE0194E0899FC3
:10181000E00DF11D1124DF01AF59BE4F2D913C9118
:10182000E15AFE4FC9019595879520FF0AC0DE0158
:10183000A80FB91F4D915C9120813181FA01E20F0F
:10184000F31F0190F081E02D8C0F9D1FDF91CF9150
:101850001F910F91099480589F4F0E94F610CE015E
:101860000E946E08CE010E948208FE01E45AFE4FDB
:101870008081FE0194E0899FE00DF11D1124DF01BC
:10188000AB58BE4F2D913C91ED58FE4FC901959537
:10189000879520FF0AC0DE01A80FB91F4D915C910A
:1018A00020813181FA01E20FF31F0190F081E02DD8
:1018B00060E08C0F9D1FDF91CF911F910F910994D4
:1018C000DF91CF911F910F910895EF92FF920F93A7
:1018D0001F93CF93DF938B01FB0101900020E9F769
:1018E0003197EF01C61BD70B7B01C701801B910B02
:1018F0008C179D0734F4F70181917F010E945912E2
:10190000F4CFDF91CF911F910F91FF90EF90089549
:101910002F923F924F925F926F927F928F929F92FF
:10192000AF92BF92CF92DF92EF92FF920F931F93ED
:10193000CF93DF93CDB7DEB7C754D1090FB6F89474
:10194000DEBF0FBECDBF4C012DB73EB728963FAFCF
:101950002EAF28978C0105531F4F0E942C12811126
:1019600009C0C8010E943C11C8010E946111811187
:10197000F4CF8BC2C4010E94BB03C40185539F4FA7
:1019800022969FAF8EAF2297F401EC5AFE4FF8AB30
:10199000EFA79401205B3E4F38A72FA38F579F4F8F
:1019A0009AA789A73A97FAABE9AB2A5031093CA725
:1019B0002BA70A979EA78DA722968EAD9FAD229743
:1019C0000E943C1122968EAD9FAD22970E9461111C
:1019D000882309F45AC20E944A12882369F3EDB79A
:1019E000FEB72496FFAFEEAF2497082F10E02DB777
:1019F0003EB7201B310B0FB6F8943EBF0FBE2DBF74
:101A00008DB79EB701966C015C01E12CF12C0E9410
:101A10002F128D3051F00E151F0554F0F5018193F2
:101A20005F01FFEFEF1AFF0AF2CFEF2809F423C29C
:101A3000F6018081803709F4EBC0823769F18C367A
:101A400009F019C2EDB6FEB6B4016C5D7E4FCE0151
:101A500083960E941B038EA11F928F938DA11F92CC
:101A60008F938CA11F928F938BA11F928F9383E4EE
:101A700091E09F938F938E010F5F1F4F1F930F93E2
:101A80000E94BC16B801C4010E94650C0FB6F89400
:101A9000FEBE0FBEEDBEEFC12DB73EB726963FAFDF
:101AA0002EAF2697B4016E5F7E4FCE0101960E9445
:101AB000A90239813BAB8A818DAB9B819EABEC81C6
:101AC000EFABF401EC5CFE4F3083818392831FA95E
:101AD00013832D8128AF3E8139AF8F818AAF9885DE
:101AE0009BAF248335838683978319851CAF2A8512
:101AF0002DAF2B843C8410872187228633868D85E9
:101B00009E85848795872F85388949895A892687B4
:101B10003787408B518B6B897C89AD89BE89628BFD
:101B2000738BA48BB58BFF88E88CF68AE78AD98CF7
:101B3000CA8CBB8CAC8CD08EC18EB28EA38E1D8D08
:101B40001EAF1E8D1FAF7F8C68A01EAD148F1FAD02
:101B5000158F768E678E59A04AA050A241A2EDB78C
:101B6000FEB7E257F1090FB6F894FEBF0FBEEDBF06
:101B70000DB71EB70F5F1F4F4F925F926F927F920C
:101B8000FFADFF93EEADEF93AF92BF92CF92DF9296
:101B9000EF92FF92BF93AF937F936F935F934F93B7
:101BA0003F932F939F938F933F922F92FDADFF937F
:101BB0002CAD2F933BAD3F938AAD8F9399AD9F93FF
:101BC000E8ADEF93FFA9FF932EA92F933DA93F9373
:101BD0008BA98F938CE191E09F938F931F930F9329
:101BE0000E94BC16EDB7FEB7B6960FB6F894FEBFCE
:101BF0000FBEEDBFB801C4010E94650C26962EAD44
:101C00003FAD26970FB6F8943EBF0FBE2DBF33C130
:101C10008DB79EB79CAB8BAB67E071E0C6010E94AD
:101C200087168C01E12CF12C8FE0C82E81E0D82E94
:101C3000140190EC291A9EEF390A2401E4EC4E1AA3
:101C4000EEEF5E0A3401F8EC6F1AFEEF7F0A5401E2
:101C50002CECA21A2EEFB20A0115110509F47EC070
:101C600069E071E0C8010E948C16892B09F46EC0EE
:101C7000E114F10489F4BF92AF928BE091E09F935D
:101C80008F931F930F930E94DE160F900F900F906B
:101C90000F900F900F9057C0F1E0EF16F104B1F4E0
:101CA0003F922F925F924F927F926F92DF92CF92EC
:101CB0001F930F930E94DE162DB73EB7265F3F4F4E
:101CC0000FB6F8943EBF0FBE2DBF3DC032E0E31605
:101CD000F104D9F48AA98F9399A99F93ECA5EF9366
:101CE000FBA5FF932EA52F933DA53F93DF92CF92A7
:101CF0001F930F930E94DE168DB79EB70A960FB6FC
:101D0000F8949EBF0FBE8DBF1EC093E0E916F1048C
:101D1000D1F4E8A9EF93FFA5FF9328A52F933FA146
:101D20003F938AA58F9399A59F93DF92CF921F939C
:101D30000F930E94DE16EDB7FEB73A960FB6F894F1
:101D4000FEBF0FBEEDBFFFEFEF1AFF0A67E071E0C5
:101D500080E090E00E9487168C017ECF84010C5CAD
:101D60001E4FB80174012EEFE21AF20AC7010E9459
:101D70004F02C7010E9449028DB79EB78257910951
:101D80000FB6F8949EBF0FBE8DBFEDB7FEB731966C
:101D90007F01EFA5F8A981818F9380818F93EFA1B7
:101DA000F8A583818F9382818F9381818F93808126
:101DB0008F93E9A5FAA583818F9382818F93818187
:101DC0008F9380818F93E9A9FAA981818F93808174
:101DD0008F93EBA5FCA583818F9382818F93818163
:101DE0008F9380818F93EDA5FEA583818F93828150
:101DF0008F9381818F9380818F93F401E05CFE4FFC
:101E000081818F9380818F93349783818F93828197
:101E10008F9381818F9380818F93349783818F9368
:101E200082818F9381818F9380818F93F801838149
:101E30008F9382818F9381818F9380818F938AE1A9
:101E400091E09F938F93FF92EF920E94BC162DB763
:101E50003EB72A5D3F4F0FB6F8943EBF0FBE2DBF71
:101E6000B701C4010E94650C8BA99CA90FB6F89418
:101E70009EBF0FBE8DBF2496EEADFFAD24970FB66B
:101E8000F894FEBF0FBEEDBF97CD28962EAD3FADA7
:101E900028970FB6F8943EBF0FBE2DBFC95BDF4F2A
:101EA0000FB6F894DEBF0FBECDBFDF91CF911F916B
:101EB0000F91FF90EF90DF90CF90BF90AF909F90E9
:101EC0008F907F906F905F904F903F902F900895EC
:101ED000CF93DF93EC010E94C211CE010C960E94B9
:101EE000C211CE0148960E94C211CE0185960E9471
:101EF000ED0081E08EA781E090E0A0E0B0E08FA748
:101F000098ABA9ABBAAB8BAB9CABADABBEAB80E037
:101F100090E0A0E8BFE38FAB98AFA9AFBAAF82E083
:101F20008DA71BAE1CA280E090E0A0E0B0E48CAFD7
:101F30009DAFAEAFBFAFDF91CF9108954F925F924B
:101F40006F927F928F929F92AF92BF92CF92DF92C9
:101F5000EF92FF920F931F93CF93DF93CDB7DEB72E
:101F600060970FB6F894DEBF0FBECDBF7C018B012A
:101F70003A0149010E94C21157018CE0A80EB11C20
:101F8000C5010E94C2116701E8E1CE0ED11CC60155
:101F90000E94C2112701F5E24F0E511CC2010E949E
:101FA000ED0081E0F70186A781E090E0A0E0B0E0DD
:101FB00087A790ABA1ABB2AB83AB94ABA5ABB6ABF1
:101FC00080E090E0A0E8BFE387AB90AFA1AFB2AFF5
:101FD000F8018081F70186A7F80181819281A381B0
:101FE000B481F70187A790ABA1ABB2ABF8018581B3
:101FF0009681A781B085F70183AB94ABA5ABB6AB57
:10200000F80181859285A385B485F70187AB90AFF0
:10201000A1AFB2AFF8012181328143815481A0E6A2
:10202000BAEE0E946D166D877E878F87988BBE01F2
:10203000635F7F4FCE0101960E94C8118CE0FE01C4
:102040003196D70101900D928A95E1F7CE01019664
:102050000E940D12F8012581368147815085A0E646
:10206000BAEE0E946D166D877E878F87988BBE01B2
:10207000635F7F4FCE0101960E94C8118CE0FE0184
:102080003196D50101900D928A95E1F7CE01019626
:102090000E940D1288E893E1A0E0B0E08D879E8752
:1020A000AF87B88BBE01635F7F4FCE0101960E9460
:1020B000C8118CE0FE013196D60101900D928A95EF
:1020C000E1F7CE0101960E940D12F70107A910ADAC
:1020D00021AD32ADA401B301CE0101960E94EE0004
:1020E00087E0FE013196D20101900D928A95E1F7C9
:1020F000CE0101960E94400282E0F70185A713AE4F
:1021000014A280E090E0A0E0B0E484AF95AFA6AF69
:10211000B7AF60960FB6F894DEBF0FBECDBFDF91AC
:10212000CF911F910F91FF90EF90DF90CF90BF90D4
:10213000AF909F908F907F906F905F904F90089599
:10214000CF93DF93EC011DA60E94D3111CA21BAEFE
:10215000DF91CF9108951F93CF93DF93EC011DA5DD
:102160001130C1F038F0133009F560E085960E9417
:10217000FD001CC00E94E3118823C1F0CE010C9623
:102180000E94D31160E0CE0185960E94FD0081E09F
:102190008DA70DC00C960E94E311882339F0CE0163
:1021A00085960E942C0282E08DA71BAF80E0DF9114
:1021B000CF911F910895CF93DF93EC0183E08DA71A
:1021C00080E090E0A0E0B0E48CAF9DAFAEAFBFAFD9
:1021D000CE0148960E94D311BE01645C7F4F40E05F
:1021E000CE018596DF91CF910C949401CF93DF932C
:1021F000EC0185960E942C0281E08BAF8CA3DF91CD
:10220000CF910895FC0183AD089521E0FC0185A5DF
:10221000813009F020E0822F089521E0FC0124A301
:102220000895FC0184A1089585960C942C0260E029
:1022300085960C94FD00CF93DF93EC0185960E9468
:102240004002CE0148960E940D12CE010C960E94CB
:102250000D12CE01DF91CF910C940D120895FC0167
:102260001082728761871282DA018C9184831182D5
:102270001382168220870895FC01A185B2852C91D6
:1022800081E090E0048002C0880F991F0A94E2F771
:1022900030E082239323208530E08217930761F496
:1022A00081818F5F8183843040F081E080838681EB
:1022B0008F5F86831182089510820895FC01118238
:1022C0000895FC01808108950895FC011382108215
:1022D00084E081830895FB012081DC012C9321811E
:1022E00011962C931197228112962C93089521E038
:1022F000FC019281FB018281981301C020E0822FB2
:10230000089508951092800089E08093810082E012
:1023100080936F0080E89EE390938900809388000B
:1023200008952FB7F89460912B0370912C0380913E
:102330002D0390912E032FBF08951F920F920FB679
:102340000F9211248F939F93AF93BF9380912B0390
:1023500090912C03A0912D03B0912E030196A11D05
:10236000B11D80932B0390932C03A0932D03B09366
:102370002E03BF91AF919F918F910F900FBE0F9041
:102380001F901895FC0110861186128613860895F9
:10239000FB014081518162817381FC01408751873B
:1023A000628773870895CF93DF93EC010E949111A8
:1023B0006C837D838E839F83688379838A839B83E9
:1023C000DF91CF910895CF92DF92EF92FF92CF935A
:1023D000DF93EC010E9491116C837D838E839F8338
:1023E000C880D980EA80FB80DC01CB018C199D0973
:1023F000AE09BF0921E0C884D984EA84FB848C1526
:102400009D05AE05BF0508F420E0822FDF91CF9136
:10241000FF90EF90DF90CF90089508958091E800AD
:1024200080FFFCCF089581E08093D70080EA8093FD
:10243000D80082E189BD09B400FEFDCF80E9809318
:10244000D8001092E0001092320310922F038CE01B
:102450008093E200789408958091320308959FB7A5
:10246000F89480913203882339F083E08093E90067
:102470008091E80085FD03C09FBF8FEF0895809194
:10248000F1002091E80025FD03C02BE62093E80031
:102490009FBF08959FB7F89480913203882331F04D
:1024A00083E08093E9008091F20001C080E09FBF4B
:1024B000089590913203992309F19FB7F89424E08D
:1024C0002093E90020913003222341F02091E8007D
:1024D00025FD02C09FBF12C0109230032091E4007E
:1024E000275E34E04091E80045FD13C09FBF909106
:1024F000E400291305C081E0809330038FEF089535
:10250000909132039923D1F39FB7F8943093E90067
:10251000E9CF8093F1008091E80085FD03C08AE354
:102520008093E80085E0809331039FBF80E00895A9
:102530001F920F920FB60F9211248F939F93809149
:10254000E1001092E10083FF11C01092E90091E0D8
:102550009093EB001092EC0092E19093ED0098E0E4
:102560009093F0001092320310922F0382FF13C059
:1025700080913203882379F080913103882359F0C8
:10258000815080933103811106C084E08093E9007B
:102590008AE38093E8009F918F910F900FBE0F9078
:1025A0001F9018951F920F920FB60F921124FF9251
:1025B0000F931F932F933F934F935F936F937F934B
:1025C0008F939F93AF93BF93CF93DF93EF93FF933B
:1025D0001092E9008091E80083FF17C1F090F100AC
:1025E0008091F1000091F1009091F10010E0192B21
:1025F000C091F1009091F100D0E0D92B2091F10031
:102600006091F10092EF9093E800863009F049C0A4
:1026100088EB90E042EE50E0FC01A591B4910A17DE
:102620001B07D9F4FC013296A591B491CA17DB07B8
:10263000A1F4FC01349645915491FC0136968491A5
:1026400030E0362B2F3F310519F010F02FEF30E03E
:10265000281708F4822F3EEF0CC007964817590739
:10266000D9F6D3C0490F511D891B3093E800882348
:10267000A9F09091E800292F2570D9F392FDC8C0E8
:10268000982F813108F090E1FA01292F222351F38C
:1026900064916093F10021503196F8CF903149F365
:1026A000B7C0853049F48EEF8093E8000E940E1287
:1026B00000680093E300ACC0893059F5F110A5C063
:1026C0000093320310922F03109231038EEF809308
:1026D000E80041E085E791E04093E9009C012F5F2D
:1026E0003F4FFC0154915093EB00552359F0F901F1
:1026F00024912093EC009C012D5F3F4F3196E49193
:10270000E093ED004F5F453011F0C901E5CF8EE158
:1027100077C0883051F4F0E8FF1277C00E940E12A3
:10272000809132038093F10049C0813281F481EAC3
:10273000F8126BC00E940E12E0E0F1E087E091E039
:1027400021912093F1008E179F07D1F737C0803277
:10275000A9F491E2F91259C08091E80082FFFCCF00
:10276000E0E0F1E087E091E02091F10021938E1705
:102770009F07D1F78BEF8093E80020C0823241F4AD
:10278000E1E2FE1242C000932F030E940E1216C017
:10279000811118C00E940E12F2E8FF120AC0C09305
:1027A000E9008091EB0085FB882780F91092E90011
:1027B00001C080E08093F1001092F1008EEF8093D1
:1027C000E80026C0982F9D7F9130F9F492E0F9122D
:1027D0001CC0012BD1F4CF779FEF9C0F9430A8F44D
:1027E0009EEF9093E800C093E900833071F089E197
:1027F0008093EB0081E090E001C0880FCA95EAF772
:102800008093EA001092EA0003C081E28093EB001B
:10281000FF91EF91DF91CF91BF91AF919F918F91F8
:102820007F916F915F914F913F912F911F910F91E8
:10283000FF900F900FBE0F901F9018955058BB2718
:10284000AA270E9436140C94B0150E94A21538F0E5
:102850000E94A91520F039F49F3F19F426F40C9436
:102860009F150EF4E095E7FB0C949915E92F0E9453
:10287000C11558F3BA17620773078407950720F04C
:1028800079F4A6F50C94E3150EF4E0950B2EBA2F0F
:10289000A02D0B01B90190010C01CA01A001112466
:1028A000FF27591B99F0593F50F4503E68F11A1612
:1028B000F040A22F232F342F4427585FF3CF4695A3
:1028C00037952795A795F0405395C9F77EF41F16C5
:1028D000BA0B620B730B840BBAF09150A1F0FF0F8F
:1028E000BB1F661F771F881FC2F70EC0BA0F621F7B
:1028F000731F841F48F4879577956795B795F7956B
:102900009E3F08F0B0CF9395880F08F09927EE0FFF
:102910009795879508950E94751508F481E00895AC
:102920000E94A4140C94B0150E94A91558F00E949E
:10293000A21540F029F45F3F29F00C94991551112C
:102940000C94E4150C949F150E94C11568F399230B
:10295000B1F3552391F3951B550BBB27AA2762179B
:102960007307840738F09F5F5F4F220F331F441FA8
:10297000AA1FA9F335D00E2E3AF0E0E832D09150DC
:102980005040E695001CCAF72BD0FE2F29D0660FC9
:10299000771F881FBB1F261737074807AB07B0E80C
:1029A00009F0BB0B802DBF01FF2793585F4F3AF012
:1029B0009E3F510578F00C9499150C94E4155F3FF7
:1029C000E4F3983ED4F3869577956795B795F79598
:1029D0009F5FC9F7880F911D9695879597F9089580
:1029E000E1E0660F771F881FBB1F6217730784071C
:1029F000BA0720F0621B730B840BBA0BEE1F88F72B
:102A0000E09508950E9409156894B1110C94E4159D
:102A100008950E94C91588F09F5798F0B92F9927FB
:102A2000B751B0F0E1F0660F771F881F991F1AF0B9
:102A3000BA95C9F714C0B13091F00E94E315B1E026
:102A400008950C94E315672F782F8827B85F39F025
:102A5000B93FCCF3869577956795B395D9F73EF452
:102A600090958095709561957F4F8F4F9F4F0895FA
:102A7000E89409C097FB3EF4909580957095619518
:102A80007F4F8F4F9F4F9923A9F0F92F96E9BB27CE
:102A90009395F695879577956795B795F111F8CF4A
:102AA000FAF4BB0F11F460FF1BC06F5F7F4F8F4FB5
:102AB0009F4F16C0882311F096E911C0772321F0AB
:102AC0009EE8872F762F05C0662371F096E8862F43
:102AD00070E060E02AF09A95660F771F881FDAF79A
:102AE000880F9695879597F90895990F0008550FC7
:102AF000AA0BE0E8FEEF16161706E807F907C0F084
:102B000012161306E407F50798F0621B730B840B8B
:102B1000950B39F40A2661F0232B242B252B21F465
:102B200008950A2609F4A140A6958FEF811D811D05
:102B3000089597F99F6780E870E060E008959FEF3F
:102B400080EC089500240A94161617061806090644
:102B5000089500240A941216130614060506089513
:102B6000092E0394000C11F4882352F0BB0F40F49B
:102B7000BF2B11F460FF04C06F5F7F4F8F4F9F4FDB
:102B8000089557FD9058440F551F59F05F3F71F05D
:102B90004795880F97FB991F61F09F3F79F08795C4
:102BA0000895121613061406551FF2CF4695F1DF4D
:102BB00008C0161617061806991FF1CF86957105DD
:102BC000610508940895E894BB2766277727CB0111
:102BD00097F908950E94FD150C94B0150E94A21556
:102BE00038F00E94A91520F0952311F00C94991546
:102BF0000C949F1511240C94E4150E94C11570F3D8
:102C0000959FC1F3950F50E0551F629FF001729F91
:102C1000BB27F00DB11D639FAA27F00DB11DAA1FA0
:102C2000649F6627B00DA11D661F829F2227B00DED
:102C3000A11D621F739FB00DA11D621F839FA00D78
:102C4000611D221F749F3327A00D611D231F849FC8
:102C5000600D211D822F762F6A2F11249F5750401F
:102C60009AF0F1F088234AF0EE0FFF1FBB1F661F9A
:102C7000771F881F91505040A9F79E3F510580F063
:102C80000C9499150C94E4155F3FE4F3983ED4F34B
:102C9000869577956795B795F795E7959F5FC1F707
:102CA000FE2B880F911D9695879597F90895DB0166
:102CB0008F939F930E946D16BF91AF91A29F800D3D
:102CC000911DA39F900DB29F900D11240895EE0FBA
:102CD000FF1F0590F491E02D09940E947816A59F9E
:102CE000900DB49F900DA49F800D911D1124089507
:102CF000A29FB001B39FC001A39F700D811D11243D
:102D0000911DB29F700D811D1124911D089544E500
:102D100051E00E9495160895FB01DC018D91019010
:102D200080190110D9F3990B0895FA01A191B0818E
:102D3000009719F41097E1F0CD01DC01CD010D9061
:102D4000002011F4C00113C0FB012191222319F0CE
:102D50002015D9F7F3CFFB012191201519F41E920C
:102D6000119606C02223C1F70D900020A1F7D001D3
:102D7000FA01A193B0830895AEE0B0E0E2ECF6E191
:102D80000C94FB1C0D891E8986E08C831A830983B1
:102D90008FEF9FE79E838D83AE01475E5F4F6F8904
:102DA000788DCE0101960E94F716EF81F885E00F2D
:102DB000F11F10822E96E4E00C94171DAEE0B0E0F7
:102DC000E4EEF6E10C94FD1C85E08C838B899C89F4
:102DD0009A838983AE01495E5F4F6D897E89CE01FA
:102DE00001960E94741A2E96E2E00C94191DABE035
:102DF000B0E0EDEFF6E10C94ED1C6C017B018A0173
:102E0000FC0117821682838181FFCCC1CE0101961D
:102E10003C01F6019381F70193FD859193FF819128
:102E20007F01882309F4BAC1853239F493FD859175
:102E300093FF81917F01853229F4B60190E00E94D1
:102E4000ED1BE7CF912C212C312CFFE1F315D8F0AD
:102E50008B3279F038F4803279F08332A1F4232D6B
:102E600020611DC08D3261F0803369F4232D216013
:102E700016C0832D8260382EE32DE4603E2E2AC0DA
:102E8000F32DF8601DC037FC2DC020ED280F2A302F
:102E900040F08E32B9F436FC81C1232D2064322EED
:102EA00019C036FE06C08AE0989E200D1124922E8D
:102EB00011C0EAE02E9E200D1124222EF32DF06287
:102EC0003F2E08C08C3621F4832D8068382E02C036
:102ED000883641F4F70193FD859193FF81917F013D
:102EE0008111B3CF982F9F7D9554933028F40C5FB8
:102EF0001F4F9FE399830DC0833631F0833771F004
:102F0000833509F059C021C0F801808189830E5FA3
:102F10001F4F88248394912C530113C02801F2E0A1
:102F20004F0E511CF801A080B18036FE03C0692D00
:102F300070E002C06FEF7FEFC5010E94A41B4C013F
:102F40008201F32DFF773F2E16C0280122E0420EAA
:102F5000511CF801A080B18036FE03C0692D70E0DD
:102F600002C06FEF7FEFC5010E94991B4C01F32D4A
:102F7000F0683F2E820133FC1BC0822D90E0881642
:102F80009906B0F4B60180E290E00E94ED1B2A940D
:102F9000F4CFF50137FC859137FE81915F01B601D1
:102FA00090E00E94ED1B21102A9421E0821A9108E2
:102FB0008114910471F7E8C0843611F0893641F527
:102FC000F80137FE07C060817181828193810C5FB7
:102FD0001F4F08C060817181072E000C880B990B70
:102FE0000E5F1F4FF32DFF763F2E97FF09C0909580
:102FF0008095709561957F4F8F4F9F4FF0683F2E62
:103000002AE030E0A3010E94421C882E861845C0A9
:10301000853731F4232D2F7EB22E2AE030E025C0F3
:10302000932D997FB92E8F36C1F018F4883579F039
:10303000B5C0803719F0883721F0B0C0E92FE061C2
:10304000BE2EB4FE0DC0FB2DF460BF2E09C034FEB1
:103050000AC0292F2660B22E06C028E030E005C045
:1030600020E130E002C020E132E0F801B7FE07C005
:1030700060817181828193810C5F1F4F06C06081E6
:10308000718180E090E00E5F1F4FA3010E94421CFF
:10309000882E8618FB2DFF773F2E36FE0DC0232D80
:1030A0002E7FA22E891458F434FE0BC032FC09C0C6
:1030B000832D8E7EA82E05C0B82CA32C03C0B82C5F
:1030C00001C0B92CA4FE0FC0FE01E80DF11D8081E6
:1030D000803321F49A2D997EA92E09C0A2FE06C044
:1030E000B394B39404C08A2D867809F0B394A3FCFA
:1030F00011C0A0FE06C0B21488F4280C922C9B18B4
:103100000EC0B21460F4B60180E290E00E94ED1BA4
:10311000B394F7CFB21418F42B1802C0982C212CBA
:10312000A4FE10C0B60180E390E00E94ED1BA2FE59
:1031300017C0A1FC03C088E790E002C088E590E0DA
:10314000B6010CC08A2D867859F0A1FE02C08BE230
:1031500001C080E2A7FC8DE2B60190E00E94ED1B69
:10316000891438F4B60180E390E00E94ED1B9A9434
:10317000F7CF8A94F301E80DF11D8081B60190E04C
:103180000E94ED1B8110F5CF222009F442CEB6013A
:1031900080E290E00E94ED1B2A94F6CFF601868132
:1031A000978102C08FEF9FEF2B96E2E10C94091DEF
:1031B00020FD09C0FC0123FD05C022FF02C073836E
:1031C000628351834083089544FD17C046FD17C0B4
:1031D000AB01BC01DA01FB01AA0FBB1FEE1FFF1FF1
:1031E0001094D1F74A0F5B1F6E1F7F1FCB01BA01EE
:1031F000660F771F881F991F09C033E001C034E0B4
:10320000660F771F881F991F3150D1F7620F711D0C
:10321000811D911D08950F931F93CF93DF938C0110
:10322000C8010E94AF1BEC0197FD08C00E94851BDE
:10323000892BB1F7B801CE010E94291CCE01DF9184
:10324000CF911F910F9108958F929F92AF92BF924D
:10325000EF92FF920F931F93CF93DF938C01D62FA2
:103260007A01B22E0E94AF1B9C0133272B3231050D
:1032700031F02D32310561F48B2D8068B82ED1509C
:1032800011F480E068C0C8010E94AF1B97FDF9CF20
:10329000CB2DCD7F2B2D207309F58033F9F4AA2493
:1032A000AA94AD0E09F443C0C8010E94AF1B97FD5C
:1032B0003EC09C012F7D33272835310549F4C26477
:1032C000D250A9F1C8010E94AF1B97FF07C02FC0C1
:1032D000B6FE02C0C26001C0C261DA2D812C912C01
:1032E000540120ED280F283080F0C4FF04C0B8013D
:1032F0000E94291C19C02A3040F0C6FFF8CF2F7D4C
:103300003FEE320F363098F727504C2FC501B401ED
:103310000E94E4184B015C01C260D15059F0C80111
:103320000E94AF1B97FFDDCFC1FD04C0AACF812C47
:10333000912C5401C7FF08C0B094A094909480943D
:10334000811C911CA11CB11C2C2FB501A401C7012B
:103350000E94D81881E0DF91CF911F910F91FF90CB
:10336000EF90BF90AF909F908F900895A0E2B0E053
:10337000ECEBF9E10C94F01C5C01962E7A01F9015A
:103380008E010F5F1F4F680180E2D8011D928A9560
:10339000E9F7D50113968C9080E090E0612C712CB8
:1033A00030E061E070E083FC259183FE21918F0184
:1033B000522E211103C080E090E092C02E3511F40E
:1033C000009751F1432F50E0481759073CF42D3531
:1033D00059F12D3219F4772009F103C0772009F44F
:1033E0006AC0452D469546954695D601A40FB11D58
:1033F000452D47708B0102C0000F111F4A95E2F75F
:10340000A8015C91452B4C93651459F0561410F4A7
:103410005394E7CF5A94E5CF31E004C077247394F6
:1034200001C0712C0196BFCF772019F08E81806288
:103430008E83311103C08824839417C0F6019E0146
:103440002F5D3F4F8081809581932E173F07D1F7E5
:10345000F2CFE114F10429F0D7018C93F7013196F2
:103460007F019A94812C9920F9F0C5010E94AF1B2D
:1034700097FD18C0FC01FF2723E0F595E7952A95F5
:10348000E1F7EC0DFD1D208130E0AC0147705527C0
:1034900002C0359527954A95E2F720FDDACFB501B0
:1034A0000E94291C811087CFE114F10411F0D7018B
:1034B0001C92C80115C0422F469546954695D601E7
:1034C000A40FB11D422F47708B0102C0000F111FC6
:1034D0004A95E2F7A8015C91452B4C93622EA2CF4E
:1034E000A096EFE00C940C1DA0E0B0E0EAE7FAE152
:1034F0000C94F01C6C01EB015A01FC01178216823E
:10350000512CF601E380FE01E3FC8591E3FE8191FD
:10351000182FEF01882309F4EEC090E00E94851B6C
:10352000892B21F0C6010E940B19EBCF153241F413
:10353000FE01E3FC1591E3FE1191EF01153281F4D8
:10354000C6010E94AF1B97FDD4C0412F50E09C01E3
:10355000332724173507A9F2B6010E94291CCBC0D6
:103560001A3239F4E3FC1591E3FE1191EF0101E009
:1035700001C000E0F12C20ED210F2A3080F4026020
:103580006F2D70E080E090E040E20E94E418F62E9B
:10359000FE01E3FC1591E3FE1191EF01ECCF01FF79
:1035A00003C0F11003C0A7C0FF24FA94183619F025
:1035B0001C3651F010C0FE01E3FC1591E3FE1191A1
:1035C000EF01183641F408600460FE01E3FC159138
:1035D000E3FE1191EF01112309F48DC0612F70E01A
:1035E0008CEA90E00E948E1B892B09F484C000FDB8
:1035F00007C0F50180809180C50102965C0102C080
:10360000812C912C1E3651F4F6014681578160E0E1
:1036100070E0202FC4010E94D81873CF1336A9F48C
:1036200001FD02C0FF24F394C6010E94AF1B97FD69
:1036300060C08114910429F0F4018083C4010196D3
:103640004C01FA94F110F0CF50C01B3559F49E0193
:10365000A4016F2DC6010E94B619EC01892B09F057
:1036600044C03EC0C6010E940B1997FD42C01F36E0
:1036700061F128F4143639F1193651F128C01337A5
:1036800071F0153701F123C08114910429F0F40180
:103690006082C40101964C01FA94FF2071F0C601CA
:1036A0000E94AF1B3C0197FD08C00E94851B892B1F
:1036B00059F3B601C3010E94291C81149104A9F099
:1036C000F401108212C0006203C0006101C00064F6
:1036D000202FA4016F2DC6010E942419811105C05D
:1036E000F6018381807329F406C000FD0ACF53944C
:1036F00008CF552019F0852D90E002C08FEF9FEF85
:10370000CDB7DEB7EFE00C940C1D91110C94A01C0A
:10371000803219F089508550C8F70895FC01059052
:10372000061621F00020D9F7C00108953197CF0186
:103730000895FC010590615070400110D8F7809504
:1037400090958E0F9F1F0895FC016150704001906D
:103750000110D8F7809590958E0F9F1F0895CF93F5
:10376000DF93EC012B8120FF33C026FF0AC02F7BA3
:103770002B838E819F8101969F838E838A8190E027
:1037800029C022FF0FC0E881F9818081082E000C3A
:10379000990B009719F420622B831AC03196F98394
:1037A000E8830EC0EA85FB85099597FF09C02B8148
:1037B000019611F080E201C080E1822B8B8308C06A
:1037C0002E813F812F5F3F4F3F832E83992702C079
:1037D0008FEF9FEFDF91CF9108950F931F93CF93BA
:1037E000DF93FB01238121FD03C08FEF9FEF2CC0EE
:1037F00022FF16C046815781248135814217530725
:1038000044F4A081B1819D012F5F3F4F318320831C
:103810008C93268137812F5F3F4F3783268314C0D7
:103820008B01EC01FB010084F185E02D0995892BCA
:10383000E1F6D80116968D919C91179701961796EF
:103840009C938E931697CE01DF91CF911F910F918C
:103850000895FB01238120FF12C026FD10C08F3F79
:103860003FEF930761F082832F7D206423832681BD
:1038700037812150310937832683992708958FEFA7
:103880009FEF0895FA01AA27283051F1203181F1E4
:10389000E8946F936E7F6E5F7F4F8F4F9F4FAF4F58
:1038A000B1E03ED0B4E03CD0670F781F891F9A1F6B
:1038B000A11D680F791F8A1F911DA11D6A0F711D1F
:1038C000811D911DA11D20D009F468943F912AE02B
:1038D000269F11243019305D3193DEF6CF01089513
:1038E000462F4770405D4193B3E00FD0C9F7F6CF44
:1038F000462F4F70405D4A3318F0495D31FD40520C
:10390000419302D0A9F7EACFB4E0A69597958795A1
:1039100077956795BA95C9F7009761057105089580
:103920009B01AC010A2E069457954795379527952C
:10393000BA95C9F7620F731F841F951FA01D0895C4
:10394000992788270895DC01CB01FC01F999FECF66
:1039500006C0F2BDE1BDF89A319600B40D92415017
:103960005040B8F70895DC01A40FB51F41505040F6
:1039700048F0CB01840F951F2E910E94C41C41502A
:103980005040D0F70895262FF999FECF92BD81BD02
:10399000F89A019700B4021639F01FBA20BD0FB68D
:1039A000F894FA9AF99A0FBE0895DC01CB0103C08E
:1039B0002D910E94E01C41505040D0F70895262FD1
:1039C000F999FECF1FBA92BD81BD20BD0FB6F89404
:1039D000FA9AF99A0FBE019608952F923F924F924C
:1039E0005F926F927F928F929F92AF92BF92CF928F
:1039F000DF92EF92FF920F931F93CF93DF93CDB798
:103A0000DEB7CA1BDB0B0FB6F894DEBF0FBECDBF0F
:103A100009942A88398848885F846E847D848C84E0
:103A20009B84AA84B984C884DF80EE80FD800C81E9
:103A30001B81AA81B981CE0FD11D0FB6F894DEBFCC
:103A40000FBECDBFED01089510E0C2ECD0E004C080
:103A5000FE010E9467162196C33CD107C9F7F8946E
:023A6000FFCF96
:103A620000E100000000083B007000256C640025A6
:103A72006C642C256C642C256400733B256C643BC0
:103A8200256C642C256C642C25643B256C642C25E8
:103A92006C642C25643B256C642C256C642C256499
:103AA2003B0D006C3B25642C25642C25642C25647D
:043AB2003B0D0000C8
:00000001FF
