S01C000054426F617264436F6E74726F6C6C6572526576322E7372656349
S11300000C94C3000C94EB000C94EB000C94EB00E8
S11300100C94EB000C94EB000C94EB000C94EB00B0
S11300200C94EB000C94EB000C948C130C94C613FE
S11300300C94EB000C94EB000C94EB000C94EB0090
S11300400C94EB000C9491120C94EB000C94EB00C8
S11300500C94EB000C94EB000C94EB000C94EB0070
S11300600C94EB000C94EB000C94EB000C94EB0060
S11300700C94EB000C94EB000C94EB000C94EB0050
S11300800C94EB000C94EB000C94EB000C94EB0040
S11300900C94EB000C94EB000C94EB000C94EB0030
S11300A00C94EB000C94EB000C94EB006364696E0D
S11300B06F70737578585B000001000063011200D3
S11300C0020000200143000300001C010401030995
S11300D004F8002202030904EC000A03030904E201
S11300E00008080334003100300000000A03530004
S11300F04500540069000000220341006E006400C2
S1130100720065007700200045006C006D006500FA
S11301106E0064006F0072006600000004030904AE
S113012009024300020100C0320904000001020276
S11301300100052400100105240101010424020624
S1130140052406000107058203100040090401008C
S1130150020A0000000705030240000007058402AC
S11301604000001201000202000010C0167A0400D0
S113017001010203010001C1120180360181360030
S11301806B03DC03EF0311241FBECFEFDAE0DEBF05
S1130190CDBF11E0A0E0B1E0E6EFFBE302C00590C3
S11301A00D92A435B107D9F723E0A4E5B1E001C06D
S11301B01D92AD32B207E1F710E0C2ECD0E004C00A
S11301C02197FE010E944B17C03CD107C9F70E943A
S11301D0CD030C94EE1D0C94000008950F931F930F
S11301E0FC0171836083DA018C918283038314831D
S11301F0258336831F910F910895CF92DF92EF925A
S1130200FF921F93CF93DF93EC01162FCB80DC80FA
S1130210ED80FE8020E030E0A901C701B6010E9414
S11302207F1518167CF0E881F981208181E090E047
S11302300A8002C0880F991F0A94E2F780958223EE
S113024080836AC020E030E040E051E4C701B60199
S11302500E94DE1620E030E040EA50E40E9484155B
S11302609B01AC0160E070E084E092E40E9412150E
S11302700E94F615112391F0E881F981208181E033
S113028090E00A8002C0880F991F0A94E2F78095D3
S1130290822380832AE12A95F1F700C080E090E070
S11302A0A1E0B0E08617970704F5E881F981408161
S11302B09D010A8002C0220F331F0A94E2F7242B07
S11302C020832AE12A95F1F700C0E881F981308181
S11302D0AD010A8002C0440F551F0A94E2F7242F8F
S11302E02095232320830196DDCF8AE18A95F1F7B7
S11302F000C0E881F981208181E090E00A8002C099
S1130300880F991F0A94E2F7822B808387E092E09A
S11303100197F1F700C00000DF91CF911F91FF908A
S1130320EF90DF90CF900895CF92DF92EF92FF92FB
S11303301F93CF93DF93EC01142FFB01C080D18076
S1130340E280F38020E030E0A901C701B6010E94F9
S11303507F1518167CF0E881F981208181E090E016
S11303600A8002C0880F991F0A94E2F780958223BD
S113037080836AC020E030E040E051E4C701B60168
S11303800E94DE1620E030E040EA50E40E9484152A
S11303909B01AC0160E070E084E092E40E941215DD
S11303A00E94F615112391F0E881F981208181E002
S11303B090E00A8002C0880F991F0A94E2F78095A2
S11303C082238083FAE1FA95F1F700C080E090E09F
S11303D0A1E0B0E08617970704F5E881F981408130
S11303E09D010A8002C0220F331F0A94E2F7242BD6
S11303F020832AE12A95F1F700C0E881F981308150
S1130400AD010A8002C0440F551F0A94E2F7242F5D
S11304102095232320830196DDCF8AE18A95F1F785
S113042000C0E881F981208181E090E00A8002C067
S1130430880F991F0A94E2F7822B8083E7E0F2E0A9
S11304403197F1F700C00000DF91CF911F91FF9029
S1130450EF90DF90CF900895DC01ED91FC9111971E
S1130460408121E030E0B90112960C9002C0660F81
S1130470771F0A94E2F7CB01809584238083089543
S113048008950895089542E250E060E070E00C940D
S11304906D1D42E250E060E070E00C947D1DFC01B3
S11304A0DB014D915D916D917C9113974083518354
S11304B06283738314964D915D916D917C9117972E
S11304C0448355836683778318964D915D916D912E
S11304D07C911B9740875187628773871C968D9107
S11304E09C911D97958784871E964D915D916D9182
S11304F07C91519746875787608B718B52964D91AB
S11305005D916D917C915597428B538B648B758B68
S113051056968D919C915797978B868B58964D91B3
S11305205D916D917C915B97408F518F628F738F3A
S11305305C964D915D916D917C915F97448F558F41
S1130540668F778F90968D919C91919791A380A3BC
S11305500895FC01DB014D915D916D917C911397A0
S1130560408351836283738314964D915D916D91A1
S11305707C911797448355836683778318964D91AE
S11305805D916D917C911B9740875187628773873A
S11305901C968D919C911D97958784871E964D91ED
S11305A05D916D917C91519746875787608B718BD4
S11305B052964D915D916D917C915597428B538BE1
S11305C0648B758B56968D919C915797978B868BE0
S11305D058964D915D916D917C915B97408F518FB1
S11305E0628F738F5C964D915D916D917C915F9755
S11305F0448F558F668F778F90968D919C919197AC
S113060091A380A3CF010895FC011082118212826C
S11306101382089544E050E062E270E00C946D1D92
S1130620FC01108211821282138244E050E062E2E3
S113063070E00C949F1D0F931F93CF93DF93EC01F5
S11306408B0144E050E062E270E0C8010E946D1D3D
S1130650F801808188838181898382818A8383816F
S11306608B83CE01DF91CF911F910F910895FC01EF
S113067020812F5F208341E050E062E270E00C941F
S11306807D1DFC016130710579F062307105B1F0B6
S1130690672BF9F481818F5F818341E050E063E24D
S11306A070E0CF01019613C082818F5F828341E0A5
S11306B050E064E270E0CF01029609C083818F5F4D
S11306C0838341E050E065E270E0CF0103960C942F
S11306D07D1D08950895E2E2F0E0108211821282F5
S11306E013820895DC01FB018081823001F18330A3
S11306F0C9F1813009F050C0418152816381748114
S113070014964D935D936D937C9317974581568111
S11307106781708518964D935D936D937C931B97B9
S1130720818592851D969C938E931C970895418193
S11307305281638174811E964D935D936D937C9376
S11307405197458156816781708552964D935D938B
S11307506D937C9355978185928557969C938E9340
S113076056970895418152816381748158964D93BF
S11307705D936D937C935B9745815681678170850A
S11307805C964D935D936D937C935F978185928581
S113079091969C938E939097089588E991E00E9496
S11307A0470588E991E00E94A90888E991E00E9440
S11307B0C00881E090E00895CF93DF9388E991E049
S11307C00E947804C6E5D1E0CE010E9422122B9645
S11307D081E0C839D807C1F7DF91CF910895CF934D
S11307E0DF93C8E9D1E02B97CE010E94581281E033
S11307F0C635D807C1F788E991E0DF91CF910C9411
S1130800B60485B1806785B92E98089585B180674F
S113081085B92D98089585B1806785B92C98089578
S11308200C944311CE960C94431184589F4F0C940E
S11308304311CF92DF92EF92FF920F931F93FC012B
S1130840DB014230A9F0433021F14130F1F5189633
S11308500D911D912D913C911B971496CD90DD9097
S1130860ED90FC9017971C968D919C911D9721C03B
S113087052960D911D912D913C9155971E96CD90B8
S1130880DD90ED90FC90519756968D919C915797E1
S113089010C05C960D911D912D913C915F975896D7
S11308A0CD90DD90ED90FC905B9790968D919C910E
S11308B091974083C182D282E382F48205831683B6
S11308C027833087928781870BC0408311821282ED
S11308D0138214821582168217821086128611865C
S11308E0CF011F910F91FF90EF90DF90CF9008956B
S11308F0EF92FF920F931F93CF93DF93EC010E942B
S11309002210CE01CE960E942210CE0184589F4F11
S11309100E9422108E0106541F4F7E018CEFE80EB8
S1130920F11CC8010E942212055F1F4F0E151F05FE
S1130930C1F7C8010E944102CE01825E9E4F0E940F
S11309400403CE018E5D9E4F0E94B612CE01805BE1
S11309509E4F0E945912CE018C5A9E4FDF91CF9127
S11309601F910F91FF90EF900C945912EF92FF9208
S11309700F931F93CF93DF938C018C5A9E4F0E9449
S11309807512C801805B9E4F0E947512C8018E5D6E
S11309909E4F0E940113C801825E9E4F0E946A030B
S11309A078018CEFE80EF11CC7010E944202E801B5
S11309B0C654DF4F51F0EC16FD0639F08BE0E81A0F
S11309C0F108C7010E945812F6CF0115110541F034
S11309D0C017D10729F0EE97CE010E940F12F8CF6D
S11309E0DF91CF911F910F91FF90EF900895CF93D6
S11309F0DF93EC018CE0FB01DE0101900D928A95FE
S1130A00E1F78CE0FB013C96DE011C9601900D920F
S1130A108A95E1F78CE0FB017896DE015896019007
S1130A200D928A95E1F7FB0184A18CA387E0B5962A
S1130A30DE01959601900D928A95E1F7FB0184A55C
S1130A408CA785A58DA786A58EA787A590A9A1A902
S1130A50B2A98FA798ABA9ABBAAB83A994A9A5A94E
S1130A60B6A98BAB9CABADABBEAB87A990AD98AF31
S1130A708FAB81AD89AF82AD93ADA4ADB5AD8AAF77
S1130A809BAFACAFBDAFCE01DF91CF910895BF92C4
S1130A90CF92DF92EF92FF920F931F93CF93DF9346
S1130AA0CDB7DEB7CD58D1090FB6F894DEBF0FBE6F
S1130AB0CDBF8C0185B7806885BF85B7806885BF49
S1130AC0E1E6F0E080E88083108284B1806784B935
S1130AD085B1806785B98AB1806C8AB98BB1806C25
S1130AE08BB93E9A469A8D9A85983F9A8AB18360CB
S1130AF08AB985B1876085B920988BB18C628BB92E
S1130B008AB1837D8AB97894B801605B7E4FFB011A
S1130B10108231961082C8018C5A9E4F0E945F1237
S1130B20C80184509F4F0E944302C801825E9E4FB9
S1130B300E940A0380E69AEEA0E0B0E023968CAF10
S1130B409DAFAEAFBFAF2397CC24C394CE57DF4F36
S1130B50C882C258D04080E197E2A0E0B0E0CD570F
S1130B60DF4F88839983AA83BB83C358D04025E091
S1130B7030E0C557DF4F39832883CB58D04080E21B
S1130B809EE4A0E0B0E0C957DF4F88839983AA832D
S1130B90BB83C758D04042E0D42EE896DFAEE89736
S1130BA0EC968CAF9DAFAEAFBFAFEC974AE050E090
S1130BB0C058DF4F59834883C058D040C458DF4FD2
S1130BC088839983AA83BB83CC57D04053E0B52E46
S1130BD0AD96BFAEAD9740E355E760E070E0E196B7
S1130BE04CAF5DAF6EAF7FAFE197E7963FAF2EAFEF
S1130BF0E797E5968CAF9DAFAEAFBFAFE597BE016B
S1130C006E577F4FCE01CF960E947203BE01695882
S1130C107F4FCE01CF960E947203BE0164597F4F6D
S1130C20CE01CF960E9472037801F2EDEF1AFEEF27
S1130C30FF0A23968CAD9DADAEADBFAD2397F701F2
S1130C4080839183A283B38327968CAD9DADAEAD93
S1130C50BFAD279784839583A683B7832B968CADEA
S1130C609DADAEADBFAD2B9780879187A287B3872B
S1130C702D968EAD9FAD2D979587848761968CAD0B
S1130C809DADAEADBFAD619786879787A08BB18BC5
S1130C9065968CAD9DADAEADBFAD6597828B938BE4
S1130CA0A48BB58B67968EAD9FAD6797978B868B1C
S1130CB06B968CAD9DADAEADBFAD6B97808F918FB4
S1130CC0A28FB38F6F968CAD9DADAEADBFAD6F9758
S1130CD0848F958FA68FB78FA1968EAD9FADA19768
S1130CE091A380A3B701CE0101960E94BC12D80142
S1130CF0AE5DBE4F8CE0FE01319601900D928A9557
S1130D00E1F7CE0101960E94011387E0C357DF4F3C
S1130D108883CD58D04041E0B701CE018F599F4F11
S1130D200E9419049E0123573F4F48E250E0BE0140
S1130D306F597F4FCE0101960E945410BE016F5F20
S1130D407F4FC8010E94F704CE0101960E940F1242
S1130D50C357DF4FC882CD58D04042E0B701CE011F
S1130D608F599F4F0E9419049E0123573F4F4BE216
S1130D7050E0BE016F597F4FCE0101960E9454107E
S1130D80BE016F5F7F4FC801CE960E94F704CE016B
S1130D9001960E940F12C357DF4F1882CD58D040DE
S1130DA043E0B701CE018F599F4F0E9419049E0161
S1130DB023573F4F4BE250E0BE016F597F4FCE01A6
S1130DC001960E945410BE016F5F7F4FC801845882
S1130DD09F4F0E94F704CE0101960E940F12A29623
S1130DE01FAEA29720E0AE014F595F4F63E270E05F
S1130DF0CE0101960E942312D801A654BF4F8BE066
S1130E00FE01319601900D928A95E1F7CE0101968B
S1130E100E945812A296CFAEA29720E0AE014F597D
S1130E205F4F63E270E0CE0101960E942312D80165
S1130E30AB53BF4F8BE0FE01319601900D928A9522
S1130E40E1F7CE0101960E945812A296DFAEA29756
S1130E5020E0AE014F595F4F63E270E0CE0101968E
S1130E600E942312D801A053BF4F8BE0FE0131969C
S1130E7001900D928A95E1F7CE0101960E945812D5
S1130E8085E0A2968FAFA29720E0AE014F595F4F45
S1130E9069E270E0CE0101960E942312D801A552A6
S1130EA0BF4F8BE0FE01319601900D928A95E1F7D8
S1130EB0CE0101960E945812A296BFAEA29720E0DE
S1130EC0AE014F595F4F69E270E0CE0101960E9476
S1130ED02312D801AA51BF4F8BE0FE013196019035
S1130EE00D928A95E1F7CE0101960E945812A296BE
S1130EF0DFAEA29720E0AE014F595F4F69E270E088
S1130F00CE0101960E942312D801AF50BF4F8BE04F
S1130F10FE01319601900D928A95E1F7CE0101967A
S1130F200E945812F801E75AFE4F81EE99E091832E
S1130F308083329611821082329684E29DE09183FE
S1130F408083329611821082329680E194E09183FC
S1130F508083329611821082329682E194E09183EA
S1130F608083329611821082329685E194E09183D7
S1130F708083329611821082329681E399E09183C4
S1130F80808332961182108232968AEE9AE091839F
S1130F908083329611821082329689E69BE0918397
S1130FA0808332961182108232968FEE9BE0918379
S1130FB08083329611821082329687E79CE0918377
S1130FC08083329611821082329681E094E091837C
S1130FD08083329611821082329686E094E0918367
S1130FE0808332961182108232968BE094E0918352
S1130FF080833296118210820E9407130E94761217
S1131000C357DF4F0FB6F894DEBF0FBECDBFDF91DD
S1131010CF911F910F91FF90EF90DF90CF90BF90F1
S113102008950F931F93CF93DF938C0106541F4FA2
S1131030C0E0D0E0C8010E943012C8010E945512DD
S1131040882329F0C8010E945212CE010EC08FE9F4
S11310509FE00197F1F700C000002196055F1F4F44
S1131060C330D10539F78FEF9FEFDF91CF911F91F7
S11310700F9108950F931F93CF93DF938C01055223
S11310801F4FC3E0D0E0C8010E943012C8010E9483
S11310905512882329F0C8010E945212CE010EC0B5
S11310A08FE99FE00197F1F700C000002196055FEA
S11310B01F4FC630D10539F78FEF9FEFDF91CF91E6
S11310C01F910F9108956430710559F065307105D1
S11310D069F063307105A9F4FC01EA5AFE4F22E07D
S11310E009C0FC01EA5AFE4F23E004C0FC01EA5A9D
S11310F0FE4F24E02083319710823296108233977A
S113110010820895CF93DF936130710551F06230FE
S1131110710599F0672BD1F4FC01EA5AFE4F108255
S113112005C0FC01EA5AFE4F21E02083319710826A
S1131130329610823397108209C0EC010E943A085B
S1131140BC01CE01DF91CF910C946308DF91CF9164
S11311500895CF93DF93EC010E941108BC01CE01E6
S11311600E948208BE016C5A7E4FCE01805B9E4F66
S11311700E945F12CD5ADE4F1882DF91CF910895FD
S1131180EC017C018CEAE81A8EEFF80A6E0190EB10
S1131190C91A9EEFD90A8E010E5A1E4FCE010E9423
S11311A01108BC01CE010E948208B701C6010E9449
S11311B06B12F801882329F18081FE0194E0899F54
S11311C0E00DF11D1124DF01A159BE4F2D913C9179
S11311D0E359FE4FC9019595879520FF0AC0DE01AA
S11311E0A80FB91F4D915C9120813181FA01E20F62
S11311F0F31F0190F081E02D61E08C0F9D1F099594
S1131200CDCF8081FE0194E0899FE00DF11D112472
S1131210DF01A55ABE4F2D913C91E75AFE4FC901FB
S11312209595879520FF0AC0DE01A80FB91F4D913F
S11312305C9120813181FA01E20FF31F0190F0816A
S1131240E02D8C0F9D1F0995A9CF8BB1806C8BB9B4
S1131250469A469808958BB1806C8BB9469A5F98EC
S113126008950F931F93CF93DF93EC01662391F1BD
S1131270613009F08FC00E94EA11CE01CE960E941F
S1131280EA11CE0184589F4F0E94EA11CE010E94B8
S11312902B09FE01EA5AFE4F8081FE0194E0899FEA
S11312A0E00DF11D1124DF01A159BE4F2D913C9198
S11312B0E359FE4FC9019595879520FF60C0DE0173
S11312C0A80FB91F4D915C9120813181FA01E20F81
S11312D0F31F55C0BC016C5A7E4F8C01005B1E4F3E
S11312E0C8010E945F1281E0FE01ED5AFE4F808327
S11312F0F801108231961082CE018E5D9E4F0E94BD
S1131300C712CE01825E9E4F0E941003CE010E943E
S11313102509CE010E943811CE01CE960E943811C3
S1131320CE0184589F4F0E943811FE01EE5AFE4FA1
S11313308081FE0194E0899FE00DF11D1124DF01FD
S1131340A55ABE4F2D913C91E75AFE4FC901959580
S1131350879520FF0AC0DE01A80FB91F4D915C914B
S113136020813181FA01E20FF31F0190F081E02D19
S11313708C0F9D1FDF91CF911F910F9109940190C4
S1131380F081E02D60E08C0F9D1FDF91CF911F91C4
S11313900F910994DF91CF911F910F9108958BB113
S11313A0806C8BB9469A5E98089585B1806785B93B
S11313B08BB1806C8BB9469A089585B1806785B9E5
S11313C008956F927F928F929F92AF92BF92CF9225
S11313D0DF92EF92FF920F931F93CF93DF93EC0171
S11313E05C018FEAA81A8EEFB80AD5018C91882384
S11313F021F0833009F4B0C0DEC08E01005B1E4FC3
S11314007D9B23C0F80180818111D5C081E0808358
S1131410CE010E94CF09CE010E940812CE01CE96C1
S11314200E940812CE0184589F4FDF91CF911F91E3
S11314300F91FF90EF90DF90CF90BF90AF909F906F
S11314408F907F906F900C940812D8018C91882310
S1131450B9F0CE010E942509F801108200E010E0E5
S11314607E01E00EF11EC7010E94F911882319F0D4
S1131470C7010E940B12025C1F4F0A3B110581F742
S11314808E016E01FFE7CF1AFEEFDF0A812C912C4B
S1131490E12CF12C3E0182EE681A8EEF780A2AC004
S11314A0D60112962D913C911397ED91FC91C901AF
S11314B09595879520FF0AC0DE01A80FB91F2D91CD
S11314C03C91E20FF31F0190F081E02D8C0F9D1FE2
S11314D00995C8010E94F611811112C0EFEFEE1AAE
S11314E0FE0A025C1F4FF4E0CF0ED11C83E0E81625
S11314F0F104B1F0C8010E944311882351F3D0CF05
S1131500BFEF8B1A9B0AC8010E9405128111E6CF16
S1131510C8010E940112B701C3010E944103DECF3A
S1131520A3E08A16910409F046C083E0F5018083A4
S1131530CE010E942B09CE01DF91CF911F910F9113
S1131540FF90EF90DF90CF90BF90AF909F908F90DF
S11315507F906F900C94DD098E010E5D1E4FC801C3
S11315600E94D712882339F1CE01825E9E4F0E94D9
S11315703703C8010E94C712D5011C92CE010E94F4
S11315802509CE010E943811CE01CE960E94381151
S1131590CE0184589F4FDF91CF911F910F91FF90FF
S11315A0EF90DF90CF90BF90AF909F908F907F90FF
S11315B06F900C943811DF91CF911F910F91FF9090
S11315C0EF90DF90CF90BF90AF909F908F907F90DF
S11315D06F9008950F931F93CF93DF93EC016623CD
S11315E021F0613009F440C06FC0BC016C5A7E4FD9
S11315F08C01005B1E4FC8010E945F1281E0FE0156
S1131600ED5AFE4F8083F80110820E940713CE0129
S11316100E942B09FE01EE5AFE4F8081FE0194E0E8
S1131620899FE00DF11D1124DF01A55ABE4F2D91B4
S11316303C91E75AFE4FC9019595879520FF0AC052
S1131640DE01A80FB91F4D915C9120813181FA010F
S1131650E20FF31F0190F081E02D8C0F9D1FDF91AD
S1131660CF911F910F9109940E94D509CE010E9438
S1131670DD09FE01EA5AFE4F8081FE0194E0899F54
S1131680E00DF11D1124DF01A159BE4F2D913C91B4
S1131690E359FE4FC9019595879520FF0AC0DE01E5
S11316A0A80FB91F4D915C9120813181FA01E20F9D
S11316B0F31F0190F081E02D60E08C0F9D1FDF91FE
S11316C0CF911F910F910994DF91CF911F910F91A9
S11316D008950F931F93CF93DF93EC01662321F0BA
S11316E0613009F444C076C0BC016C5A7E4F8C0151
S11316F0005B1E4FC8010E945F1281E0FE01ED5A9B
S1131700FE4F8083F8011082CE010E942509CE018C
S11317100E940104CE010E94CF11FE01EE5AFE4F39
S11317208081FE0194E0899FE00DF11D1124DF0109
S1131730A55ABE4F2D913C91E75AFE4FC90195958C
S1131740879520FF0AC0DE01A80FB91F4D915C9157
S113175020813181FA01E20FF31F0190F081E02D25
S11317608C0F9D1FDF91CF911F910F9109940E94BF
S1131770EA11CE010E942B09CE010E94DD09FE016F
S1131780EA5AFE4F8081FE0194E0899FE00DF11D2D
S11317901124DF01A159BE4F2D913C91E359FE4F15
S11317A0C9019595879520FF0AC0DE01A80FB91FCE
S11317B04D915C9120813181FA01E20FF31F019078
S11317C0F081E02D60E08C0F9D1FDF91CF911F9180
S11317D00F910994DF91CF911F910F9108950F9369
S11317E01F93CF93DF93EC01662321F0613009F45A
S11317F045C078C0BC016C5A7E4F8C01005B1E4F03
S1131800C8010E945F1281E0FE01ED5AFE4F808301
S1131810F8011082CE010E942509CE010E9406041F
S1131820CE01CE960E94CF11FE01EE5AFE4F80816A
S1131830FE0194E0899FE00DF11D1124DF01A55AFA
S1131840BE4F2D913C91E75AFE4FC901959587955E
S113185020FF0AC0DE01A80FB91F4D915C912081C1
S11318603181FA01E20FF31F0190F081E02D8C0F1A
S11318709D1FDF91CF911F910F910994CE960E94E5
S1131880EA11CE010E942B09CE010E94DD09FE015E
S1131890EA5AFE4F8081FE0194E0899FE00DF11D1C
S11318A01124DF01A159BE4F2D913C91E359FE4F04
S11318B0C9019595879520FF0AC0DE01A80FB91FBD
S11318C04D915C9120813181FA01E20FF31F019067
S11318D0F081E02D60E08C0F9D1FDF91CF911F916F
S11318E00F910994DF91CF911F910F9108950F9358
S11318F01F93CF93DF93EC01662321F0613009F449
S113190046C07AC0BC016C5A7E4F8C01005B1E4FEE
S1131910C8010E945F1281E0FE01ED5AFE4F8083F0
S1131920F8011082CE010E942509CE010E940B0409
S1131930CE0184589F4F0E94CF11FE01EE5AFE4FF4
S11319408081FE0194E0899FE00DF11D1124DF01E7
S1131950A55ABE4F2D913C91E75AFE4FC90195956A
S1131960879520FF0AC0DE01A80FB91F4D915C9135
S113197020813181FA01E20FF31F0190F081E02D03
S11319808C0F9D1FDF91CF911F910F910994845863
S11319909F4F0E94EA11CE010E942B09CE010E94A2
S11319A0DD09FE01EA5AFE4F8081FE0194E0899F21
S11319B0E00DF11D1124DF01A159BE4F2D913C9181
S11319C0E359FE4FC9019595879520FF0AC0DE01B2
S11319D0A80FB91F4D915C9120813181FA01E20F6A
S11319E0F31F0190F081E02D60E08C0F9D1FDF91CB
S11319F0CF911F910F910994DF91CF911F910F9176
S1131A000895EF92FF920F931F93CF93DF938B016F
S1131A10FB0101900020E9F73197EF01C61BD70BBA
S1131A207B01C701801B910B8C179D0734F4F701D0
S1131A3081917F010E944D13F4CFDF91CF911F91CB
S1131A400F91FF90EF9008952F923F924F925F92E3
S1131A506F927F928F929F92AF92BF92CF92DF92BA
S1131A60EF92FF920F931F93CF93DF93CDB7DEB71F
S1131A70CC54D1090FB6F894DEBF0FBECDBF1C0104
S1131A802DB73EB72D963FAF2EAF2D978B539F4F5B
S1131A905C010E942013811109C0C5010E9430120B
S1131AA0C5010E9455128111F4CFA9C2C1010E943F
S1131AB00B04F101E25BFE4FFEAFEDAF3101F6EB3B
S1131AC06F1AFEEF7F0A21012AEB421A2EEF520A07
S1131AD0C1018C5B9E4F21969FAF8EAF2197410130
S1131AE090EC891A9EEF990AF101E45CFE4FFCAF79
S1131AF0EBAF9101265C3E4F23963FAF2EAF239769
S1131B00C5010E943012C5010E945512882309F4B0
S1131B1076C20E943E13882399F3EDB7FEB7299647
S1131B20FFAFEEAF2997082F10E02DB73EB7201B6B
S1131B30310B0FB6F8943EBF0FBE2DBF8DB79EB7C5
S1131B4001966C019AAF89AFE12CF12C0E9423130A
S1131B508D3061F00E151F0564F0E9ADFAAD819387
S1131B60FAAFE9AFFFEFEF1AFF0AF0CFEF2809F45D
S1131B703CC2F6018081803709F4FFC0823769F1E5
S1131B808C3609F032C2EDB6FEB6B101625E7E4F0C
S1131B90CE0183960E941B038EA11F928F938DA169
S1131BA01F928F938CA11F928F938BA11F928F935F
S1131BB083E491E09F938F938E010F5F1F4F1F93D8
S1131BC00F930E948617B801C1010E94010D0FB640
S1131BD0F894FEBE0FBEEDBE08C2CDB6DEB6B101AE
S1131BE064507F4FCE0101960E94A90289819A8197
S1131BF0AB81BC818101025D1E4FF801808391831A
S1131C00A283B3838D819E81AF81B88584839583BC
S1131C10A683B78389859A85AB85BC8580879187A0
S1131C20A287B3878D859E85958784878F859889BC
S1131C30A989BA8986879787A08BB18B8B899C8960
S1131C40AD89BE89828B938BA48BB58B8F89988D3C
S1131C50978B868B898D9A8DAB8DBC8D808F918F60
S1131C60A28FB38F8D8D9E8DAF8DB8A1848F958FEC
S1131C70A68FB78F89A19AA191A380A341E0B8014F
S1131C80CE018E960E94190442E0B801CE018396DB
S1131C900E94190443E0B801CE0101960E94190480
S1131CA02DB73EB7225731090FB6F8943EBF0FBE89
S1131CB02DBF8DB79EB701967C018B858F938A8546
S1131CC08F9389858F9388858F938F818F938E814E
S1131CD08F938D818F938C818F938B818F938A8146
S1131CE08F938DA58F938CA58F938BA58F938AA5A6
S1131CF08F9389A58F9388A58F938FA18F938EA19E
S1131D008F938DA18F938CA18F9388AD8F938FA97F
S1131D108F938EA98F938DA98F938CA98F938BA961
S1131D208F938AA98F9389A98F9388A98F938FA55D
S1131D308F93F80183818F9382818F9381818F9315
S1131D4080818F938CE191E09F938F93FF92EF9228
S1131D500E9486172DB73EB72A5D3F4F0FB6F89401
S1131D603EBF0FBE2DBFB701C1010E94010D0FB6CA
S1131D70F894DEBE0FBECDBE38C18DB79EB72B968C
S1131D809FAF8EAF2B9767E071E0C6010E94511799
S1131D908C01E12CF12C8FE0C82E81E0D82EF101CA
S1131DA0EA5CFE4FFAAFE9AF91012E5C3E4F2596F7
S1131DB03FAF2EAF2597C101825D9E4F27969FAFFF
S1131DC08EAF27970115110509F47EC069E071E013
S1131DD0C8010E945617892B09F46EC0E114F1045E
S1131DE0B9F427969FAD27979F932696EFAD269734
S1131DF0EF932BE031E03F932F931F930F930E94B7
S1131E00A8170F900F900F900F900F900F9051C044
S1131E1091E0E916F104A1F42396EFAD2397EF9333
S1131E202296FFAD2297FF932AAD2F9339AD3F93AE
S1131E3025968FAD25978F9324969FAD24970FC039
S1131E40F2E0EF16F104D9F421962FAD21972F93E8
S1131E503FAD3F939F928F928CAD8F939BAD9F9399
S1131E60DF92CF921F930F930E94A817EDB7FEB78E
S1131E703A960FB6F894FEBF0FBEEDBF1AC0F3E05A
S1131E80EF16F104B1F42EAD2F933DAD3F937F9245
S1131E906F925F924F92DF92CF921F930F930E94A3
S1131EA0A8178DB79EB70A960FB6F8949EBF0FBEBB
S1131EB08DBF9FEFE91AF90A67E071E080E090E0D6
S1131EC00E9451178C017ECF8101025D1E4FB80123
S1131ED07101ECEFEE0EF11CC7010E944F02C70125
S1131EE00E9449022DB73EB7225731090FB6F89424
S1131EF03EBF0FBE2DBF8DB79EB701967C01EDADE1
S1131F00FEAD81818F9380818F93F30183818F93C1
S1131F1082818F9381818F9380818F93F20183815A
S1131F208F9382818F9381818F9380818F93219668
S1131F30EEADFFAD219781818F9380818F93F40162
S1131F4083818F9382818F9381818F9380818F93FB
S1131F50EBADFCAD83818F9382818F9381818F93CD
S1131F6080818F932396EEADFFAD239781818F936C
S1131F7080818F93F101EA5CFE4F83818F9382818C
S1131F808F9381818F9380818F93349783818F93F3
S1131F9082818F9381818F9380818F93F8018381D4
S1131FA08F9382818F9381818F9380818F938AE134
S1131FB091E09F938F93FF92EF920E9486172DB723
S1131FC03EB72A5D3F4F0FB6F8943EBF0FBE2DBFFC
S1131FD0B701C1010E94010D2B968EAD9FAD2B97C9
S1131FE00FB6F8949EBF0FBE8DBF2996EEADFFAD20
S1131FF029970FB6F894FEBF0FBEEDBF81CD2D9685
S11320002EAD3FAD2D970FB6F8943EBF0FBE2DBF3A
S1132010C45BDF4F0FB6F894DEBF0FBECDBFDF91B8
S1132020CF911F910F91FF90EF90DF90CF90BF90D1
S1132030AF909F908F907F906F905F904F903F9064
S11320402F900895CF93DF93EC010E94B612CE0136
S11320500C960E94B612CE0148960E94B612CE018A
S113206085960E94ED0081E08EA741E050E060E09B
S113207070E04FA758AB69AB7AAB4BAB5CAB6DABC5
S11320807EAB21E030E038AF2FAB92E09DA719AED4
S11320908CA380E090E0A0E0B0E48AAF9BAFACAF4B
S11320A0BDAFDF91CF9108954F925F926F927F926F
S11320B08F929F92AF92BF92CF92DF92EF92FF9254
S11320C00F931F93CF93DF93CDB7DEB760970FB60F
S11320D0F894DEBF0FBECDBF7C018B013A014901EC
S11320E00E94B61257018CE0A80EB11CC5010E94D3
S11320F0B6126701E8E1CE0ED11CC6010E94B612E9
S11321002701F5E24F0E511CC2010E94ED0081E04F
S1132110F70186A781E090E0A0E0B0E087A790AB4C
S1132120A1ABB2AB83AB94ABA5ABB6AB90AF87AB73
S1132130F8018081F70186A7F80181819281A3814A
S1132140B481F70187A790ABA1ABB2ABF80185814D
S11321509681A781B085F70183AB94ABA5ABB6ABF1
S1132160F80181859285F70190AF87ABB8016F5F65
S11321707F4FCE0101960E94BC128CE0FE01319685
S1132180D70101900D928A95E1F7CE0101960E9444
S11321900113B8016B5F7F4FCE0101960E94BC1200
S11321A08CE0FE013196D50101900D928A95E1F7FC
S11321B0CE0101960E94011388E893E1A0E0B0E00B
S11321C08D879E87AF87B88BBE01635F7F4FCE013B
S11321D001960E94BC128CE0FE013196D60101905A
S11321E00D928A95E1F7CE0101960E940113F70141
S11321F067A970AD072E000C880B990B0E942E1650
S11322008B019C01A401B301CE0101960E94EE0052
S113221087E0FE013196D20101900D928A95E1F793
S1132220CE0101960E94400282E0F70185A711AE1B
S113223014A280E090E0A0E0B0E482AF93AFA4AF3A
S1132240B5AF60960FB6F894DEBF0FBECDBFDF9179
S1132250CF911F910F91FF90EF90DF90CF90BF909F
S1132260AF909F908F907F906F905F904F90089564
S1132270CF93DF93EC011DA60E94C7121CA219AED6
S1132280DF91CF9108958F929F92AF92BF92CF9298
S1132290DF92EF92FF920F931F93CF93DF93EC01A2
S11322A01DA51130A9F018F0133001F16AC00E9485
S11322B0D712882309F465C0CE010C960E94C71278
S11322C060E0CE0185960E94FD0081E08DA75AC092
S11322D00C960E94D712882309F453C0CE01859628
S11322E00E942C0282E08DA719AF4BC06C0128E13B
S11322F0C20ED11CC6010E94D712882309F441C022
S11323008AAC9BACACACBDAC20E030E040E050E427
S1132310C501B4010E947F158E010B5D1F4F9E0104
S1132320265C3F4F7901811105C080E090E0A0EA6E
S1132330B0E40EC020E030E040EA51E4C501B4014D
S11323400E947F15811109C080E090E0A0E0B0E414
S11323508AAF9BAFACAFBDAF0CC020E030E040EA29
S113236050E4C501B4010E9413156AAF7BAF8CAF72
S11323709DAF40E0B701C8010E949401C6010E94CC
S1132380C71280E0DF91CF911F910F91FF90EF90E2
S1132390DF90CF90BF90AF909F908F900895CF9390
S11323A0DF93EC0183E08DA780E090E0A0E0B0E44F
S11323B08AAF9BAFACAFBDAFCE0148960E94C712A7
S11323C0BE01665C7F4F40E0CE018596DF91CF91E0
S11323D00C949401CF93DF93EC0185960E942C0218
S11323E081E089AF8CA3DF91CF910895FC0181AD89
S11323F0089521E0FC0185A5813009F020E0822FB9
S1132400089521E0FC0124A30895FC0184A108950A
S113241085960C942C0260E085960C94FD00CF9375
S1132420DF93EC0185960E944002CE0148960E94FB
S11324300113CE010C960E940113CE01DF91CF91BE
S11324400C9401130895FC01108272876187128233
S1132450DA018C9184831182138216822087089575
S1132460FC01A185B2852C9181E090E0048002C03A
S1132470880F991F0A94E2F730E082239323208582
S113248030E08217930761F481818F5F8183843008
S113249040F081E0808386818F5F86831182089576
S11324A010820895FC0111820895FC018081089531
S11324B00895FC011382108284E081830895FB0156
S11324C02081DC012C93218111962C931197228178
S11324D012962C93089521E0FC019281FB018281E4
S11324E0981301C020E0822F08950895109280006F
S11324F089E08093810082E080936F0080E89EE30E
S1132500909389008093880008952FB7F894609180
S113251025037091260380912703909128032FBFF0
S113252008951F920F920FB60F9211248F939F93C9
S1132530AF93BF938091250390912603A091270325
S1132540B09128030196A11DB11D8093250390939A
S11325502603A0932703B0932803BF91AF919F91C3
S11325608F910F900FBE0F901F901895FC0110864D
S11325701186128613860895FB0140815181628180
S11325807381FC0140875187628773870895CF93D5
S1132590DF93EC010E9485126C837D838E839F837D
S11325A0688379838A839B83DF91CF910895CF9247
S11325B0DF92EF92FF92CF93DF93EC010E9485129A
S11325C06C837D838E839F83C880D980EA80FB805F
S11325D0DC01CB018C199D09AE09BF0921E0C88437
S11325E0D984EA84FB848C159D05AE05BF0508F4E7
S11325F020E0822FDF91CF91FF90EF90DF90CF907A
S1132600089508958091E80080FFFCCF089581E04B
S11326108093D70080EA8093D80082E189BD09B411
S113262000FEFDCF80E98093D8001092E000109264
S11326302C03109229038CE08093E200789408958F
S113264080912C0308959FB7F89480912C038823DC
S113265039F083E08093E9008091E80085FD03C0B0
S11326609FBF8FEF08958091F1002091E80025FD30
S113267003C02BE62093E8009FBF08959FB7F8940A
S113268080912C03882331F083E08093E9008091CA
S1132690F20001C080E09FBF089590912C0399231C
S11326A009F19FB7F89424E02093E90020912A03CC
S11326B0222341F02091E80025FD02C09FBF12C0F3
S11326C010922A032091E400275E34E04091E80050
S11326D045FD13C09FBF9091E400291305C081E01C
S11326E080932A038FEF089590912C039923D1F3BB
S11326F09FB7F8943093E900E9CF8093F10080917B
S1132700E80085FD03C08AE38093E80085E08093B8
S11327102B039FBF80E008951F920F920FB60F9274
S113272011248F939F938091E1001092E10083FF25
S113273011C01092E90091E09093EB001092EC002C
S113274092E19093ED0098E09093F00010922C03A6
S11327501092290382FF13C080912C03882379F0FF
S113276080912B03882359F0815080932B0381118E
S113277006C084E08093E9008AE38093E8009F9197
S11327808F910F900FBE0F901F9018951F920F926C
S11327900FB60F921124FF920F931F932F933F9321
S11327A04F935F936F937F938F939F93AF93BF9355
S11327B0CF93DF93EF93FF931092E9008091E800A9
S11327C083FF17C1F090F1008091F1000091F100B6
S11327D09091F10010E0192BC091F1009091F1005B
S11327E0D0E0D92B2091F1006091F10092EF909309
S11327F0E800863009F049C088EB90E042EE50E0F2
S1132800FC01A591B4910A171B07D9F4FC01329677
S1132810A591B491CA17DB07A1F4FC013496459144
S11328205491FC013696849130E0362B2F3F3105CC
S113283019F010F02FEF30E0281708F4822F3EEF44
S11328400CC0079648175907D9F6D3C0490F511D34
S1132850891B3093E8008823A9F09091E800292F80
S11328602570D9F392FDC8C0982F813108F090E10A
S1132870FA01292F222351F364916093F10021502E
S11328803196F8CF903149F3B7C0853049F48EEFD3
S11328908093E8000E94021300680093E300ACC038
S11328A0893059F5F110A5C000932C031092290327
S11328B010922B038EEF8093E80041E085E791E0CE
S11328C04093E9009C012F5F3F4FFC0154915093CA
S11328D0EB00552359F0F90124912093EC009C015D
S11328E02D5F3F4F3196E491E093ED004F5F45300B
S11328F011F0C901E5CF8EE177C0883051F4F0E8DA
S1132900FF1277C00E94021380912C038093F10080
S113291049C0813281F481EAF8126BC00E9402132B
S1132920E0E0F1E087E091E021912093F1008E173F
S11329309F07D1F737C08032A9F491E2F91259C048
S11329408091E80082FFFCCFE0E0F1E087E091E0D5
S11329502091F10021938E179F07D1F78BEF80937D
S1132960E80020C0823241F4E1E2FE1242C000934A
S113297029030E94021316C0811118C00E94021379
S1132980F2E8FF120AC0C093E9008091EB0085FBD6
S1132990882780F91092E90001C080E08093F1005B
S11329A01092F1008EEF8093E80026C0982F9D7F4F
S11329B09130F9F492E0F9121CC0012BD1F4CF77D5
S11329C09FEF9C0F9430A8F49EEF9093E800C0937F
S11329D0E900833071F089E18093EB0081E090E0BD
S11329E001C0880FCA95EAF78093EA001092EA00C2
S11329F003C081E28093EB00FF91EF91DF91CF91CF
S1132A00BF91AF919F918F917F916F915F914F9102
S1132A103F912F911F910F91FF900F900FBE0F9038
S1132A201F9018955058BB27AA270E942A150C946A
S1132A30A4160E94961638F00E949D1620F039F4D0
S1132A409F3F19F426F40C9493160EF4E095E7FBDB
S1132A500C948D16E92F0E94B51658F3BA17620725
S1132A6073078407950720F079F4A6F50C94D7161C
S1132A700EF4E0950B2EBA2FA02D0B01B901900195
S1132A800C01CA01A0011124FF27591B99F0593FD9
S1132A9050F4503E68F11A16F040A22F232F342F21
S1132AA04427585FF3CF469537952795A795F0406F
S1132AB05395C9F77EF41F16BA0B620B730B840B84
S1132AC0BAF09150A1F0FF0FBB1F661F771F881F3C
S1132AD0C2F70EC0BA0F621F731F841F48F4879594
S1132AE077956795B795F7959E3F08F0B0CF939586
S1132AF0880F08F09927EE0F9795879508950E94FF
S1132B00691608F481E008950E9498150C94A4169F
S1132B100E949D1658F00E94961640F029F45F3FDB
S1132B2029F00C948D1651110C94D8160C9493160C
S1132B300E94B51668F39923B1F3552391F3951BBD
S1132B40550BBB27AA2762177307840738F09F5FCA
S1132B505F4F220F331F441FAA1FA9F335D00E2E37
S1132B603AF0E0E832D091505040E695001CCAF7A4
S1132B702BD0FE2F29D0660F771F881FBB1F261767
S1132B8037074807AB07B0E809F0BB0B802DBF013E
S1132B90FF2793585F4F3AF09E3F510578F00C940D
S1132BA08D160C94D8165F3FE4F3983ED4F38695C3
S1132BB077956795B795F7959F5FC9F7880F911D2E
S1132BC09695879597F90895E1E0660F771F881F1A
S1132BD0BB1F621773078407BA0720F0621B730BCD
S1132BE0840BBA0BEE1F88F7E09508950E94FD153B
S1132BF06894B1110C94D81608950E94BD1688F0FB
S1132C009F5798F0B92F9927B751B0F0E1F0660FAC
S1132C10771F881F991F1AF0BA95C9F714C0B130ED
S1132C2091F00E94D716B1E008950C94D716672F3F
S1132C30782F8827B85F39F0B93FCCF3869577951C
S1132C406795B395D9F73EF4909580957095619505
S1132C507F4F8F4F9F4F0895E89409C097FB3EF430
S1132C6090958095709561957F4F8F4F9F4F9923D5
S1132C70A9F0F92F96E9BB279395F6958795779553
S1132C806795B795F111F8CFFAF4BB0F11F460FF13
S1132C901BC06F5F7F4F8F4F9F4F16C0882311F06B
S1132CA096E911C0772321F09EE8872F762F05C07F
S1132CB0662371F096E8862F70E060E02AF09A951A
S1132CC0660F771F881FDAF7880F9695879597F90F
S1132CD00895990F0008550FAA0BE0E8FEEF1616A9
S1132CE01706E807F907C0F012161306E407F507FC
S1132CF098F0621B730B840B950B39F40A2661F070
S1132D00232B242B252B21F408950A2609F4A14012
S1132D10A6958FEF811D811D089597F99F6780E81F
S1132D2070E060E008959FEF80EC089500240A9419
S1132D301616170618060906089500240A94121692
S1132D401306140605060895092E0394000C11F4C5
S1132D50882352F0BB0F40F4BF2B11F460FF04C072
S1132D606F5F7F4F8F4F9F4F089557FD9058440FCB
S1132D70551F59F05F3F71F04795880F97FB991FD6
S1132D8061F09F3F79F08795089512161306140693
S1132D90551FF2CF4695F1DF08C016161706180620
S1132DA0991FF1CF86957105610508940895E894FB
S1132DB0BB2766277727CB0197F908950E94F11660
S1132DC00C94A4160E94961638F00E949D1620F0CA
S1132DD0952311F00C948D160C94931611240C94D5
S1132DE0D8160E94B51670F3959FC1F3950F50E065
S1132DF0551F629FF001729FBB27F00DB11D639FA9
S1132E00AA27F00DB11DAA1F649F6627B00DA11D4E
S1132E10661F829F2227B00DA11D621F739FB00DF4
S1132E20A11D621F839FA00D611D221F749F332764
S1132E30A00D611D231F849F600D211D822F762FFD
S1132E406A2F11249F5750409AF0F1F088234AF0DA
S1132E50EE0FFF1FBB1F661F771F881F9150504046
S1132E60A9F79E3F510580F00C948D160C94D8164A
S1132E705F3FE4F3983ED4F3869577956795B795CD
S1132E80F795E7959F5FC1F7FE2B880F911D9695E7
S1132E90879597F90895EE0FFF1F0590F491E02DA3
S1132EA0099444E551E00E945F170895FB01DC0199
S1132EB08D91019080190110D9F3990B0895FA01AD
S1132EC0A191B081009719F41097E1F0CD01DC01D4
S1132ED0CD010D90002011F4C00113C0FB0121911C
S1132EE0222319F02015D9F7F3CFFB0121912015E6
S1132EF019F41E92119606C02223C1F70D900020EA
S1132F00A1F7D001FA01A193B0830895AEE0B0E037
S1132F10ECE8F7E10C94C51D0D891E8986E08C83CD
S1132F201A8309838FEF9FE79E838D83AE01475EEB
S1132F305F4F6F89788DCE0101960E94C117EF8192
S1132F40F885E00FF11F10822E96E4E00C94E11D49
S1132F50AEE0B0E0EEEAF7E10C94C71D85E08C83A7
S1132F608B899C899A838983AE01495E5F4F6D8901
S1132F707E89CE0101960E943E1B2E96E2E00C94BF
S1132F80E31DABE0B0E0E7ECF7E10C94B71D6C0196
S1132F907B018A01FC0117821682838181FFCCC1E7
S1132FA0CE0101963C01F6019381F70193FD8591D1
S1132FB093FF81917F01882309F4BAC1853239F4E2
S1132FC093FD859193FF81917F01853229F4B601A8
S1132FD090E00E94B71CE7CF912C212C312CFFE10B
S1132FE0F315D8F08B3279F038F4803279F08332EB
S1132FF0A1F4232D20611DC08D3261F0803369F46A
S1133000232D216016C0832D8260382EE32DE460C9
S11330103E2E2AC0F32DF8601DC037FC2DC020EDD4
S1133020280F2A3040F08E32B9F436FC81C1232DAA
S11330302064322E19C036FE06C08AE0989E200D08
S11330401124922E11C0EAE02E9E200D1124222E6E
S1133050F32DF0623F2E08C08C3621F4832D806856
S1133060382E02C0883641F4F70193FD859193FF11
S113307081917F018111B3CF982F9F7D9554933017
S113308028F40C5F1F4F9FE399830DC0833631F002
S1133090833771F0833509F059C021C0F80180816C
S11330A089830E5F1F4F88248394912C530113C08E
S11330B02801F2E04F0E511CF801A080B18036FEC9
S11330C003C0692D70E002C06FEF7FEFC5010E945D
S11330D06E1C4C018201F32DFF773F2E16C0280190
S11330E022E0420E511CF801A080B18036FE03C0DC
S11330F0692D70E002C06FEF7FEFC5010E94631C71
S11331004C01F32DF0683F2E820133FC1BC0822D4D
S113311090E088169906B0F4B60180E290E00E942F
S1133120B71C2A94F4CFF50137FC859137FE8191C1
S11331305F01B60190E00E94B71C21102A9421E09F
S1133140821A91088114910471F7E8C0843611F051
S1133150893641F5F80137FE07C0608171818281AB
S113316093810C5F1F4F08C060817181072E000C92
S1133170880B990B0E5F1F4FF32DFF763F2E97FFA1
S113318009C090958095709561957F4F8F4F9F4FA3
S1133190F0683F2E2AE030E0A3010E940C1D882E27
S11331A0861845C0853731F4232D2F7EB22E2AE0B0
S11331B030E025C0932D997FB92E8F36C1F018F4D5
S11331C0883579F0B5C0803719F0883721F0B0C060
S11331D0E92FE061BE2EB4FE0DC0FB2DF460BF2EBE
S11331E009C034FE0AC0292F2660B22E06C028E08A
S11331F030E005C020E130E002C020E132E0F80117
S1133200B7FE07C060817181828193810C5F1F4F7B
S113321006C06081718180E090E00E5F1F4FA301C2
S11332200E940C1D882E8618FB2DFF773F2E36FE3C
S11332300DC0232D2E7FA22E891458F434FE0BC00A
S113324032FC09C0832D8E7EA82E05C0B82CA32C79
S113325003C0B82C01C0B92CA4FE0FC0FE01E80DB8
S1133260F11D8081803321F49A2D997EA92E09C005
S1133270A2FE06C0B394B39404C08A2D867809F0E4
S1133280B394A3FC11C0A0FE06C0B21488F4280CA9
S1133290922C9B180EC0B21460F4B60180E290E048
S11332A00E94B71CB394F7CFB21418F42B1802C0C1
S11332B0982C212CA4FE10C0B60180E390E00E945B
S11332C0B71CA2FE17C0A1FC03C088E790E002C0AF
S11332D088E590E0B6010CC08A2D867859F0A1FEED
S11332E002C08BE201C080E2A7FC8DE2B60190E04F
S11332F00E94B71C891438F4B60180E390E00E9460
S1133300B71C9A94F7CF8A94F301E80DF11D8081DC
S1133310B60190E00E94B71C8110F5CF222009F479
S113332042CEB60180E290E00E94B71C2A94F6CF08
S1133330F6018681978102C08FEF9FEF2B96E2E121
S11333400C94D31D20FD09C0FC0123FD05C022FF00
S113335002C07383628351834083089544FD17C080
S113336046FD17C0AB01BC01DA01FB01AA0FBB1F6C
S1133370EE1FFF1F1094D1F74A0F5B1F6E1F7F1FB4
S1133380CB01BA01660F771F881F991F09C033E06C
S113339001C034E0660F771F881F991F3150D1F7A1
S11333A0620F711D811D911D08950F931F93CF937B
S11333B0DF938C01C8010E94791CEC0197FD08C0C1
S11333C00E944F1C892BB1F7B801CE010E94F31C57
S11333D0CE01DF91CF911F910F9108958F929F920B
S11333E0AF92BF92EF92FF920F931F93CF93DF930D
S11333F08C01D62F7A01B22E0E94791C9C013327AE
S11334002B32310531F02D32310561F48B2D80687A
S1133410B82ED15011F480E068C0C8010E94791C14
S113342097FDF9CFCB2DCD7F2B2D207309F580335C
S1133430F9F4AA24AA94AD0E09F443C0C8010E9469
S1133440791C97FD3EC09C012F7D3327283531051B
S113345049F4C264D250A9F1C8010E94791C97FFB3
S113346007C02FC0B6FE02C0C26001C0C261DA2D1F
S1133470812C912C540120ED280F283080F0C4FFBA
S113348004C0B8010E94F31C19C02A3040F0C6FFE2
S1133490F8CF2F7D3FEE320F363098F727504C2F60
S11334A0C501B4010E94AE194B015C01C260D15048
S11334B059F0C8010E94791C97FFDDCFC1FD04C0FB
S11334C0AACF812C912C5401C7FF08C0B094A094BA
S11334D090948094811C911CA11CB11C2C2FB501CB
S11334E0A401C7010E94A21981E0DF91CF911F912D
S11334F00F91FF90EF90BF90AF909F908F900895A1
S1133500A0E2B0E0E6E8FAE10C94BA1D5C01962E64
S11335107A01F9018E010F5F1F4F680180E2D80123
S11335201D928A95E9F7D50113968C9080E090E07E
S1133530612C712C30E061E070E083FC259183FE06
S113354021918F01522E211103C080E090E092C09E
S11335502E3511F4009751F1432F50E048175907C5
S11335603CF42D3559F12D3219F4772009F103C0BB
S1133570772009F46AC0452D469546954695D601AF
S1133580A40FB11D452D47708B0102C0000F111F00
S11335904A95E2F7A8015C91452B4C93651459F0C8
S11335A0561410F45394E7CF5A94E5CF31E004C095
S11335B07724739401C0712C0196BFCF772019F042
S11335C08E8180628E83311103C08824839417C056
S11335D0F6019E012F5D3F4F8081809581932E17C8
S11335E03F07D1F7F2CFE114F10429F0D7018C930E
S11335F0F70131967F019A94812C9920F9F0C50145
S11336000E94791C97FD18C0FC01FF2723E0F59563
S1133610E7952A95E1F7EC0DFD1D208130E0AC0122
S11336204770552702C0359527954A95E2F720FD46
S1133630DACFB5010E94F31C811087CFE114F104A5
S113364011F0D7011C92C80115C0422F469546952A
S11336504695D601A40FB11D422F47708B0102C0BD
S1133660000F111F4A95E2F7A8015C91452B4C937A
S1133670622EA2CFA096EFE00C94D61DA0E0B0E09D
S1133680E4E4FBE10C94BA1D6C01EB015A01FC016A
S113369017821682512CF601E380FE01E3FC85912A
S11336A0E3FE8191182FEF01882309F4EEC090E026
S11336B00E944F1C892B21F0C6010E94D519EBCF23
S11336C0153241F4FE01E3FC1591E3FE1191EF0183
S11336D0153281F4C6010E94791C97FDD4C0412F94
S11336E050E09C01332724173507A9F2B6010E9444
S11336F0F31CCBC01A3239F4E3FC1591E3FE1191AB
S1133700EF0101E001C000E0F12C20ED210F2A308F
S113371080F402606F2D70E080E090E040E20E944F
S1133720AE19F62EFE01E3FC1591E3FE1191EF01B3
S1133730ECCF01FF03C0F11003C0A7C0FF24FA942B
S1133740183619F01C3651F010C0FE01E3FC159137
S1133750E3FE1191EF01183641F408600460FE01A4
S1133760E3FC1591E3FE1191EF01112309F48DC0DF
S1133770612F70E08CEA90E00E94581C892B09F4B8
S113378084C000FD07C0F50180809180C5010296C8
S11337905C0102C0812C912C1E3651F4F601468145
S11337A0578160E070E0202FC4010E94A21973CFFA
S11337B01336A9F401FD02C0FF24F394C6010E944C
S11337C0791C97FD60C08114910429F0F401808371
S11337D0C40101964C01FA94F110F0CF50C01B358E
S11337E059F49E01A4016F2DC6010E94801AEC01B8
S11337F0892B09F044C03EC0C6010E94D51997FD2B
S113380042C01F3661F128F4143639F1193651F1EA
S113381028C0133771F0153701F123C081149104C6
S113382029F0F4016082C40101964C01FA94FF204E
S113383071F0C6010E94791C3C0197FD08C00E94EA
S11338404F1C892B59F3B601C3010E94F31C811448
S11338509104A9F0F401108212C0006203C0006157
S113386001C00064202FA4016F2DC6010E94EE192F
S1133870811105C0F6018381807329F406C000FD1F
S11338800ACF539408CF552019F0852D90E002C03B
S11338908FEF9FEFCDB7DEB7EFE00C94D61D9111FB
S11338A00C946A1D803219F089508550C8F7089528
S11338B0FC010590061621F00020D9F7C0010895F7
S11338C03197CF010895FC010590615070400110BB
S11338D0D8F7809590958E0F9F1F0895FC01615035
S11338E0704001900110D8F7809590958E0F9F1F1E
S11338F00895CF93DF93EC012B8120FF33C026FF83
S11339000AC02F7B2B838E819F8101969F838E8398
S11339108A8190E029C022FF0FC0E881F98180816B
S1133920082E000C990B009719F420622B831AC0FF
S11339303196F983E8830EC0EA85FB85099597FFE4
S113394009C02B81019611F080E201C080E1822B35
S11339508B8308C02E813F812F5F3F4F3F832E838F
S1133960992702C08FEF9FEFDF91CF9108950F93B6
S11339701F93CF93DF93FB01238121FD03C08FEFBE
S11339809FEF2CC022FF16C04681578124813581C8
S11339904217530744F4A081B1819D012F5F3F4F2B
S11339A0318320838C93268137812F5F3F4F378368
S11339B0268314C08B01EC01FB010084F185E02D0A
S11339C00995892BE1F6D80116968D919C9117974C
S11339D0019617969C938E931697CE01DF91CF9103
S11339E01F910F910895FB01238120FF12C026FD32
S11339F010C08F3F3FEF930761F082832F7D2064D7
S1133A0023832681378121503109378326839927DF
S1133A1008958FEF9FEF0895FA01AA27283051F1F6
S1133A20203181F1E8946F936E7F6E5F7F4F8F4FEB
S1133A309F4FAF4FB1E03ED0B4E03CD0670F781F4A
S1133A40891F9A1FA11D680F791F8A1F911DA11D2F
S1133A506A0F711D811D911DA11D20D009F4689468
S1133A603F912AE0269F11243019305D3193DEF610
S1133A70CF010895462F4770405D4193B3E00FD0C6
S1133A80C9F7F6CF462F4F70405D4A3318F0495DB1
S1133A9031FD4052419302D0A9F7EACFB4E0A69594
S1133AA09795879577956795BA95C9F700976105B6
S1133AB0710508959B01AC010A2E0694579547950C
S1133AC037952795BA95C9F7620F731F841F951F01
S1133AD0A01D0895992788270895DC01CB01FC01D6
S1133AE0F999FECF06C0F2BDE1BDF89A319600B453
S1133AF00D9241505040B8F70895DC01A40FB51F52
S1133B004150504048F0CB01840F951F2E910E94E4
S1133B108E1D41505040D0F70895262FF999FECFBD
S1133B2092BD81BDF89A019700B4021639F01FBA0C
S1133B3020BD0FB6F894FA9AF99A0FBE0895DC01E5
S1133B40CB0103C02D910E94AA1D41505040D0F7D3
S1133B500895262FF999FECF1FBA92BD81BD20BDCD
S1133B600FB6F894FA9AF99A0FBE019608952F9217
S1133B703F924F925F926F927F928F929F92AF92F9
S1133B80BF92CF92DF92EF92FF920F931F93CF9346
S1133B90DF93CDB7DEB7CA1BDB0B0FB6F894DEBFDD
S1133BA00FBECDBF09942A88398848885F846E8403
S1133BB07D848C849B84AA84B984C884DF80EE804D
S1133BC0FD800C811B81AA81B981CE0FD11D0FB656
S1133BD0F894DEBF0FBECDBFED01089510E0C2EC36
S1133BE0D0E004C0FE010E944B172196C33CD107CC
S1093BF0C9F7F894FFCFB1
S1133BF600E100000000083B007000256C6400250D
S1133C066C642C256C642C256400733B256C643B26
S1133C16256C642C256C642C25643B256C642C254E
S1133C266C642C25643B256C642C256C642C2564FF
S1133C363B0D006C3B25642C25642C25642C2564E3
S1073C463B0D00002E
S9030000FC
