S01C000054426F617264436F6E74726F6C6C6572526576322E7372656349
S11300000C94C0000C94DD000C94DD000C94DD0015
S11300100C94DD000C94DD000C94DD000C94DD00E8
S11300200C94DD000C94DD000C94E6040C94200583
S11300300C94DD000C94DD000C94DD000C94DD00C8
S11300400C94DD000C9437040C94DD000C94DD005A
S11300500C94DD000C94DD000C94DD000C94DD00A8
S11300600C94DD000C94DD000C94DD000C94DD0098
S11300700C94DD000C94DD000C94DD000C94DD0088
S11300800C94DD000C94DD000C94DD000C94DD0078
S11300900C94DD000C94DD000C94DD000C94DD0068
S11300A00C94DD000C94DD000C94DD006364696E37
S11300B06F70737578585B000001000063011200D3
S11300C0020000200143000300001C010401030995
S11300D004F8002202030904EC000A03030904E201
S11300E00008080334003100300000000A03530004
S11300F04500540069000000220341006E006400C2
S1130100720065007700200045006C006D006500FA
S11301106E0064006F0072006600000004030904AE
S113012009024300020100C0320904000001020276
S11301300100052400100105240101010424020624
S1130140052406000107058203100040090401008C
S1130150020A0000000705030240000007058402AC
S11301604000001201000202000010C0167A0400D0
S113017001010203010001C1120180360181360030
S113018011241FBECFEFDAE0DEBFCDBF11E0A0E047
S1130190B1E0ECE7F9E102C005900D92A837B10790
S11301A0D9F721E0A8E7B1E001C01D92A038B20759
S11301B0E1F70E9431040C94BC0C0C9400000895E7
S11301C04BE150E060E070E00C94530C4BE150E0E4
S11301D060E070E00C94630CFC01DB014D915D91D7
S11301E06D917C911397408351836283738314963A
S11301F04D915D916D917C911797448355836683EE
S1130200778318968C911897808719964D915D91F4
S11302106D917C911C9741875287638774871D96E3
S11302204D915D916D917C91509745875687678775
S1130230708B51968C915197818B52964D915D9113
S11302406D917C915597428B538B648B758B56962D
S11302504D915D916D917C915997468B578B608F31
S1130260718F5A968C91828F0895EF92FF920F931B
S11302701F93CF93DF93EC018B017A01FA01808104
S1130280823041F1833009F44BC0813009F076C0EB
S113029044E050E060E070E0C8010E94530C44E088
S11302A050E064E070E0C80104960E94530C41E001
S11302B050E068E070E0C80108960E94530CF80111
S11302C080854481558166817781008111812281F5
S11302D0338122C044E050E069E070E0C80109962F
S11302E00E94530C44E050E06DE070E0C8010D96AC
S11302F00E94530C41E050E061E170E0C801419676
S11303000E94530CF801818945855685678570895B
S11303100185128523853485F7019081988325C052
S113032044E050E062E170E0C80142960E94530C40
S113033044E050E066E170E0C80146960E94530C28
S113034041E050E06AE170E0C8014A960E94530C13
S1130350F80146895789608D718D828DF7019081EE
S11303609883082F10E020E030E009831A832B8360
S11303703C834D835E836F8378870EC084E08883DB
S113038081E090E0A0E0B0E089839A83AB83BC83F2
S11303908D839E83AF83B8878987CE01DF91CF9108
S11303A01F910F91FF90EF900895DC01FB01808174
S11303B08230E1F0833091F1813009F046C041810F
S11303C05281638174814D935D936D937C931397F4
S11303D0458156816781708514964D935D936D9325
S11303E07C931797818518968C9308954181528147
S11303F06381748119964D935D936D937C931C97DF
S113040045815681678170851D964D935D936D93EB
S11304107C935097818551968C93089541815281A4
S11304206381748152964D935D936D937C9355973C
S1130430458156816781708556964D935D936D9382
S11304407C93599781855A968C93089584B18067DB
S113045084B985B1806785B98D9A8598089585B1E9
S1130460806785B92E980895EF92FF920F931F939A
S1130470CF93DF938C01FC0101900020E9F73197C1
S1130480EF01C81BD90B7C01C701801B910B8C1792
S11304909D0734F4F70181917F010E94A704F4CFF2
S11304A0DF91CF911F910F91FF90EF900895CF931B
S11304B0DF93CDB7DEB7C256D1090FB6F894DEBFCD
S11304C00FBECDBFCE014C960E94DF00CE014C96EC
S11304D00E94E0000E9461040E947A048823E1F3F0
S11304E0412C512C3201439427E330E02C0F3D1F63
S11304F0275F3F4F6B963FAF2EAF6B97CE01CC96E5
S113050067969FAF8EAF6797FE01F8966996FFAF27
S1130510EEAF699721E430E02C0F3D1F275F3F4F7A
S11305206D963FAF2EAF6D9781E490E08C0F9D1FC9
S113053005966F969FAF8EAF6F97E1E4F0E0EC0FF6
S1130540FD1F3196A196FFAFEEAFA1979BE4292E34
S1130550312C2C0E3D1EF9E02F0E311C2BE4822E83
S1130560912C8C0E9D1E25E0820E911C0E949804F5
S11305708823E1F3EDB7FEB7A396FFAFEEAFA397E1
S1130580082F10E02DB73EB7201B310B0FB6F8949F
S11305903EBF0FBE2DBF8DB79EB701967C015C0197
S11305A0C12CD12C0E947D048D3051F00C151D05F9
S11305B054F0F50181935F01FFEFCF1ADF0AF2CF08
S11305C0CD2809F444C1F7018081803709F49FC024
S11305D0823709F03CC1EDB6FEB681E08983AE01F5
S11305E04F5F5F4FBE01645E7F4FCE018F5B9F4FB5
S11305F00E94350182E08983AE014F5F5F4FBE01E7
S1130600645E7F4FCE01C7960E94350183E02C962D
S11306108FAF2C97AE01455B5F4FBE01645E7F4F89
S1130620CE0101960E9435012DB73EB720563109FF
S11306300FB6F8943EBF0FBE2DBF0DB71EB70F5FA8
S11306401F4F8A851F928F9389858F9388858F93F7
S11306508F818F938E818F938D818F938C818F93D4
S11306608B818F938A818F9321968FAD21971F92CF
S11306708F938FAD8F938EAD8F938DAD8F938CAD04
S11306808F938BAD8F938AAD8F9389AD8F9388AD04
S11306908F932B968FAD2B971F928F932A968FADA6
S11306A02A978F9329968FAD29978F9328968FAD8C
S11306B028978F9327968FAD27978F9326968FAD84
S11306C026978F9325968FAD25978F9324968FAD7C
S11306D024978F9323968FAD23978F9387E091E090
S11306E09F938F931F930F930E946C068DB79EB7B1
S11306F082960FB6F8949EBF0FBE8DBFC8010E94AC
S113070034020FB6F894FEBE0FBEEDBEA0C081E069
S11307102C968FAF2C9760964CAE5DAE6EAE7FAECE
S1130720609764964CAE5DAE6EAE7FAE6497659690
S11307308FAF659722968FAF229726964CAE5DAE0B
S11307406EAE7FAE26972A964CAE5DAE6EAE7FAE91
S11307502A972B968FAF2B978FAB48AE59AE6AAEC4
S11307607BAE4CAE5DAE6EAE7FAE21968FAF219761
S11307706B969FAD6B979F936A96EFAD6A97EF93D5
S11307806796FFAD6797FF9366962FAD66972F9395
S113079069963FAD69973F9368968FAD68978F933D
S11307A06D969FAD6D979F936C96EFAD6C97EF939D
S11307B06F96FFAD6F97FF936E962FAD6E972F9345
S11307C0A1963FADA1973F93A0968FADA0978F932D
S11307D03F922F929F928F928BE490E08C0F9D1FFB
S11307E001969F938F938AE291E09F938F93FF9258
S11307F0EF920E948E06BE01655B7F4FCE0101968B
S11308000E94D501BE016F5B7F4FCE0101960E940D
S1130810D501BE01695C7F4FCE0101960E94D501CE
S1130820BE016F5F7F4FCE014C960E94EC00CE015B
S11308304C960E94E6008EE491E00E943402EDB7EB
S1130840FEB776960FB6F894FEBF0FBEEDBFA39623
S11308502EAD3FADA3970FB6F8943EBF0FBE2DBF8C
S113086085CE0E9426020E942F020E9457021F92E8
S11308700F920FB60F9211248F939F93AF93BF9350
S11308808091780190917901A0917A01B0917B01D6
S11308900196A11DB11D8093780190937901A093D5
S11308A07A01B0937B01BF91AF919F918F910F908B
S11308B00FBE0F901F9018958091E80080FFFCCF29
S11308C0089581E08093D70080EA8093D80082E184
S11308D089BD09B400FEFDCF80E98093D800109251
S11308E0E00010927F0110927C018CE08093E20082
S11308F07894089580917F0108959FB7F89480912A
S11309007F01882339F083E08093E9008091E80037
S113091085FD03C09FBF8FEF08958091F100209162
S1130920E80025FD03C02BE62093E8009FBF08954F
S11309309FB7F89480917F01882331F083E08093FE
S1130940E9008091F20001C080E09FBF089590917A
S11309507F01992309F19FB7F89424E02093E900DB
S113096020917D01222341F02091E80025FD02C061
S11309709FBF12C010927D012091E400275E34E0F5
S11309804091E80045FD13C09FBF9091E4002913F6
S113099005C081E080937D018FEF089590917F01E0
S11309A09923D1F39FB7F8943093E900E9CF80936A
S11309B0F1008091E80085FD03C08AE38093E8009C
S11309C085E080937E019FBF80E008951F920F927F
S11309D00FB60F9211248F939F938091E100109290
S11309E0E10083FF11C01092E90091E09093EB00C5
S11309F01092EC0092E19093ED0098E09093F00057
S1130A0010927F0110927C0182FF13C080917F01BC
S1130A10882379F080917E01882359F08150809356
S1130A207E01811106C084E08093E9008AE380930B
S1130A30E8009F918F910F900FBE0F901F90189513
S1130A401F920F920FB60F921124FF920F931F93D0
S1130A502F933F934F935F936F937F938F939F93C2
S1130A60AF93BF93CF93DF93EF93FF931092E9007B
S1130A708091E80083FF17C1F090F1008091F100AC
S1130A800091F1009091F10010E0192BC091F10058
S1130A909091F100D0E0D92B2091F1006091F10008
S1130AA092EF9093E800863009F049C088EB90E01B
S1130AB042EE50E0FC01A591B4910A171B07D9F44A
S1130AC0FC013296A591B491CA17DB07A1F4FC018D
S1130AD0349645915491FC013696849130E0362B3E
S1130AE02F3F310519F010F02FEF30E0281708F4EC
S1130AF0822F3EEF0CC0079648175907D9F6D3C08A
S1130B00490F511D891B3093E8008823A9F0909167
S1130B10E800292F2570D9F392FDC8C0982F8131A0
S1130B2008F090E1FA01292F222351F36491609394
S1130B30F10021503196F8CF903149F3B7C0853098
S1130B4049F48EEF8093E8000E945C0400680093EF
S1130B50E300ACC0893059F5F110A5C000937F01C2
S1130B6010927C0110927E018EEF8093E80041E0A8
S1130B7085E791E04093E9009C012F5F3F4FFC0122
S1130B8054915093EB00552359F0F901249120938B
S1130B90EC009C012D5F3F4F3196E491E093ED0012
S1130BA04F5F453011F0C901E5CF8EE177C0883041
S1130BB051F4F0E8FF1277C00E945C0480917F0139
S1130BC08093F10049C0813281F481EAF8126BC04C
S1130BD00E945C04E0E0F1E087E091E02191209341
S1130BE0F1008E179F07D1F737C08032A9F491E244
S1130BF0F91259C08091E80082FFFCCFE0E0F1E0F7
S1130C0087E091E02091F10021938E179F07D1F79F
S1130C108BEF8093E80020C0823241F4E1E2FE12BF
S1130C2042C000937C010E945C0416C0811118C06C
S1130C300E945C04F2E8FF120AC0C093E9008091AC
S1130C40EB0085FB882780F91092E90001C080E061
S1130C508093F1001092F1008EEF8093E80026C09B
S1130C60982F9D7F9130F9F492E0F9121CC0012B6A
S1130C70D1F4CF779FEF9C0F9430A8F49EEF90931C
S1130C80E800C093E900833071F089E18093EB00C0
S1130C9081E090E001C0880FCA95EAF78093EA00EA
S1130CA01092EA0003C081E28093EB00FF91EF9180
S1130CB0DF91CF91BF91AF919F918F917F916F9170
S1130CC05F914F913F912F911F910F91FF900F9042
S1130CD00FBE0F901F901895AEE0B0E0E2E7F6E08B
S1130CE00C94930C0D891E8986E08C831A830983E6
S1130CF08FEF9FE79E838D83AE01475E5F4F6F89C1
S1130D00788DCE0101960E94A706EF81F885E00F49
S1130D10F11F10822E96E4E00C94AF0CAEE0B0E02C
S1130D20E4E9F6E00C94950C85E08C838B899C892E
S1130D309A838983AE01495E5F4F6D897E89CE01B6
S1130D4001960E94240A2E96E2E00C94B10CABE0CA
S1130D50B0E0EDEAF6E00C94850C6C017B018A01AD
S1130D60FC0117821682838181FFCCC1CE010196DA
S1130D703C01F6019381F70193FD859193FF8191E5
S1130D807F01882309F4BAC1853239F493FD859132
S1130D9093FF81917F01853229F4B60190E00E948E
S1130DA09D0BE7CF912C212C312CFFE1F315D8F0CA
S1130DB08B3279F038F4803279F08332A1F4232D28
S1130DC020611DC08D3261F0803369F4232D2160D0
S1130DD016C0832D8260382EE32DE4603E2E2AC097
S1130DE0F32DF8601DC037FC2DC020ED280F2A30EC
S1130DF040F08E32B9F436FC81C1232D2064322EAA
S1130E0019C036FE06C08AE0989E200D1124922E49
S1130E1011C0EAE02E9E200D1124222EF32DF06243
S1130E203F2E08C08C3621F4832D8068382E02C0F2
S1130E30883641F4F70193FD859193FF81917F01F9
S1130E408111B3CF982F9F7D9554933028F40C5F74
S1130E501F4F9FE399830DC0833631F0833771F0C0
S1130E60833509F059C021C0F801808189830E5F60
S1130E701F4F88248394912C530113C02801F2E05E
S1130E804F0E511CF801A080B18036FE03C0692DBD
S1130E9070E002C06FEF7FEFC5010E94540B4C015C
S1130EA08201F32DFF773F2E16C0280122E0420E67
S1130EB0511CF801A080B18036FE03C0692D70E09A
S1130EC002C06FEF7FEFC5010E94490B4C01F32D67
S1130ED0F0683F2E820133FC1BC0822D90E08816FF
S1130EE09906B0F4B60180E290E00E949D0B2A942A
S1130EF0F4CFF50137FC859137FE81915F01B6018E
S1130F0090E00E949D0B21102A9421E0821A9108FE
S1130F108114910471F7E8C0843611F0893641F5E3
S1130F20F80137FE07C060817181828193810C5F73
S1130F301F4F08C060817181072E000C880B990B2C
S1130F400E5F1F4FF32DFF763F2E97FF09C090953C
S1130F508095709561957F4F8F4F9F4FF0683F2E1E
S1130F602AE030E0A3010E94F20B882E861845C0C7
S1130F70853731F4232D2F7EB22E2AE030E025C0B0
S1130F80932D997FB92E8F36C1F018F4883579F0F6
S1130F90B5C0803719F0883721F0B0C0E92FE0617F
S1130FA0BE2EB4FE0DC0FB2DF460BF2E09C034FE6E
S1130FB00AC0292F2660B22E06C028E030E005C002
S1130FC020E130E002C020E132E0F801B7FE07C0C2
S1130FD060817181828193810C5F1F4F06C06081A3
S1130FE0718180E090E00E5F1F4FA3010E94F20B1D
S1130FF0882E8618FB2DFF773F2E36FE0DC0232D3D
S11310002E7FA22E891458F434FE0BC032FC09C082
S1131010832D8E7EA82E05C0B82CA32C03C0B82C1B
S113102001C0B92CA4FE0FC0FE01E80DF11D8081A2
S1131030803321F49A2D997EA92E09C0A2FE06C000
S1131040B394B39404C08A2D867809F0B394A3FCB6
S113105011C0A0FE06C0B21488F4280C922C9B1870
S11310600EC0B21460F4B60180E290E00E949D0BC1
S1131070B394F7CFB21418F42B1802C0982C212C77
S1131080A4FE10C0B60180E390E00E949D0BA2FE76
S113109017C0A1FC03C088E790E002C088E590E097
S11310A0B6010CC08A2D867859F0A1FE02C08BE2ED
S11310B001C080E2A7FC8DE2B60190E00E949D0B86
S11310C0891438F4B60180E390E00E949D0B9A9451
S11310D0F7CF8A94F301E80DF11D8081B60190E009
S11310E00E949D0B8110F5CF222009F442CEB60157
S11310F080E290E00E949D0B2A94F6CFF60186814F
S1131100978102C08FEF9FEF2B96E2E10C94A10C24
S113111020FD09C0FC0123FD05C022FF02C073832A
S1131120628351834083089544FD17C046FD17C070
S1131130AB01BC01DA01FB01AA0FBB1FEE1FFF1FAD
S11311401094D1F74A0F5B1F6E1F7F1FCB01BA01AA
S1131150660F771F881F991F09C033E001C034E070
S1131160660F771F881F991F3150D1F7620F711DC9
S1131170811D911D08950F931F93CF93DF938C01CD
S1131180C8010E945F0BEC0197FD08C00E94350B5B
S1131190892BB1F7B801CE010E94D90BCE01DF91A2
S11311A0CF911F910F9108958F929F92AF92BF920A
S11311B0EF92FF920F931F93CF93DF938C01D62F5F
S11311C07A01B22E0E945F0B9C0133272B3231052A
S11311D031F02D32310561F48B2D8068B82ED15059
S11311E011F480E068C0C8010E945F0B97FDF9CF3D
S11311F0CB2DCD7F2B2D207309F58033F9F4AA2450
S1131200AA94AD0E09F443C0C8010E945F0B97FD78
S11312103EC09C012F7D33272835310549F4C26433
S1131220D250A9F1C8010E945F0B97FF07C02FC0DD
S1131230B6FE02C0C26001C0C261DA2D812C912CBD
S1131240540120ED280F283080F0C4FF04C0B801F9
S11312500E94D90B19C02A3040F0C6FFF8CF2F7D69
S11312603FEE320F363098F727504C2FC501B401AA
S11312700E9494084B015C01C260D15059F0C8012E
S11312800E945F0B97FFDDCFC1FD04C0AACF812C64
S1131290912C5401C7FF08C0B094A09490948094FA
S11312A0811C911CA11CB11C2C2FB501A401C701E8
S11312B00E94880881E0DF91CF911F910F91FF90E8
S11312C0EF90BF90AF909F908F900895A0E2B0E010
S11312D0ECE6F9E00C94880C5C01962E7A01F90195
S11312E08E010F5F1F4F680180E2D8011D928A951D
S11312F0E9F7D50113968C9080E090E0612C712C75
S113130030E061E070E083FC259183FE21918F0140
S1131310522E211103C080E090E092C02E3511F4CA
S1131320009751F1432F50E0481759073CF42D35ED
S113133059F12D3219F4772009F103C0772009F40B
S11313406AC0452D469546954695D601A40FB11D14
S1131350452D47708B0102C0000F111F4A95E2F71B
S1131360A8015C91452B4C93651459F0561410F464
S11313705394E7CF5A94E5CF31E004C077247394B3
S113138001C0712C0196BFCF772019F08E81806245
S11313908E83311103C08824839417C0F6019E0103
S11313A02F5D3F4F8081809581932E173F07D1F7A2
S11313B0F2CFE114F10429F0D7018C93F7013196AF
S11313C07F019A94812C9920F9F0C5010E945F0B4A
S11313D097FD18C0FC01FF2723E0F595E7952A95B2
S11313E0E1F7EC0DFD1D208130E0AC01477055277D
S11313F002C0359527954A95E2F720FDDACFB5016D
S11314000E94D90B811087CFE114F10411F0D701A8
S11314101C92C80115C0422F469546954695D601A3
S1131420A40FB11D422F47708B0102C0000F111F82
S11314304A95E2F7A8015C91452B4C93622EA2CF0A
S1131440A096EFE00C94A40CA0E0B0E0EAE2FAE08D
S11314500C94880C6C01EB015A01FC011782168272
S1131460512CF601E380FE01E3FC8591E3FE8191BA
S1131470182FEF01882309F4EEC090E00E94350B89
S1131480892B21F0C6010E94BB08EBCF153241F431
S1131490FE01E3FC1591E3FE1191EF01153281F495
S11314A0C6010E945F0B97FDD4C0412F50E09C0100
S11314B0332724173507A9F2B6010E94D90BCBC0F4
S11314C01A3239F4E3FC1591E3FE1191EF0101E0C6
S11314D001C000E0F12C20ED210F2A3080F40260DD
S11314E06F2D70E080E090E040E20E949408F62EB8
S11314F0FE01E3FC1591E3FE1191EF01ECCF01FF36
S113150003C0F11003C0A7C0FF24FA94183619F0E1
S11315101C3651F010C0FE01E3FC1591E3FE11915D
S1131520EF01183641F408600460FE01E3FC1591F4
S1131530E3FE1191EF01112309F48DC0612F70E0D6
S11315408CEA90E00E943E0B892B09F484C000FDD4
S113155007C0F50180809180C50102965C0102C03C
S1131560812C912C1E3651F4F6014681578160E09E
S113157070E0202FC4010E94880873CF1336A9F4A9
S113158001FD02C0FF24F394C6010E945F0B97FD86
S113159060C08114910429F0F4018083C401019690
S11315A04C01FA94F110F0CF50C01B3559F49E0150
S11315B0A4016F2DC6010E946609EC01892B09F074
S11315C044C03EC0C6010E94BB0897FD42C01F36FE
S11315D061F128F4143639F1193651F128C0133762
S11315E071F0153701F123C08114910429F0F4013D
S11315F06082C40101964C01FA94FF2071F0C60187
S11316000E945F0B3C0197FD08C00E94350B892B9B
S113161059F3B601C3010E94D90B81149104A9F0B6
S1131620F401108212C0006203C0006101C00064B2
S1131630202FA4016F2DC6010E94D408811105C07A
S1131640F6018381807329F406C000FD0ACF539408
S113165008CF552019F0852D90E002C08FEF9FEF41
S1131660CDB7DEB7EFE00C94A40C91110C94500CA0
S1131670803219F089508550C8F70895FC0105900F
S1131680061621F00020D9F7C00108953197CF0143
S11316900895FC010590615070400110D8F78095C1
S11316A090958E0F9F1F0895FC016150704001902A
S11316B00110D8F7809590958E0F9F1F0895CF93B2
S11316C0DF93EC012B8120FF33C026FF0AC02F7B60
S11316D02B838E819F8101969F838E838A8190E0E4
S11316E029C022FF0FC0E881F9818081082E000CF7
S11316F0990B009719F420622B831AC03196F98351
S1131700E8830EC0EA85FB85099597FF09C02B8104
S1131710019611F080E201C080E1822B8B8308C026
S11317202E813F812F5F3F4F3F832E83992702C035
S11317308FEF9FEFDF91CF9108950F931F93CF9376
S1131740DF93FB01238121FD03C08FEF9FEF2CC0AA
S113175022FF16C0468157812481358142175307E1
S113176044F4A081B1819D012F5F3F4F31832083D9
S11317708C93268137812F5F3F4F3783268314C094
S11317808B01EC01FB010084F185E02D0995892B87
S1131790E1F6D80116968D919C91179701961796AC
S11317A09C938E931697CE01DF91CF911F910F9149
S11317B00895FB01238120FF12C026FD10C08F3F36
S11317C03FEF930761F082832F7D2064238326817A
S11317D037812150310937832683992708958FEF64
S11317E09FEF0895FA01AA27283051F1203181F1A1
S11317F0E8946F936E7F6E5F7F4F8F4F9F4FAF4F15
S1131800B1E03ED0B4E03CD0670F781F891F9A1F27
S1131810A11D680F791F8A1F911DA11D6A0F711DDB
S1131820811D911DA11D20D009F468943F912AE0E7
S1131830269F11243019305D3193DEF6CF010895CF
S1131840462F4770405D4193B3E00FD0C9F7F6CF00
S1131850462F4F70405D4A3318F0495D31FD4052C8
S1131860419302D0A9F7EACFB4E0A695979587955E
S113187077956795BA95C9F700976105710508953D
S11318809B01AC010A2E06945795479537952795E9
S1131890BA95C9F7620F731F841F951FA01D089581
S11318A0992788270895DC01CB01FC01F999FECF23
S11318B006C0F2BDE1BDF89A319600B40D924150D4
S11318C05040B8F70895DC01A40FB51F41505040B3
S11318D048F0CB01840F951F2E910E94740C415047
S11318E05040D0F70895262FF999FECF92BD81BDBF
S11318F0F89A019700B4021639F01FBA20BD0FB64A
S1131900F894FA9AF99A0FBE08952F923F924F9243
S11319105F926F927F928F929F92AF92BF92CF927B
S1131920DF92EF92FF920F931F93CF93DF93CDB784
S1131930DEB7CA1BDB0B0FB6F894DEBF0FBECDBFFC
S113194009942A88398848885F846E847D848C84CD
S11319509B84AA84B984C884DF80EE80FD800C81D6
S11319601B81AA81B981CE0FD11D0FB6F894DEBFB9
S10F19700FBECDBFED010895F894FFCF29
S113197C00E10000000008256C642C256C642C2507
S113198C643B256C642C256C642C25643B256C64AD
S113199C2C256C642C25643B0D00703B256C642C4D
S11319AC256C642C25643B256C642C256C642C25DB
S11319BC643B256C642C256C642C25643B00730DF2
S11319CC0048656C6C6F20746869732069732061BE
S11319DC20737472696E670A00596F7520656E7492
S10B19EC657265643A200000F5
S9030000FC
