S01C000054426F617264436F6E74726F6C6C6572526576322E7372656349
S11300000C94C3000C94EB000C94EB000C94EB00E8
S11300100C94EB000C94EB000C94EB000C94EB00B0
S11300200C94EB000C94EB000C9422120C945C12D4
S11300300C94EB000C94EB000C94EB000C94EB0090
S11300400C94EB000C9427110C94EB000C94EB0033
S11300500C94EB000C94EB000C94EB000C94EB0070
S11300600C94EB000C94EB000C94EB000C94EB0060
S11300700C94EB000C94EB000C94EB000C94EB0050
S11300800C94EB000C94EB000C94EB000C94EB0040
S11300900C94EB000C94EB000C94EB000C94EB0030
S11300A00C94EB000C94EB000C94EB006364696E0D
S11300B06F70737578585B000001000063011200D3
S11300C0020000200143000300001C010401030995
S11300D004F8002202030904EC000A03030904E201
S11300E00008080334003100300000000A03530004
S11300F04500540069000000220341006E006400C2
S1130100720065007700200045006C006D006500FA
S11301106E0064006F0072006600000004030904AE
S113012009024300020100C0320904000001020276
S11301300100052400100105240101010424020624
S1130140052406000107058203100040090401008C
S1130150020A0000000705030240000007058402AC
S11301604000001201000202000010C0167A0400D0
S113017001010203010001C1120180360181360030
S11301805A03C603D90311241FBECFEFDAE0DEBF42
S1130190CDBF11E0A0E0B1E0E8EBF8E302C00590C8
S11301A00D92AA36B107D9F723E0AAE6B1E001C05F
S11301B01D92A134B207E1F710E0C2ECD0E004C014
S11301C02197FE010E94E115C03CD107C9F70E94A6
S11301D0B7030C944F1C0C94000008950F931F93C5
S11301E0FC0171836083DA018C918283038314831D
S11301F0258336831F910F910895CF92DF92EF925A
S1130200FF921F93CF93DF93EC01162FCB80DC80FA
S1130210ED80FE8020E030E0A901C701B6010E9414
S1130220151418167CF0E881F981208181E090E0B2
S11302300A8002C0880F991F0A94E2F780958223EE
S113024080836AC020E030E040E051E4C701B60199
S11302500E94741520E030E040EA50E40E941A1431
S11302609B01AC0160E070E084E092E40E94A8137A
S11302700E948C14112391F0E881F981208181E09E
S113028090E00A8002C0880F991F0A94E2F78095D3
S1130290822380832AE12A95F1F700C080E090E070
S11302A0A1E0B0E08617970704F5E881F981408161
S11302B09D010A8002C0220F331F0A94E2F7242B07
S11302C020832AE12A95F1F700C0E881F981308181
S11302D0AD010A8002C0440F551F0A94E2F7242F8F
S11302E02095232320830196DDCF8AE18A95F1F7B7
S11302F000C0E881F981208181E090E00A8002C099
S1130300880F991F0A94E2F7822B808387E092E09A
S11303100197F1F700C00000DF91CF911F91FF908A
S1130320EF90DF90CF900895CF92DF92EF92FF92FB
S11303301F93CF93DF93EC01142FFB01C080D18076
S1130340E280F38020E030E0A901C701B6010E94F9
S1130350151418167CF0E881F981208181E090E081
S11303600A8002C0880F991F0A94E2F780958223BD
S113037080836AC020E030E040E051E4C701B60168
S11303800E94741520E030E040EA50E40E941A1400
S11303909B01AC0160E070E084E092E40E94A81349
S11303A00E948C14112391F0E881F981208181E06D
S11303B090E00A8002C0880F991F0A94E2F78095A2
S11303C082238083FAE1FA95F1F700C080E090E09F
S11303D0A1E0B0E08617970704F5E881F981408130
S11303E09D010A8002C0220F331F0A94E2F7242BD6
S11303F020832AE12A95F1F700C0E881F981308150
S1130400AD010A8002C0440F551F0A94E2F7242F5D
S11304102095232320830196DDCF8AE18A95F1F785
S113042000C0E881F981208181E090E00A8002C067
S1130430880F991F0A94E2F7822B8083E7E0F2E0A9
S11304403197F1F700C00000DF91CF911F91FF9029
S1130450EF90DF90CF900895DC01ED91FC9111971E
S1130460408121E030E0B90112960C9002C0660F81
S1130470771F0A94E2F7CB01809584238083089543
S11304800895089508954FE150E060E070E00C9401
S1130490CE1B4FE150E060E070E00C94DE1BFC01E9
S11304A0DB014D915D916D917C9113974083518354
S11304B06283738314964D915D916D917C9117972E
S11304C0448355836683778318964D915D916D912E
S11304D07C911B9740875187628773871C968C9108
S11304E01C9784871D964D915D916D917C915097D9
S11304F0458756876787708B51964D915D916D91B5
S11305007C915497418B528B638B748B55968C9151
S11305105597858B56964D915D916D917C91599728
S1130520468B578B608F718F5A964D915D916D916B
S11305307C915D97428F538F648F758F5E968C91FB
S1130540868F0895FC01DB014D915D916D917C9145
S11305501397408351836283738314964D915D9105
S11305606D917C911797448355836683778318969E
S11305704D915D916D917C911B9740875187628766
S113058073871C968C911C9784871D964D915D9161
S11305906D917C915097458756876787708B5196EC
S11305A04D915D916D917C915497418B528B638BEE
S11305B0748B55968C915597858B56964D915D917C
S11305C06D917C915997468B578B608F718F5A969A
S11305D04D915D916D917C915D97428F538F648FA6
S11305E0758F5E968C91868FCF010895FC011082E1
S11305F01182128213820895FC01108211821282E8
S1130600138244E050E06FE170E00C94001C0F93FF
S11306101F93CF93DF93EC018B0144E050E06FE133
S113062070E0C8010E94CE1BF8018081888381811B
S1130630898382818A8383818B83CE01DF91CF91E9
S11306401F910F910895FC0120812F5F208341E0C9
S113065050E06FE170E00C94DE1BFC016F5F7F4F94
S11306606230710581F063307105B9F06130710554
S1130670F9F481818F5F818341E050E060E270E0B2
S1130680CF01019613C082818F5F828341E050E0E5
S113069061E270E0CF01029609C083818F5F83839A
S11306A041E050E062E270E0CF0103960C94DE1B5F
S11306B008950895EFE1F0E010821182128213820E
S11306C00895CF93DF93EC01FB0180818230E9F040
S11306D0833099F1813009F047C081819281A381EF
S11306E0B4818C839D83AE83BF8385819681A781EA
S11306F0B08588879987AA87BB876185728583853A
S113070094850E9493146C872FC081819281A38168
S1130710B4818D879E87AF87B88B85819681A781A9
S1130720B085898B9A8BAB8BBC8B618572858385F5
S113073094850E9493146D8B17C081819281A3814B
S1130740B4818E8B9F8BA88FB98F85819681A78169
S1130750B0858A8F9B8FAC8FBD8F618572858385B1
S113076094850E9493146E8FDF91CF9108958CEA43
S113077091E00E947B058CEA91E00E944C088CEA8F
S113078091E00E94630881E090E00895CF93DF93A5
S11307908CEA91E00E94A604CAE6D1E0CE010E9450
S11307A0B8102B9681E0CC3AD807C1F7DF91CF91EE
S11307B00895CF93DF93CCEAD1E02B97CE010E942A
S11307C0EE1081E0CA36D807C1F78CEA91E0DF91D8
S11307D0CF910C94E50485B1806785B92E9808956E
S11307E085B1806785B92D98089585B1806785B9ED
S11307F02C9808950C94EF0F805C9F4F0C94EF0F8E
S113080080589F4F0C94EF0FFC0181E0808381E0BE
S113081090E0A0E0B0E081839283A383B4838583D6
S11308209683A783B08780E090E0A0E8BFE3818748
S11308309287A387B48708954F925F926F927F92B5
S11308408F929F92AF92BF92DF92EF92FF920F939B
S11308501F93CF93DF93CDB7DEB72D970FB6F894E0
S1130860DEBF0FBECDBF8C017B01D42E82E04817C2
S1130870A9F0E3E04E1709F1F1E0CE0101964F1320
S11308803EC00E940404F70180849184A284B3844E
S1130890448055806680778064851DC0CE010196B2
S11308A00E940404F70181889288A388B48845844F
S11308B056846784708865890EC0CE0101960E94B3
S11308C00404F701828C938CA48CB58C46885788D9
S11308D0608C718C668D70E080E090E00E94C214A0
S11308E0F801D08241825282638274828582968228
S11308F0A782B086618772878387948710C00E941D
S11309000404F801D08211821282138214821582A7
S11309101682178210861186128613861486C801E1
S11309202D960FB6F894DEBF0FBECDBFDF91CF91E9
S11309301F910F91FF90EF90DF90BF90AF909F9029
S11309408F907F906F905F904F900895EF92FF92F9
S11309500F931F93CF93DF93EC010E94C20ECE013D
S1130960805C9F4F0E94C20ECE0180589F4F0E9410
S1130970C20E8E0100541F4F7E018EEFE81AF80A52
S1130980C8010E94B810055F1F4F0E151F05C1F75F
S1130990C8010E944102CE018F5D9E4F0E94F60263
S11309A0CE018B5D9E4F0E944C11CE01805B9E4F09
S11309B00E94EF10CE018C5A9E4FDF91CF911F9170
S11309C00F91FF90EF900C94EF10EF92FF920F9322
S11309D01F93CF93DF938C018C5A9E4F0E940B116F
S11309E0C801805B9E4F0E940B11C8018B5D9E4F16
S11309F00E949711C8018F5D9E4F0E945903780190
S1130A008EEFE81AF80AC7010E944202E801C054B6
S1130A10DF4F51F0EC16FD0639F08BE0E81AF108CF
S1130A20C7010E94EE10F6CF0115110549F0C01759
S1130A30D10731F0C054D109CE010E94A510F7CFDF
S1130A40DF91CF911F910F91FF90EF900895CF9375
S1130A50DF93EC018CE0FB01DE0101900D928A959D
S1130A60E1F78CE0FB013C96DE011C9601900D92AF
S1130A708A95E1F78CE0FB017896DE0158960190A7
S1130A800D928A95E1F7FB0184A18CA387E0B596CA
S1130A90DE01959601900D928A95E1F7FB0184A5FC
S1130AA08CA785A58DA786A58EA787A590A9A1A9A2
S1130AB0B2A98FA798ABA9ABBAAB83A994A9A5A9EE
S1130AC0B6A98BAB9CABADABBEAB87A990ADA1ADCA
S1130AD0B2AD8FAB98AFA9AFBAAF83AD8BAF84ADD6
S1130AE095ADA6ADB7AD8CAF9DAFAEAFBFAFCE01E8
S1130AF0DF91CF910895DF92EF92FF920F931F93AE
S1130B00CF93DF93CDB7DEB7CE54D1090FB6F894A7
S1130B10DEBF0FBECDBF8C0185B7806885BF85B7AA
S1130B20806885BFE1E6F0E080E88083108284B1CC
S1130B30806784B985B1806785B98AB1806C8AB9C8
S1130B408BB1806C8BB93E9A469A8D9A85983F9A60
S1130B508AB183608AB985B1876085B920988BB1E1
S1130B608C628BB98AB1837D8AB97894B801605B51
S1130B707E4FFB01108231961082C8018C5A9E4F21
S1130B800E94F5107801FEEFEF1AFF0AC7010E94D8
S1130B904302C8018F5D9E4F0E94FC02B701CE0143
S1130BA001960E94A20278018FECE81A8EEFF80AEF
S1130BB089819A81AB81BC81F70180839183A2836F
S1130BC0B3838D819E81AF81B88584839583A68309
S1130BD0B78389859A85AB85BC8580879187A287F1
S1130BE0B3878D8584878E859F85A889B9898587F4
S1130BF09687A787B08B8A899B89AC89BD89818BAD
S1130C00928BA38BB48B8E89858B8F89988DA98DBC
S1130C10BA8D868B978BA08FB18F8B8D9C8DAD8D6C
S1130C20BE8D828F938FA48FB58F8F8D868FB701E2
S1130C30CE0101960E945211D801AB5DBE4F8CE0EB
S1130C40FE01319601900D928A95E1F7CE0101964D
S1130C500E94971187E02F968FAF2F9741E0B7013D
S1130C60CE018F5B9F4F0E941C049E01225B3F4F6D
S1130C7048E250E0BE016F5B7F4FCE0101960E94B7
S1130C80F80EBE016F5F7F4FC8010E942705CE0199
S1130C9001960E94A510DD24D3942F96DFAE2F97E2
S1130CA042E0B701CE018F5B9F4F0E941C049E015E
S1130CB0225B3F4F4BE250E0BE016F5B7F4FCE01A2
S1130CC001960E94F80EBE016F5F7F4FC801805CE1
S1130CD09F4F0E942705CE0101960E94A5102F96D2
S1130CE01FAE2F9743E0B701CE018F5B9F4F0E9449
S1130CF01C049E01225B3F4F4BE250E0BE016F5B40
S1130D007F4FCE0101960E94F80EBE016F5F7F4FA8
S1130D10C80180589F4F0E942705CE0101960E946A
S1130D20A51022961FAE229720E0AE014F5B5F4FC5
S1130D3063E270E0CE0101960E94B910D801A0547C
S1130D40BF4F8BE0FE01319601900D928A95E1F739
S1130D50CE0101960E94EE102296DFAE229720E08B
S1130D60AE014F5B5F4F63E270E0CE0101960E94DB
S1130D70B910D801A553BF4F8BE0FE013196019005
S1130D800D928A95E1F7CE0101960E94EE1082E061
S1130D90F82E2296FFAE229720E0AE014F5B5F4F04
S1130DA063E270E0CE0101960E94B910D801AA5204
S1130DB0BF4F8BE0FE01319601900D928A95E1F7C9
S1130DC0CE0101960E94EE1085E022968FAF229705
S1130DD020E0AE014F5B5F4F69E270E0CE01019607
S1130DE00E94B910D801AF51BF4F8BE0FE0131967C
S1130DF001900D928A95E1F7CE0101960E94EE10C2
S1130E0083E022968FAF229720E0AE014F5B5F4FC5
S1130E1069E270E0CE0101960E94B910D801A45194
S1130E20BF4F8BE0FE01319601900D928A95E1F758
S1130E30CE0101960E94EE102296FFAE229720E08A
S1130E40AE014F5B5F4F69E270E0CE0101960E94F4
S1130E50B910D801A950BF4F8BE0FE013196019023
S1130E600D928A95E1F7CE0101960E94EE10F801E9
S1130E70E75AFE4F84ED98E0918380833296118285
S1130E801082329683E79CE09183808332961182AC
S1130E90108232968AEF93E0918380833296118296
S1130EA0108232968CEF93E0918380833296118284
S1130EB01082329680E094E091838083329611828E
S1130EC0108232968CE899E0918380833296118265
S1130ED01082329684E39AE0918380833296118261
S1130EE01082329686EB9AE0918380833296118247
S1130EF0108232968CE39BE0918380833296118238
S1130F001082329686EC9BE0918380833296118224
S1130F10108232968BEE93E0918380833296118215
S1130F201082329680EF93E091838083329611820F
S1130F301082329685EF93E09183808332961182FA
S1130F4010820E949D110E940C11C25BDF4F0FB6EC
S1130F50F894DEBF0FBECDBFDF91CF911F910F91EB
S1130F60FF90EF90DF9008950F931F93CF93DF933B
S1130F708C0100541F4FC0E0D0E0C8010E94C6108D
S1130F80C8010E94EB10882329F0C8010E94E810D0
S1130F90CE010EC08FE99FE00197F1F700C0000079
S1130FA02196055F1F4FC330D10539F78FEF9FEFAF
S1130FB0DF91CF911F910F9108950F931F93CF93BA
S1130FC0DF938C010F511F4FC3E0D0E0C8010E9492
S1130FD0C610C8010E94EB10882329F0C8010E94A2
S1130FE0E810CE010EC08FE99FE00197F1F700C031
S1130FF000002196055F1F4FC630D10539F78FEFEA
S11310009FEFDF91CF911F910F9108956430710587
S113101059F06530710569F063307105A9F4FC017C
S1131020EA5AFE4F22E009C0FC01EA5AFE4F23E0CF
S113103004C0FC01EA5AFE4F24E020833197108259
S113104032961082339710820895CF93DF936130E4
S1131050710551F06230710599F0672BD1F4FC01F0
S1131060EA5AFE4F108205C0FC01EA5AFE4F21E005
S1131070208331971082329610823397108209C0F0
S1131080EC010E94DD07BC01CE01DF91CF910C94ED
S11310900608DF91CF910895CF93DF93EC010E946E
S11310A0B407BC01CE010E942508BE016C5A7E4FD4
S11310B0CE01805B9E4F0E94F510CD5ADE4F188200
S11310C0DF91CF910895EC017C018CEAE81A8EEF50
S11310D0F80A6E0190EBC91A9EEFD90A8E010E5AD6
S11310E01E4FCE010E94B407BC01CE010E94250808
S11310F0B701C6010E940111F801882329F18081FA
S1131100FE0194E0899FE00DF11D1124DF01A15936
S1131110BE4F2D913C91E359FE4FC901959587959A
S113112020FF0AC0DE01A80FB91F4D915C912081F8
S11311303181FA01E20FF31F0190F081E02D61E0AB
S11311408C0F9D1F0995CDCF8081FE0194E0899F6E
S1131150E00DF11D1124DF01A55ABE4F2D913C91E4
S1131160E75AFE4FC9019595879520FF0AC0DE0115
S1131170A80FB91F4D915C9120813181FA01E20FD2
S1131180F31F0190F081E02D8C0F9D1F0995A9CFCD
S11311908BB1806C8BB9469A469808958BB1806C5C
S11311A08BB9469A5F9808956F927F928F929F921F
S11311B0AF92BF92CF92DF92EF92FF920F931F9361
S11311C0CF93DF93EC015C018FEAA81A8EEFB80A83
S11311D0D5018C91882321F0833009F45EC08DC041
S11311E06E017E01BFE7EB1ABEEFFB0A812C912C46
S11311F000E010E03E01EFED6E1AEEEF7E0AC6014C
S11312000E94EF0F8823C9F0D70112962D913C91CB
S11312101397ED91FC91C9019595879520FF0AC01C
S1131220DE01A80FB91F2D913C91E20FF31F01902D
S1131230F081E02D8C0F9D1F0995C6010E94A2101C
S1131240882339F0BFEF8B1A9B0AB801C3010E94AF
S11312502D030F5F1F4FE0E4CE0ED11CF4E0EF0E20
S1131260F11C0330110559F683E08816910409F046
S113127044C083E0D5018C93CE01DF91CF911F91BF
S11312800F91FF90EF90DF90CF90BF90AF909F9021
S11312908F907F906F900C94CE088E010B5D1E4F43
S11312A0C8010E946D11882341F1CE018F5D9E4FCC
S11312B00E942303C8010E945D11F5011082CE0132
S11312C00E94C808CE010E94E30FCE01805C9F4FAC
S11312D00E94E30FCE0180589F4FDF91CF911F9161
S11312E00F91FF90EF90DF90CF90BF90AF909F90C1
S11312F08F907F906F900C94E30FDF91CF911F91AB
S11313000F91FF90EF90DF90CF90BF90AF909F90A0
S11313108F907F906F9008950F931F93CF93DF93D7
S1131320EC01662399F1613009F08CC00E9496109B
S1131330CE01805C9F4F0E949610CE0180589F4F33
S11313400E949610CE010E94CE08FE01EA5AFE4F7A
S11313508081FE0194E0899FE00DF11D1124DF01DD
S1131360A159BE4F2D913C91E359FE4FC90195956A
S1131370879520FF5CC0DE01A80FB91F4D915C91D9
S113138020813181FA01E20FF31F51C0BC016C5A74
S11313907E4F8C01005B1E4FC8010E94F51081E056
S11313A0FE01ED5AFE4F8083F801108231961082BF
S11313B0CE018B5D9E4F0E945D11CE010E94C80834
S11313C0CE010E94E30FCE01805C9F4F0E94E30F89
S11313D0CE0180589F4F0E94E30FFE01EE5AFE4F4C
S11313E08081FE0194E0899FE00DF11D1124DF014D
S11313F0A55ABE4F2D913C91E75AFE4FC9019595D0
S1131400879520FF0AC0DE01A80FB91F4D915C919A
S113141020813181FA01E20FF31F0190F081E02D68
S11314208C0F9D1FDF91CF911F910F910994019013
S1131430F081E02D60E08C0F9D1FDF91CF911F9113
S11314400F910994DF91CF911F910F91089585B168
S1131450806785B98BB1806C8BB9469A08958BB13E
S1131460806C8BB9469A08950F931F93CF93DF93A3
S1131470EC01662321F0613009F443C072C0BC0161
S11314806C5A7E4F8C01005B1E4FC8010E94F51000
S113149081E0FE01ED5AFE4F8083F80110820E9424
S11314A09D11CE010E94CE08CE010E94F503FE01DB
S11314B0EE5AFE4F8081FE0194E0899FE00DF11DFC
S11314C01124DF01A55ABE4F2D913C91E75AFE4FDE
S11314D0C9019595879520FF0AC0DE01A80FB91FA1
S11314E04D915C9120813181FA01E20FF31F01904B
S11314F0F081E02D8C0F9D1FDF91CF911F910F91F3
S113150009940E94270ACE010E942F0AFE01EA5A7A
S1131510FE4F8081FE0194E0899FE00DF11D1124AE
S1131520DF01A159BE4F2D913C91E359FE4FC901F2
S11315309595879520FF0AC0DE01A80FB91F4D912C
S11315405C9120813181FA01E20FF31F0190F08157
S1131550E02D60E08C0F9D1FDF91CF911F910F91C3
S11315600994DF91CF911F910F9108950F931F93C9
S1131570CF93DF93EC01662321F0613009F444C07A
S113158076C0BC016C5A7E4F8C01005B1E4FC801B3
S11315900E94F51081E0FE01ED5AFE4F8083F801B0
S11315A01082CE010E94C808CE010E94EB03CE0136
S11315B00E947B10FE01EE5AFE4F8081FE0194E0F2
S11315C0899FE00DF11D1124DF01A55ABE4F2D9115
S11315D03C91E75AFE4FC9019595879520FF0AC0B3
S11315E0DE01A80FB91F4D915C9120813181FA0170
S11315F0E20FF31F0190F081E02D8C0F9D1FDF910E
S1131600CF911F910F9109940E949610CE010E94D0
S1131610CE08CE010E942F0AFE01EA5AFE4F8081B5
S1131620FE0194E0899FE00DF11D1124DF01A15911
S1131630BE4F2D913C91E359FE4FC9019595879575
S113164020FF0AC0DE01A80FB91F4D915C912081D3
S11316503181FA01E20FF31F0190F081E02D60E087
S11316608C0F9D1FDF91CF911F910F910994DF91F2
S1131670CF911F910F9108950F931F93CF93DF93F1
S1131680EC01662321F0613009F446C07AC0BC0144
S11316906C5A7E4F8C01005B1E4FC8010E94F510EE
S11316A081E0FE01ED5AFE4F8083F8011082CE01E5
S11316B00E94C808CE010E94F003CE01805C9F4FB7
S11316C00E947B10FE01EE5AFE4F8081FE0194E0E1
S11316D0899FE00DF11D1124DF01A55ABE4F2D9104
S11316E03C91E75AFE4FC9019595879520FF0AC0A2
S11316F0DE01A80FB91F4D915C9120813181FA015F
S1131700E20FF31F0190F081E02D8C0F9D1FDF91FC
S1131710CF911F910F910994805C9F4F0E94961066
S1131720CE010E94CE08CE010E942F0AFE01EA5A81
S1131730FE4F8081FE0194E0899FE00DF11D11248C
S1131740DF01A159BE4F2D913C91E359FE4FC901D0
S11317509595879520FF0AC0DE01A80FB91F4D910A
S11317605C9120813181FA01E20FF31F0190F08135
S1131770E02D60E08C0F9D1FDF91CF911F910F91A1
S11317800994DF91CF911F910F9108950F931F93A7
S1131790CF93DF93EC01662321F0613009F446C056
S11317A07AC0BC016C5A7E4F8C01005B1E4FC8018D
S11317B00E94F51081E0FE01ED5AFE4F8083F8018E
S11317C01082CE010E94C808CE010E94F503CE010A
S11317D080589F4F0E947B10FE01EE5AFE4F80817D
S11317E0FE0194E0899FE00DF11D1124DF01A55A4B
S11317F0BE4F2D913C91E75AFE4FC90195958795AF
S113180020FF0AC0DE01A80FB91F4D915C91208111
S11318103181FA01E20FF31F0190F081E02D8C0F6A
S11318209D1FDF91CF911F910F91099480589F4F75
S11318300E949610CE010E94CE08CE010E942F0A6B
S1131840FE01EA5AFE4F8081FE0194E0899FE00D7B
S1131850F11D1124DF01A159BE4F2D913C91E35993
S1131860FE4FC9019595879520FF0AC0DE01A80F98
S1131870B91F4D915C9120813181FA01E20FF31F70
S11318800190F081E02D60E08C0F9D1FDF91CF91DE
S11318901F910F910994DF91CF911F910F9108959A
S11318A0EF92FF920F931F93CF93DF938B01FB0172
S11318B001900020E9F73197EF01C61BD70B7B019C
S11318C0C701801B910B8C179D0734F4F70181919C
S11318D07F010E94E311F4CFDF91CF911F910F910B
S11318E0FF90EF9008952F923F924F925F926F92E4
S11318F07F928F929F92AF92BF92CF92DF92EF929C
S1131900FF920F931F93CF93DF93CDB7DEB7CE55DE
S1131910D1090FB6F894DEBF0FBECDBF3C012DB781
S11319203EB76D963FAF2EAF6D9785539F4F2C01F9
S11319300E94B611882309F4FAC1FE01B9962D96C6
S1131940FFAFEEAF2D979E012B5D3F4F2F963FAF1C
S11319502EAF2F97CE01819661969FAF8EAF619780
S11319603D966396FFAFEEAF6397235F3F4F659657
S11319703FAF2EAF65978AE390E08C0F9D1F0996C9
S113198069969FAF8EAF69974E0197E4890E911CBB
S11319901301EEEF2E1A3E0A83010F5C1E4F9301D2
S11319A02F5D3E4F6F963FAF2EAF6F97C2010E94DF
S11319B0C610C2010E94EB10882309F4C0C10E9422
S11319C0D411882399F3EDB7FEB76B96FFAFEEAF52
S11319D06B97E82EF12C2DB73EB72E193F090FB6A1
S11319E0F8943EBF0FBE2DBF8DB79EB701966C0114
S11319F067969FAF8EAF6797A12CB12C0E94B91147
S1131A008D3081F0EA14FB0484F06796EEADFFADEF
S1131A10679781936796FFAFEEAF6797FFEFAF1AB3
S1131A20BF0AECCFAB2809F478C1F6018081803776
S1131A3009F4E5C08237D1F08C3609F06EC1CDB619
S1131A40DEB66F966EAD7FAD6F97CE0180960E9425
S1131A50070389E591E09F938F93CE0101967C0162
S1131A609F938F930E94E715B7014FC1CDB6DEB6A1
S1131A70B101CE0101960E94A20289819A81AB81B3
S1131A80BC81F80180839183A283B3838D819E817D
S1131A90AF81B88584839583A683B78389859A8526
S1131AA0AB85BC8580879187A287B3878D85848722
S1131AB08E859F85A889B98985879687A787B08BE6
S1131AC08A899B89AC89BD89818B928BA38BB48BCA
S1131AD08E89858B8F89988DA98DBA8D868B978BEE
S1131AE0A08FB18F8B8D9C8DAD8DBE8D828F938F8A
S1131AF0A48FB58F8F8D868F41E0B801CE018D966E
S1131B000E941C0442E0B801CE0180960E941C048D
S1131B1043E0B801CE0101960E941C042DB73EB7E4
S1131B202C5631090FB6F8943EBF0FBE2DBF8DB7AA
S1131B309EB701967C018D858F938C858F938B85C1
S1131B408F938A858F9389858F9388858F938F81CF
S1131B508F938E818F938D818F938C818F938B81C3
S1131B608F938A818F938CA58F938BA58F938AA54E
S1131B708F9389A58F9388A58F938FA18F938EA11F
S1131B808F938DA18F938CA18F938BA18F938AA117
S1131B908F9389A18F9389AD8F9388AD8F938FA9EC
S1131BA08F938EA98F938DA98F938CA98F938BA9D3
S1131BB08F938AA98F9389A98F9388A98F938FA5CF
S1131BC08F938EA58F93F80183818F9382818F9356
S1131BD081818F9380818F9387E091E09F938F938E
S1131BE0FF92EF920E94E7152DB73EB7245D3F4F59
S1131BF00FB6F8943EBF0FBE2DBFB70186C0CE010D
S1131C00CA960E940404CE018D960E940404CE015B
S1131C1080960E9404042D963FAD2D973F932C96F9
S1131C208FAD2C978F932F969FAD2F979F932E96C2
S1131C30EFAD2E97EF936196FFAD6197FF9360969A
S1131C402FAD60972F9363963FAD63973F93629652
S1131C508FAD62978F9365969FAD65979F936496BA
S1131C60EFAD6497EF93CE018E969F938F93699611
S1131C70FFAD6997FF9368962FAD68972F934196B0
S1131C809F938F9304979F938F939F928F928EE24B
S1131C9091E09F938F93DF92CF920E940916F401F3
S1131CA080819181A281B38189839A83AB83BC8330
S1131CB0BE01665C7F4FCE0101960E946103BE01A6
S1131CC0635D7F4FCE0101960E946103BE01605E99
S1131CD07F4FCE0101960E946103BE016F5F7F4F6B
S1131CE0C1010E944F02C1010E94490266E571E0F0
S1131CF0C3010E94500C2DB73EB7285E3F4F0FB66C
S1131D00F8943EBF0FBE2DBF08C0C3010E94500C03
S1131D100FB6F894DEBE0FBECDBE6B96EEADFFAD32
S1131D206B970FB6F894FEBF0FBEEDBF3FCEC20156
S1131D300E94C610C2010E94EB108111F9CD6D966C
S1131D402EAD3FAD6D970FB6F8943EBF0FBE2DBFBD
S1131D50C25ADF4F0FB6F894DEBF0FBECDBFDF917E
S1131D60CF911F910F91FF90EF90DF90CF90BF9094
S1131D70AF909F908F907F906F905F904F903F9027
S1131D802F900895CF93DF93EC010E944C11CE0164
S1131D900C960E944C11CE0148960E944C11CE0123
S1131DA085960E94ED0081E08EA741E050E060E05E
S1131DB070E04FA758AB69AB7AAB4BAB5CAB6DAB88
S1131DC07EAB40E050E060E87FE34FAB58AF69AFD3
S1131DD07AAF92E09DA71BAE8CA380E090E0A0E0D8
S1131DE0B0E48CAF9DAFAEAFBFAFDF91CF9108959C
S1131DF03F924F925F926F927F928F929F92AF9297
S1131E00BF92CF92DF92EF92FF920F931F93CF93E3
S1131E10DF93CDB7DEB760970FB6F894DEBF0FBE81
S1131E20CDBF7C018B013A0149010E944C1157013D
S1131E308CE0A80EB11CC5010E944C116701E8E1B9
S1131E40CE0ED11CC6010E944C112701F5E24F0EA3
S1131E50511CC2010E94ED0033243394F70136A6CD
S1131E6081E090E0A0E0B0E087A790ABA1ABB2AB7B
S1131E7083AB94ABA5ABB6AB80E090E0A0E8BFE346
S1131E8087AB90AFA1AFB2AFF8018081F70186A70D
S1131E90F80181819281A381B481F70187A790AB76
S1131EA0A1ABB2ABF80185819681A781B085F7011A
S1131EB083AB94ABA5ABB6ABF80181859285A385C2
S1131EC0B485F70187AB90AFA1AFB2AFB701615D45
S1131ED07F4FCE0101960E9452118CE0FE01319693
S1131EE0D70101900D928A95E1F7CE0101960E94E7
S1131EF09711B7016D5C7F4FCE0101960E9452117C
S1131F008CE0FE013196D50101900D928A95E1F79E
S1131F10CE0101960E94971188E893E1A0E0B0E019
S1131F208D879E87AF87B88BBE01635F7F4FCE01DD
S1131F3001960E9452118CE0FE013196D601019067
S1131F400D928A95E1F7CE0101960E949711F7014F
S1131F5007A910AD21AD32ADA401B301CE010196A4
S1131F600E94EE0087E0FE013196D20101900D92AD
S1131F708A95E1F7CE0101960E94400282E0F701C2
S1131F8085A713AE34A280E090E0A0E0B0E484AF73
S1131F9095AFA6AFB7AF60960FB6F894DEBF0FBE8D
S1131FA0CDBFDF91CF911F910F91FF90EF90DF9004
S1131FB0CF90BF90AF909F908F907F906F905F90E5
S1131FC04F903F900895CF93DF93EC011DA60E949C
S1131FD05D1181E08CA31BAEDF91CF9108958F92A8
S1131FE09F92AF92BF92CF92DF92EF92FF920F93A4
S1131FF01F93CF93DF93EC011DA51130A9F018F0C6
S1132000133001F16AC00E946D11882309F465C080
S1132010CE010C960E945D1160E0CE0185960E946F
S1132020FD0081E08DA75AC00C960E946D11882393
S113203009F453C0CE0185960E942C0282E08DA73C
S11320401BAF4BC06C0128E1C20ED11CC6010E941B
S11320506D11882309F441C08CAC9DACAEACBFAC0F
S113206020E030E040E050E4C501B4010E941514C2
S11320708E010B5D1F4F9E01245C3F4F790181113E
S113208005C080E090E0A0EAB0E40EC020E030E0BB
S113209040EA51E4C501B4010E941514811109C03C
S11320A080E090E0A0E0B0E48CAF9DAFAEAFBFAFF6
S11320B00CC020E030E040EA50E4C501B4010E94C5
S11320C0A9136CAF7DAF8EAF9FAF40E0B701C801DD
S11320D00E949401C6010E945D1180E0DF91CF91BE
S11320E01F910F91FF90EF90DF90CF90BF90AF9032
S11320F09F908F900895CF93DF93EC0183E08DA799
S113210080E090E0A0E0B0E48CAF9DAFAEAFBFAF95
S1132110CE0148960E945D11BE01645C7F4F40E091
S1132120CE018596DF91CF910C949401CF93DF93E8
S1132130EC0185960E942C0281E08BAF8CA3DF9189
S1132140CF910895FC0183AD0895CF93DF93EC0103
S113215085960E944002CE0148960E949711CE01B6
S11321600C960E949711CE01DF91CF910C94971198
S11321700895FC011082728761871282DA018C91C2
S1132180848311821382168220870895FC01A1851D
S1132190B2852C9181E090E0048002C0880F991FE1
S11321A00A94E2F730E082239323208530E08217FB
S11321B0930761F481818F5F8183843040F081E0F3
S11321C0808386818F5F86831182089510820895AB
S11321D0FC0111820895FC01808108950895FC0199
S11321E01382108284E081830895FB012081DC0145
S11321F02C93218111962C931197228112962C9362
S1132200089521E0FC019281FB018281981301C0B1
S113221020E0822F089508951092800089E0809331
S1132220810082E080936F0080E89EE390938900B0
S11322308093880008952FB7F894609139037091C2
S11322403A0380913B0390913C032FBF08951F9262
S11322500F920FB60F9211248F939F93AF93BF9356
S11322608091390390913A03A0913B03B0913C03D0
S11322700196A11DB11D8093390390933A03A09355
S11322803B03B0933C03BF91AF919F918F910F900B
S11322900FBE0F901F901895FC01108611861286B0
S11322A013860895FB014081518162817381FC0191
S11322B040875187628773870895CF93DF93EC013A
S11322C00E941B116C837D838E839F836883798333
S11322D08A839B83DF91CF910895CF92DF92EF920F
S11322E0FF92CF93DF93EC010E941B116C837D83DB
S11322F08E839F83C880D980EA80FB80DC01CB0178
S11323008C199D09AE09BF0921E0C884D984EA84E7
S1132310FB848C159D05AE05BF0508F420E0822FD3
S1132320DF91CF91FF90EF90DF90CF9008950895C3
S11323308091E80080FFFCCF089581E08093D7006E
S113234080EA8093D80082E189BD09B400FEFDCF04
S113235080E98093D8001092E0001092400310921C
S11323603D038CE08093E2007894089580914003CB
S113237008959FB7F89480914003882339F083E04F
S11323808093E9008091E80085FD03C09FBF8FEF33
S113239008958091F1002091E80025FD03C02BE60B
S11323A02093E8009FBF08959FB7F894809140035D
S11323B0882331F083E08093E9008091F20001C02A
S11323C080E09FBF089590914003992309F19FB73E
S11323D0F89424E02093E90020913E03222341F065
S11323E02091E80025FD02C09FBF12C010923E0359
S11323F02091E400275E34E04091E80045FD13C0DD
S11324009FBF9091E400291305C081E080933E03AF
S11324108FEF0895909140039923D1F39FB7F894D7
S11324203093E900E9CF8093F1008091E80085FDC5
S113243003C08AE38093E80085E080933F039FBF55
S113244080E008951F920F920FB60F9211248F937C
S11324509F938091E1001092E10083FF11C01092DC
S1132460E90091E09093EB001092EC0092E19093DC
S1132470ED0098E09093F0001092400310923D0319
S113248082FF13C080914003882379F080913F0339
S1132490882359F0815080933F03811106C084E062
S11324A08093E9008AE38093E8009F918F910F90D5
S11324B00FBE0F901F9018951F920F920FB60F9298
S11324C01124FF920F931F932F933F934F935F9386
S11324D06F937F938F939F93AF93BF93CF93DF9328
S11324E0EF93FF931092E9008091E80083FF17C1F6
S11324F0F090F1008091F1000091F1009091F100D1
S113250010E0192BC091F1009091F100D0E0D92B8B
S11325102091F1006091F10092EF9093E8008630F1
S113252009F049C088EB90E042EE50E0FC01A5912F
S1132530B4910A171B07D9F4FC013296A591B49102
S1132540CA17DB07A1F4FC01349645915491FC01B0
S11325503696849130E0362B2F3F310519F010F078
S11325602FEF30E0281708F4822F3EEF0CC00796B7
S113257048175907D9F6D3C0490F511D891B309309
S1132580E8008823A9F09091E800292F2570D9F359
S113259092FDC8C0982F813108F090E1FA01292FEB
S11325A0222351F364916093F10021503196F8CFC6
S11325B0903149F3B7C0853049F48EEF8093E80039
S11325C00E94981100680093E300ACC0893059F56B
S11325D0F110A5C00093400310923D0310923F03F5
S11325E08EEF8093E80041E085E791E04093E900B5
S11325F09C012F5F3F4FFC0154915093EB005523F6
S113260059F0F90124912093EC009C012D5F3F4F78
S11326103196E491E093ED004F5F453011F0C9012C
S1132620E5CF8EE177C0883051F4F0E8FF1277C02F
S11326300E949811809140038093F10049C0813237
S113264081F481EAF8126BC00E949811E0E0F1E095
S113265087E091E021912093F1008E179F07D1F735
S113266037C08032A9F491E2F91259C08091E80090
S113267082FFFCCFE0E0F1E087E091E02091F100FF
S113268021938E179F07D1F78BEF8093E80020C02A
S1132690823241F4E1E2FE1242C000933D030E9403
S11326A0981116C0811118C00E949811F2E8FF1207
S11326B00AC0C093E9008091EB0085FB882780F96C
S11326C01092E90001C080E08093F1001092F100C3
S11326D08EEF8093E80026C0982F9D7F9130F9F407
S11326E092E0F9121CC0012BD1F4CF779FEF9C0F1D
S11326F09430A8F49EEF9093E800C093E9008330EF
S113270071F089E18093EB0081E090E001C0880FD3
S1132710CA95EAF78093EA001092EA0003C081E2C6
S11327208093EB00FF91EF91DF91CF91BF91AF9137
S11327309F918F917F916F915F914F913F912F91D5
S11327401F910F91FF900F900FBE0F901F9018953F
S11327505058BB27AA270E94C0130C943A150E9414
S11327602C1538F00E94331520F039F49F3F19F4EA
S113277026F40C9429150EF4E095E7FB0C9423152C
S1132780E92F0E944B1558F3BA17620773078407A1
S1132790950720F079F4A6F50C946D150EF4E095E8
S11327A00B2EBA2FA02D0B01B90190010C01CA0107
S11327B0A0011124FF27591B99F0593F50F4503EB2
S11327C068F11A16F040A22F232F342F4427585FA4
S11327D0F3CF469537952795A795F0405395C9F7BC
S11327E07EF41F16BA0B620B730B840BBAF0915074
S11327F0A1F0FF0FBB1F661F771F881FC2F70EC013
S1132800BA0F621F731F841F48F4879577956795E5
S1132810B795F7959E3F08F0B0CF9395880F08F0D1
S11328209927EE0F9795879508950E94FF1408F451
S113283081E008950E942E140C943A150E943315D9
S113284058F00E942C1540F029F45F3F29F00C94B5
S1132850231551110C946E150C9429150E944B15D7
S113286068F39923B1F3552391F3951B550BBB27BB
S1132870AA2762177307840738F09F5F5F4F220F00
S1132880331F441FAA1FA9F335D00E2E3AF0E0E8F7
S113289032D091505040E695001CCAF72BD0FE2F41
S11328A029D0660F771F881FBB1F261737074807D5
S11328B0AB07B0E809F0BB0B802DBF01FF2793588D
S11328C05F4F3AF09E3F510578F00C9423150C9419
S11328D06E155F3FE4F3983ED4F38695779567953C
S11328E0B795F7959F5FC9F7880F911D96958795C2
S11328F097F90895E1E0660F771F881FBB1F6217E1
S113290073078407BA0720F0621B730B840BBA0B9E
S1132910EE1F88F7E09508950E9493146894B1110E
S11329200C946E1508950E94531588F09F5798F0E3
S1132930B92F9927B751B0F0E1F0660F771F881FC0
S1132940991F1AF0BA95C9F714C0B13091F00E94DA
S11329506D15B1E008950C946D15672F782F8827B5
S1132960B85F39F0B93FCCF3869577956795B39501
S1132970D9F73EF490958095709561957F4F8F4F70
S11329809F4F0895E89409C097FB3EF49095809575
S1132990709561957F4F8F4F9F4F9923A9F0F92F21
S11329A096E9BB279395F695879577956795B7959F
S11329B0F111F8CFFAF4BB0F11F460FF1BC06F5F85
S11329C07F4F8F4F9F4F16C0882311F096E911C097
S11329D0772321F09EE8872F762F05C0662371F0B8
S11329E096E8862F70E060E02AF09A95660F771FCC
S11329F0881FDAF7880F9695879597F90895990FA8
S1132A000008550FAA0BE0E8FEEF16161706E807B4
S1132A10F907C0F012161306E407F50798F0621BD5
S1132A20730B840B950B39F40A2661F0232B242BAA
S1132A30252B21F408950A2609F4A140A6958FEFC9
S1132A40811D811D089597F99F6780E870E060E01B
S1132A5008959FEF80EC089500240A941616170633
S1132A6018060906089500240A941216130614067B
S1132A7005060895092E0394000C11F4882352F0DE
S1132A80BB0F40F4BF2B11F460FF04C06F5F7F4F96
S1132A908F4F9F4F089557FD9058440F551F59F07D
S1132AA05F3F71F04795880F97FB991F61F09F3F37
S1132AB079F087950895121613061406551FF2CF60
S1132AC04695F1DF08C0161617061806991FF1CFB0
S1132AD086957105610508940895E894BB276627D7
S1132AE07727CB0197F908950E9487150C943A151E
S1132AF00E942C1538F00E94331520F0952311F014
S1132B000C9423150C94291511240C946E150E9411
S1132B104B1570F3959FC1F3950F50E0551F629FBD
S1132B20F001729FBB27F00DB11D639FAA27F00D22
S1132B30B11DAA1F649F6627B00DA11D661F829F49
S1132B402227B00DA11D621F739FB00DA11D621F2E
S1132B50839FA00D611D221F749F3327A00D611D4B
S1132B60231F849F600D211D822F762F6A2F11242D
S1132B709F5750409AF0F1F088234AF0EE0FFF1F60
S1132B80BB1F661F771F881F91505040A9F79E3FB7
S1132B90510580F00C9423150C946E155F3FE4F3FB
S1132BA0983ED4F3869577956795B795F795E7950D
S1132BB09F5FC1F7FE2B880F911D9695879597F916
S1132BC00895EE0FFF1F0590F491E02D0994AEE0F7
S1132BD0B0E0EDEEF5E10C94261C0D891E8986E02B
S1132BE08C831A8309838FEF9FE79E838D83AE01C5
S1132BF0475E5F4F6F89788DCE0101960E94221641
S1132C00EF81F885E00FF11F10822E96E4E00C941A
S1132C10421CAEE0B0E0EFE0F6E10C94281C85E045
S1132C208C838B899C899A838983AE01495E5F4F2B
S1132C306D897E89CE0101960E949F192E96E2E04D
S1132C400C94441CABE0B0E0E8E2F6E10C94181CF0
S1132C506C017B018A01FC0117821682838181FF4A
S1132C60CCC1CE0101963C01F6019381F70193FD9D
S1132C70859193FF81917F01882309F4BAC185323C
S1132C8039F493FD859193FF81917F01853229F475
S1132C90B60190E00E94181BE7CF912C212C312C17
S1132CA0FFE1F315D8F08B3279F038F4803279F003
S1132CB08332A1F4232D20611DC08D3261F0803355
S1132CC069F4232D216016C0832D8260382EE32DF4
S1132CD0E4603E2E2AC0F32DF8601DC037FC2DC0E1
S1132CE020ED280F2A3040F08E32B9F436FC81C131
S1132CF0232D2064322E19C036FE06C08AE0989E29
S1132D00200D1124922E11C0EAE02E9E200D1124D4
S1132D10222EF32DF0623F2E08C08C3621F4832D31
S1132D208068382E02C0883641F4F70193FD8591FE
S1132D3093FF81917F018111B3CF982F9F7D95548B
S1132D40933028F40C5F1F4F9FE399830DC08336A3
S1132D5031F0833771F0833509F059C021C0F8018F
S1132D60808189830E5F1F4F88248394912C5301A3
S1132D7013C02801F2E04F0E511CF801A080B1806D
S1132D8036FE03C0692D70E002C06FEF7FEFC5010E
S1132D900E94CF1A4C018201F32DFF773F2E16C0FB
S1132DA0280122E0420E511CF801A080B18036FEB9
S1132DB003C0692D70E002C06FEF7FEFC5010E9470
S1132DC0C41A4C01F32DF0683F2E820133FC1BC062
S1132DD0822D90E088169906B0F4B60180E290E066
S1132DE00E94181B2A94F4CFF50137FC859137FE15
S1132DF081915F01B60190E00E94181B21102A9472
S1132E0021E0821A91088114910471F7E8C0843694
S1132E1011F0893641F5F80137FE07C060817181F0
S1132E20828193810C5F1F4F08C060817181072EDE
S1132E30000C880B990B0E5F1F4FF32DFF763F2E6E
S1132E4097FF09C090958095709561957F4F8F4F3E
S1132E509F4FF0683F2E2AE030E0A3010E946D1BD3
S1132E60882E861845C0853731F4232D2F7EB22E47
S1132E702AE030E025C0932D997FB92E8F36C1F01A
S1132E8018F4883579F0B5C0803719F0883721F007
S1132E90B0C0E92FE061BE2EB4FE0DC0FB2DF4607E
S1132EA0BF2E09C034FE0AC0292F2660B22E06C0E8
S1132EB028E030E005C020E130E002C020E132E04B
S1132EC0F801B7FE07C060817181828193810C5F34
S1132ED01F4F06C06081718180E090E00E5F1F4F3C
S1132EE0A3010E946D1B882E8618FB2DFF773F2EB1
S1132EF036FE0DC0232D2E7FA22E891458F434FEE5
S1132F000BC032FC09C0832D8E7EA82E05C0B82CC0
S1132F10A32C03C0B82C01C0B92CA4FE0FC0FE0121
S1132F20E80DF11D8081803321F49A2D997EA92E1C
S1132F3009C0A2FE06C0B394B39404C08A2D867857
S1132F4009F0B394A3FC11C0A0FE06C0B21488F427
S1132F50280C922C9B180EC0B21460F4B60180E2C7
S1132F6090E00E94181BB394F7CFB21418F42B18F6
S1132F7002C0982C212CA4FE10C0B60180E390E07E
S1132F800E94181BA2FE17C0A1FC03C088E790E0B2
S1132F9002C088E590E0B6010CC08A2D867859F00D
S1132FA0A1FE02C08BE201C080E2A7FC8DE2B60163
S1132FB090E00E94181B891438F4B60180E390E075
S1132FC00E94181B9A94F7CF8A94F301E80DF11D1F
S1132FD08081B60190E00E94181B8110F5CF222059
S1132FE009F442CEB60180E290E00E94181B2A94B4
S1132FF0F6CFF6018681978102C08FEF9FEF2B9663
S1133000E2E10C94341C20FD09C0FC0123FD05C041
S113301022FF02C07383628351834083089544FD79
S113302017C046FD17C0AB01BC01DA01FB01AA0FB2
S1133030BB1FEE1FFF1F1094D1F74A0F5B1F6E1FBB
S11330407F1FCB01BA01660F771F881F991F09C024
S113305033E001C034E0660F771F881F991F315099
S1133060D1F7620F711D811D911D08950F931F9358
S1133070CF93DF938C01C8010E94DA1AEC0197FD0B
S113308008C00E94B01A892BB1F7B801CE010E9482
S1133090541BCE01DF91CF911F910F9108958F9210
S11330A09F92AF92BF92EF92FF920F931F93CF9391
S11330B0DF938C01D62F7A01B22E0E94DA1A9C017A
S11330C033272B32310531F02D32310561F48B2D4C
S11330D08068B82ED15011F480E068C0C8010E9405
S11330E0DA1A97FDF9CFCB2DCD7F2B2D207309F55F
S11330F08033F9F4AA24AA94AD0E09F443C0C8019C
S11331000E94DA1A97FD3EC09C012F7D3327283593
S1133110310549F4C264D250A9F1C8010E94DA1AF7
S113312097FF07C02FC0B6FE02C0C26001C0C261D3
S1133130DA2D812C912C540120ED280F283080F0B9
S1133140C4FF04C0B8010E94541B19C02A3040F0C7
S1133150C6FFF8CF2F7D3FEE320F363098F7275059
S11331604C2FC501B4010E940F184B015C01C260D1
S1133170D15059F0C8010E94DA1A97FFDDCFC1FD82
S113318004C0AACF812C912C5401C7FF08C0B0946D
S1133190A09490948094811C911CA11CB11C2C2F90
S11331A0B501A401C7010E94031881E0DF91CF910A
S11331B01F910F91FF90EF90BF90AF909F908F90D1
S11331C00895A0E2B0E0E7EEF8E10C941B1C5C016A
S11331D0962E7A01F9018E010F5F1F4F680180E27C
S11331E0D8011D928A95E9F7D50113968C9080E059
S11331F090E0612C712C30E061E070E083FC25915B
S113320083FE21918F01522E211103C080E090E0B2
S113321092C02E3511F4009751F1432F50E0481716
S113322059073CF42D3559F12D3219F4772009F161
S113323003C0772009F46AC0452D46954695469506
S1133240D601A40FB11D452D47708B0102C0000F9C
S1133250111F4A95E2F7A8015C91452B4C93651424
S113326059F0561410F45394E7CF5A94E5CF31E053
S113327004C07724739401C0712C0196BFCF7720CA
S113328019F08E8180628E83311103C08824839467
S113329017C0F6019E012F5D3F4F80818095819379
S11332A02E173F07D1F7F2CFE114F10429F0D7012B
S11332B08C93F70131967F019A94812C9920F9F02F
S11332C0C5010E94DA1A97FD18C0FC01FF2723E00C
S11332D0F595E7952A95E1F7EC0DFD1D208130E089
S11332E0AC014770552702C0359527954A95E2F7FA
S11332F020FDDACFB5010E94541B811087CFE11461
S1133300F10411F0D7011C92C80115C0422F469553
S113331046954695D601A40FB11D422F47708B01E7
S113332002C0000F111F4A95E2F7A8015C91452BDA
S11333304C93622EA2CFA096EFE00C94371CA0E031
S1133340B0E0E5EAF9E10C941B1C6C01EB015A01B5
S1133350FC0117821682512CF601E380FE01E3FC86
S11333608591E3FE8191182FEF01882309F4EEC0C3
S113337090E00E94B01A892B21F0C6010E943618F1
S1133380EBCF153241F4FE01E3FC1591E3FE1191FC
S1133390EF01153281F4C6010E94DA1A97FDD4C0F8
S11333A0412F50E09C01332724173507A9F2B601B9
S11333B00E94541BCBC01A3239F4E3FC1591E3FE8E
S11333C01191EF0101E001C000E0F12C20ED210F8B
S11333D02A3080F402606F2D70E080E090E040E2DB
S11333E00E940F18F62EFE01E3FC1591E3FE1191E5
S11333F0EF01ECCF01FF03C0F11003C0A7C0FF240D
S1133400FA94183619F01C3651F010C0FE01E3FC92
S11334101591E3FE1191EF01183641F40860046040
S1133420FE01E3FC1591E3FE1191EF01112309F470
S11334308DC0612F70E08CEA90E00E94B91A892B4C
S113344009F484C000FD07C0F50180809180C501A6
S113345002965C0102C0812C912C1E3651F4F601B7
S11334604681578160E070E0202FC4010E94031858
S113347073CF1336A9F401FD02C0FF24F394C601EF
S11334800E94DA1A97FD60C08114910429F0F401B6
S11334908083C40101964C01FA94F110F0CF50C01E
S11334A01B3559F49E01A4016F2DC6010E94E11839
S11334B0EC01892B09F044C03EC0C6010E943618B5
S11334C097FD42C01F3661F128F4143639F11936DC
S11334D051F128C0133771F0153701F123C081145D
S11334E0910429F0F4016082C40101964C01FA941C
S11334F0FF2071F0C6010E94DA1A3C0197FD08C052
S11335000E94B01A892B59F3B601C3010E94541BBF
S113351081149104A9F0F401108212C0006203C066
S1133520006101C00064202FA4016F2DC6010E9418
S11335304F18811105C0F6018381807329F406C0F8
S113354000FD0ACF539408CF552019F0852D90E043
S113355002C08FEF9FEFCDB7DEB7EFE00C94371CBE
S113356091110C94CB1B803219F089508550C8F707
S11335700895FC010590061621F00020D9F7C0013A
S113358008953197CF010895FC0105906150704072
S11335900110D8F7809590958E0F9F1F0895FC0118
S11335A06150704001900110D8F7809590958E0F6E
S11335B09F1F0895CF93DF93EC012B8120FF33C02D
S11335C026FF0AC02F7B2B838E819F8101969F83C8
S11335D08E838A8190E029C022FF0FC0E881F9819F
S11335E08081082E000C990B009719F420622B831C
S11335F01AC03196F983E8830EC0EA85FB850995E4
S113360097FF09C02B81019611F080E201C080E18F
S1133610822B8B8308C02E813F812F5F3F4F3F83D6
S11336202E83992702C08FEF9FEFDF91CF910895EA
S11336300F931F93CF93DF93FB01238121FD03C0DD
S11336408FEF9FEF2CC022FF16C046815781248143
S113365035814217530744F4A081B1819D012F5F46
S11336603F4F318320838C93268137812F5F3F4FD7
S11336703783268314C08B01EC01FB010084F185A0
S1133680E02D0995892BE1F6D80116968D919C9130
S11336901797019617969C938E931697CE01DF91F8
S11336A0CF911F910F910895FB01238120FF12C038
S11336B026FD10C08F3F3FEF930761F082832F7D7B
S11336C0206423832681378121503109378326835F
S11336D0992708958FEF9FEF0895FA01AA272830BC
S11336E051F1203181F1E8946F936E7F6E5F7F4FCB
S11336F08F4F9F4FAF4FB1E03ED0B4E03CD0670F47
S1133700781F891F9A1FA11D680F791F8A1F911D99
S1133710A11D6A0F711D811D911DA11D20D009F4E9
S113372068943F912AE0269F11243019305D31932B
S1133730DEF6CF010895462F4770405D4193B3E014
S11337400FD0C9F7F6CF462F4F70405D4A3318F0BB
S1133750495D31FD4052419302D0A9F7EACFB4E06C
S1133760A6959795879577956795BA95C9F7009724
S11337706105710508959B01AC010A2E06945795C5
S1133780479537952795BA95C9F7620F731F841F1C
S1133790951FA01D0895992788270895DC01CB0162
S11337A0FC01F999FECF06C0F2BDE1BDF89A31964D
S11337B000B40D9241505040B8F70895DC01A40FB5
S11337C0B51F4150504048F0CB01840F951F2E91F6
S11337D00E94EF1B41505040D0F70895262FF999CD
S11337E0FECF92BD81BDF89A019700B4021639F05C
S11337F01FBA20BD0FB6F894FA9AF99A0FBE08952D
S1133800DC01CB0103C02D910E940B1C41505040A0
S1133810D0F70895262FF999FECF1FBA92BD81BD26
S113382020BD0FB6F894FA9AF99A0FBE019608953E
S11338302F923F924F925F926F927F928F929F92BC
S1133840AF92BF92CF92DF92EF92FF920F931F93AA
S1133850CF93DF93CDB7DEB7CA1BDB0B0FB6F8945B
S1133860DEBF0FBECDBF09942A88398848885F849B
S11338706E847D848C849B84AA84B984C884DF800C
S1133880EE80FD800C811B81AA81B981CE0FD11DF0
S11338900FB6F894DEBF0FBECDBFED01089510E062
S11338A0C2ECD0E004C0FE010E94E1152196C33CA5
S10B38B0D107C9F7F894FFCF1A
S11338B800E10000000008256C643B256C642C259D
S11338C86C642C25663B256C642C256C642C25665D
S11338D83B256C642C256C642C25663B0D00703BE1
S11338E8256C643B256C642C256C642C25663B256F
S11338F86C642C256C642C25663B256C642C256C27
S1133908642C25663B00730D006C3B25642C2564F0
S10D39182C25642C25643B0D0000EF
S9030000FC
